{
	"contracts/datasharingcontract.sol": {
		"DataSharingContract": {
			"abi": [
				{
					"inputs": [
						{
							"internalType": "address",
							"name": "_adminContract",
							"type": "address"
						}
					],
					"stateMutability": "nonpayable",
					"type": "constructor"
				},
				{
					"anonymous": false,
					"inputs": [
						{
							"indexed": true,
							"internalType": "address",
							"name": "sender",
							"type": "address"
						},
						{
							"indexed": true,
							"internalType": "address",
							"name": "receiver",
							"type": "address"
						},
						{
							"indexed": false,
							"internalType": "string",
							"name": "cid",
							"type": "string"
						},
						{
							"indexed": false,
							"internalType": "uint256",
							"name": "timestamp",
							"type": "uint256"
						}
					],
					"name": "DataShared",
					"type": "event"
				},
				{
					"inputs": [],
					"name": "adminContract",
					"outputs": [
						{
							"internalType": "contract IAdminContract",
							"name": "",
							"type": "address"
						}
					],
					"stateMutability": "view",
					"type": "function"
				},
				{
					"inputs": [],
					"name": "getMySharedData",
					"outputs": [
						{
							"components": [
								{
									"internalType": "string",
									"name": "cid",
									"type": "string"
								},
								{
									"internalType": "bytes",
									"name": "encryptedKey",
									"type": "bytes"
								},
								{
									"internalType": "address",
									"name": "sender",
									"type": "address"
								},
								{
									"internalType": "uint256",
									"name": "timestamp",
									"type": "uint256"
								}
							],
							"internalType": "struct DataSharingContract.SharedData[]",
							"name": "",
							"type": "tuple[]"
						}
					],
					"stateMutability": "view",
					"type": "function"
				},
				{
					"inputs": [
						{
							"internalType": "address",
							"name": "receiver",
							"type": "address"
						},
						{
							"internalType": "string",
							"name": "cid",
							"type": "string"
						},
						{
							"internalType": "bytes",
							"name": "encryptedKey",
							"type": "bytes"
						}
					],
					"name": "shareData",
					"outputs": [],
					"stateMutability": "nonpayable",
					"type": "function"
				}
			],
			"devdoc": {
				"kind": "dev",
				"methods": {
					"constructor": {
						"params": {
							"_adminContract": "Adresse des deploybaten AdminContract."
						}
					},
					"getMySharedData()": {
						"details": "Zugriff ist ausschließlich über msg.sender möglich – kein Fremdzugriff.",
						"returns": {
							"_0": "Array von SharedData-Structs (cid, encryptedKey, sender, timestamp)."
						}
					},
					"shareData(address,string,bytes)": {
						"details": "- Sender UND Empfänger müssen registriert sein.         - Der encryptedKey ist der symmetrische Schlüssel,           der mit dem Public Key des Empfängers verschlüsselt wurde (Off-Chain).         - Kein Klartext-Schlüssel wird gespeichert.",
						"params": {
							"cid": "IPFS Content Identifier der verschlüsselten Datei.",
							"encryptedKey": "Verschlüsselter symmetrischer Schlüssel (bytes).",
							"receiver": "Ethereum-Adresse des Empfängers."
						}
					}
				},
				"stateVariables": {
					"sharedDataFor": {
						"details": "Mapping: Empfänger-Adresse => Liste aller für ihn geteilten Datenpakete. Zugriff ist nur per msg.sender möglich (kein fremder Zugriff)."
					}
				},
				"version": 1
			},
			"evm": {
				"assembly": "    /* \"contracts/datasharingcontract.sol\":429:4020  contract DataSharingContract {... */\n  mstore(0x40, 0xa0)\n    /* \"contracts/datasharingcontract.sol\":1775:1973  constructor(address _adminContract) {... */\n  callvalue\n  dup1\n  iszero\n  tag_1\n  jumpi\n  revert(0x00, 0x00)\ntag_1:\n  pop\n  mload(0x40)\n  sub(codesize, bytecodeSize)\n  dup1\n  bytecodeSize\n  dup4\n  codecopy\n  dup2\n  dup2\n  add\n  0x40\n  mstore\n  dup2\n  add\n  swap1\n  tag_2\n  swap2\n  swap1\n  tag_3\n  jump\t// in\ntag_2:\n    /* \"contracts/datasharingcontract.sol\":1856:1857  0 */\n  0x00\n    /* \"contracts/datasharingcontract.sol\":1830:1858  _adminContract != address(0) */\n  0xffffffffffffffffffffffffffffffffffffffff\n  and\n    /* \"contracts/datasharingcontract.sol\":1830:1844  _adminContract */\n  dup2\n    /* \"contracts/datasharingcontract.sol\":1830:1858  _adminContract != address(0) */\n  0xffffffffffffffffffffffffffffffffffffffff\n  and\n  sub\n    /* \"contracts/datasharingcontract.sol\":1822:1908  require(_adminContract != address(0), \"DataSharing: Ungueltige AdminContract-Adresse\") */\n  tag_6\n  jumpi\n  mload(0x40)\n  0x08c379a000000000000000000000000000000000000000000000000000000000\n  dup2\n  mstore\n  0x04\n  add\n  tag_7\n  swap1\n  tag_8\n  jump\t// in\ntag_7:\n  mload(0x40)\n  dup1\n  swap2\n  sub\n  swap1\n  revert\ntag_6:\n    /* \"contracts/datasharingcontract.sol\":1950:1964  _adminContract */\n  dup1\n    /* \"contracts/datasharingcontract.sol\":1919:1965  adminContract = IAdminContract(_adminContract) */\n  0xffffffffffffffffffffffffffffffffffffffff\n  and\n  0x80\n  dup2\n  0xffffffffffffffffffffffffffffffffffffffff\n  and\n  dup2\n  mstore\n  pop\n  pop\n    /* \"contracts/datasharingcontract.sol\":1775:1973  constructor(address _adminContract) {... */\n  pop\n    /* \"contracts/datasharingcontract.sol\":429:4020  contract DataSharingContract {... */\n  jump(tag_9)\n    /* \"#utility.yul\":88:205   */\ntag_11:\n    /* \"#utility.yul\":197:198   */\n  0x00\n    /* \"#utility.yul\":194:195   */\n  0x00\n    /* \"#utility.yul\":187:199   */\n  revert\n    /* \"#utility.yul\":334:460   */\ntag_13:\n    /* \"#utility.yul\":371:378   */\n  0x00\n    /* \"#utility.yul\":411:453   */\n  0xffffffffffffffffffffffffffffffffffffffff\n    /* \"#utility.yul\":404:409   */\n  dup3\n    /* \"#utility.yul\":400:454   */\n  and\n    /* \"#utility.yul\":389:454   */\n  swap1\n  pop\n    /* \"#utility.yul\":334:460   */\n  swap2\n  swap1\n  pop\n  jump\t// out\n    /* \"#utility.yul\":466:562   */\ntag_14:\n    /* \"#utility.yul\":503:510   */\n  0x00\n    /* \"#utility.yul\":532:556   */\n  tag_26\n    /* \"#utility.yul\":550:555   */\n  dup3\n    /* \"#utility.yul\":532:556   */\n  tag_13\n  jump\t// in\ntag_26:\n    /* \"#utility.yul\":521:556   */\n  swap1\n  pop\n    /* \"#utility.yul\":466:562   */\n  swap2\n  swap1\n  pop\n  jump\t// out\n    /* \"#utility.yul\":568:690   */\ntag_15:\n    /* \"#utility.yul\":641:665   */\n  tag_28\n    /* \"#utility.yul\":659:664   */\n  dup2\n    /* \"#utility.yul\":641:665   */\n  tag_14\n  jump\t// in\ntag_28:\n    /* \"#utility.yul\":634:639   */\n  dup2\n    /* \"#utility.yul\":631:666   */\n  eq\n    /* \"#utility.yul\":621:684   */\n  tag_29\n  jumpi\n    /* \"#utility.yul\":680:681   */\n  0x00\n    /* \"#utility.yul\":677:678   */\n  0x00\n    /* \"#utility.yul\":670:682   */\n  revert\n    /* \"#utility.yul\":621:684   */\ntag_29:\n    /* \"#utility.yul\":568:690   */\n  pop\n  jump\t// out\n    /* \"#utility.yul\":696:839   */\ntag_16:\n    /* \"#utility.yul\":753:758   */\n  0x00\n    /* \"#utility.yul\":784:790   */\n  dup2\n    /* \"#utility.yul\":778:791   */\n  mload\n    /* \"#utility.yul\":769:791   */\n  swap1\n  pop\n    /* \"#utility.yul\":800:833   */\n  tag_31\n    /* \"#utility.yul\":827:832   */\n  dup2\n    /* \"#utility.yul\":800:833   */\n  tag_15\n  jump\t// in\ntag_31:\n    /* \"#utility.yul\":696:839   */\n  swap3\n  swap2\n  pop\n  pop\n  jump\t// out\n    /* \"#utility.yul\":845:1196   */\ntag_3:\n    /* \"#utility.yul\":915:921   */\n  0x00\n    /* \"#utility.yul\":964:966   */\n  0x20\n    /* \"#utility.yul\":952:961   */\n  dup3\n    /* \"#utility.yul\":943:950   */\n  dup5\n    /* \"#utility.yul\":939:962   */\n  sub\n    /* \"#utility.yul\":935:967   */\n  slt\n    /* \"#utility.yul\":932:1051   */\n  iszero\n  tag_33\n  jumpi\n    /* \"#utility.yul\":970:1049   */\n  tag_34\n  tag_11\n  jump\t// in\ntag_34:\n    /* \"#utility.yul\":932:1051   */\ntag_33:\n    /* \"#utility.yul\":1090:1091   */\n  0x00\n    /* \"#utility.yul\":1115:1179   */\n  tag_35\n    /* \"#utility.yul\":1171:1178   */\n  dup5\n    /* \"#utility.yul\":1162:1168   */\n  dup3\n    /* \"#utility.yul\":1151:1160   */\n  dup6\n    /* \"#utility.yul\":1147:1169   */\n  add\n    /* \"#utility.yul\":1115:1179   */\n  tag_16\n  jump\t// in\ntag_35:\n    /* \"#utility.yul\":1105:1179   */\n  swap2\n  pop\n    /* \"#utility.yul\":1061:1189   */\n  pop\n    /* \"#utility.yul\":845:1196   */\n  swap3\n  swap2\n  pop\n  pop\n  jump\t// out\n    /* \"#utility.yul\":1202:1371   */\ntag_17:\n    /* \"#utility.yul\":1286:1297   */\n  0x00\n    /* \"#utility.yul\":1320:1326   */\n  dup3\n    /* \"#utility.yul\":1315:1318   */\n  dup3\n    /* \"#utility.yul\":1308:1327   */\n  mstore\n    /* \"#utility.yul\":1360:1364   */\n  0x20\n    /* \"#utility.yul\":1355:1358   */\n  dup3\n    /* \"#utility.yul\":1351:1365   */\n  add\n    /* \"#utility.yul\":1336:1365   */\n  swap1\n  pop\n    /* \"#utility.yul\":1202:1371   */\n  swap3\n  swap2\n  pop\n  pop\n  jump\t// out\n    /* \"#utility.yul\":1377:1609   */\ntag_18:\n    /* \"#utility.yul\":1517:1551   */\n  0x4461746153686172696e673a20556e6775656c746967652041646d696e436f6e\n    /* \"#utility.yul\":1513:1514   */\n  0x00\n    /* \"#utility.yul\":1505:1511   */\n  dup3\n    /* \"#utility.yul\":1501:1515   */\n  add\n    /* \"#utility.yul\":1494:1552   */\n  mstore\n    /* \"#utility.yul\":1586:1601   */\n  0x74726163742d4164726573736500000000000000000000000000000000000000\n    /* \"#utility.yul\":1581:1583   */\n  0x20\n    /* \"#utility.yul\":1573:1579   */\n  dup3\n    /* \"#utility.yul\":1569:1584   */\n  add\n    /* \"#utility.yul\":1562:1602   */\n  mstore\n    /* \"#utility.yul\":1377:1609   */\n  pop\n  jump\t// out\n    /* \"#utility.yul\":1615:1981   */\ntag_19:\n    /* \"#utility.yul\":1757:1760   */\n  0x00\n    /* \"#utility.yul\":1778:1845   */\n  tag_39\n    /* \"#utility.yul\":1842:1844   */\n  0x2d\n    /* \"#utility.yul\":1837:1840   */\n  dup4\n    /* \"#utility.yul\":1778:1845   */\n  tag_17\n  jump\t// in\ntag_39:\n    /* \"#utility.yul\":1771:1845   */\n  swap2\n  pop\n    /* \"#utility.yul\":1854:1947   */\n  tag_40\n    /* \"#utility.yul\":1943:1946   */\n  dup3\n    /* \"#utility.yul\":1854:1947   */\n  tag_18\n  jump\t// in\ntag_40:\n    /* \"#utility.yul\":1972:1974   */\n  0x40\n    /* \"#utility.yul\":1967:1970   */\n  dup3\n    /* \"#utility.yul\":1963:1975   */\n  add\n    /* \"#utility.yul\":1956:1975   */\n  swap1\n  pop\n    /* \"#utility.yul\":1615:1981   */\n  swap2\n  swap1\n  pop\n  jump\t// out\n    /* \"#utility.yul\":1987:2406   */\ntag_8:\n    /* \"#utility.yul\":2153:2157   */\n  0x00\n    /* \"#utility.yul\":2191:2193   */\n  0x20\n    /* \"#utility.yul\":2180:2189   */\n  dup3\n    /* \"#utility.yul\":2176:2194   */\n  add\n    /* \"#utility.yul\":2168:2194   */\n  swap1\n  pop\n    /* \"#utility.yul\":2240:2249   */\n  dup2\n    /* \"#utility.yul\":2234:2238   */\n  dup2\n    /* \"#utility.yul\":2230:2250   */\n  sub\n    /* \"#utility.yul\":2226:2227   */\n  0x00\n    /* \"#utility.yul\":2215:2224   */\n  dup4\n    /* \"#utility.yul\":2211:2228   */\n  add\n    /* \"#utility.yul\":2204:2251   */\n  mstore\n    /* \"#utility.yul\":2268:2399   */\n  tag_42\n    /* \"#utility.yul\":2394:2398   */\n  dup2\n    /* \"#utility.yul\":2268:2399   */\n  tag_19\n  jump\t// in\ntag_42:\n    /* \"#utility.yul\":2260:2399   */\n  swap1\n  pop\n    /* \"#utility.yul\":1987:2406   */\n  swap2\n  swap1\n  pop\n  jump\t// out\n    /* \"contracts/datasharingcontract.sol\":429:4020  contract DataSharingContract {... */\ntag_9:\n  mload(0x80)\n  codecopy(0x00, dataOffset(sub_0), dataSize(sub_0))\n  0x00\n  assignImmutable(\"0x1d3be50b2bb17407dd170f1d5da128d1def30c6b1598d6a629e79b4775265526\")\n  return(0x00, dataSize(sub_0))\nstop\n\nsub_0: assembly {\n        /* \"contracts/datasharingcontract.sol\":429:4020  contract DataSharingContract {... */\n      mstore(0x40, 0x80)\n      callvalue\n      dup1\n      iszero\n      tag_1\n      jumpi\n      revert(0x00, 0x00)\n    tag_1:\n      pop\n      jumpi(tag_2, lt(calldatasize, 0x04))\n      shr(0xe0, calldataload(0x00))\n      dup1\n      0x7c3fe30e\n      eq\n      tag_3\n      jumpi\n      dup1\n      0xc05c5e94\n      eq\n      tag_4\n      jumpi\n      dup1\n      0xf42691ce\n      eq\n      tag_5\n      jumpi\n    tag_2:\n      revert(0x00, 0x00)\n        /* \"contracts/datasharingcontract.sol\":3880:4017  function getMySharedData() external view onlyRegistered returns (SharedData[] memory) {... */\n    tag_3:\n      tag_6\n      tag_7\n      jump\t// in\n    tag_6:\n      mload(0x40)\n      tag_8\n      swap2\n      swap1\n      tag_9\n      jump\t// in\n    tag_8:\n      mload(0x40)\n      dup1\n      swap2\n      sub\n      swap1\n      return\n        /* \"contracts/datasharingcontract.sol\":518:563  IAdminContract public immutable adminContract */\n    tag_4:\n      tag_10\n      tag_11\n      jump\t// in\n    tag_10:\n      mload(0x40)\n      tag_12\n      swap2\n      swap1\n      tag_13\n      jump\t// in\n    tag_12:\n      mload(0x40)\n      dup1\n      swap2\n      sub\n      swap1\n      return\n        /* \"contracts/datasharingcontract.sol\":2572:3589  function shareData(... */\n    tag_5:\n      tag_14\n      0x04\n      dup1\n      calldatasize\n      sub\n      dup2\n      add\n      swap1\n      tag_15\n      swap2\n      swap1\n      tag_16\n      jump\t// in\n    tag_15:\n      tag_17\n      jump\t// in\n    tag_14:\n      stop\n        /* \"contracts/datasharingcontract.sol\":3880:4017  function getMySharedData() external view onlyRegistered returns (SharedData[] memory) {... */\n    tag_7:\n        /* \"contracts/datasharingcontract.sol\":3945:3964  SharedData[] memory */\n      0x60\n        /* \"contracts/datasharingcontract.sol\":1549:1562  adminContract */\n      immutable(\"0x1d3be50b2bb17407dd170f1d5da128d1def30c6b1598d6a629e79b4775265526\")\n        /* \"contracts/datasharingcontract.sol\":1549:1575  adminContract.isRegistered */\n      0xffffffffffffffffffffffffffffffffffffffff\n      and\n      0xc3c5a547\n        /* \"contracts/datasharingcontract.sol\":1576:1586  msg.sender */\n      caller\n        /* \"contracts/datasharingcontract.sol\":1549:1587  adminContract.isRegistered(msg.sender) */\n      mload(0x40)\n      dup3\n      0xffffffff\n      and\n      0xe0\n      shl\n      dup2\n      mstore\n      0x04\n      add\n      tag_19\n      swap2\n      swap1\n      tag_20\n      jump\t// in\n    tag_19:\n      0x20\n      mload(0x40)\n      dup1\n      dup4\n      sub\n      dup2\n      dup7\n      gas\n      staticcall\n      iszero\n      dup1\n      iszero\n      tag_22\n      jumpi\n      returndatacopy(0x00, 0x00, returndatasize)\n      revert(0x00, returndatasize)\n    tag_22:\n      pop\n      pop\n      pop\n      pop\n      mload(0x40)\n      returndatasize\n      not(0x1f)\n      0x1f\n      dup3\n      add\n      and\n      dup3\n      add\n      dup1\n      0x40\n      mstore\n      pop\n      dup2\n      add\n      swap1\n      tag_23\n      swap2\n      swap1\n      tag_24\n      jump\t// in\n    tag_23:\n        /* \"contracts/datasharingcontract.sol\":1527:1660  require(... */\n      tag_25\n      jumpi\n      mload(0x40)\n      0x08c379a000000000000000000000000000000000000000000000000000000000\n      dup2\n      mstore\n      0x04\n      add\n      tag_26\n      swap1\n      tag_27\n      jump\t// in\n    tag_26:\n      mload(0x40)\n      dup1\n      swap2\n      sub\n      swap1\n      revert\n    tag_25:\n        /* \"contracts/datasharingcontract.sol\":3984:3997  sharedDataFor */\n      0x00\n        /* \"contracts/datasharingcontract.sol\":3984:4009  sharedDataFor[msg.sender] */\n      0x00\n        /* \"contracts/datasharingcontract.sol\":3998:4008  msg.sender */\n      caller\n        /* \"contracts/datasharingcontract.sol\":3984:4009  sharedDataFor[msg.sender] */\n      0xffffffffffffffffffffffffffffffffffffffff\n      and\n      0xffffffffffffffffffffffffffffffffffffffff\n      and\n      dup2\n      mstore\n      0x20\n      add\n      swap1\n      dup2\n      mstore\n      0x20\n      add\n      0x00\n      keccak256\n        /* \"contracts/datasharingcontract.sol\":3977:4009  return sharedDataFor[msg.sender] */\n      dup1\n      sload\n      dup1\n      0x20\n      mul\n      0x20\n      add\n      mload(0x40)\n      swap1\n      dup2\n      add\n      0x40\n      mstore\n      dup1\n      swap3\n      swap2\n      swap1\n      dup2\n      dup2\n      mstore\n      0x20\n      add\n      0x00\n      swap1\n    tag_29:\n      dup3\n      dup3\n      lt\n      iszero\n      tag_30\n      jumpi\n      dup4\n      dup3\n      swap1\n      0x00\n      mstore\n      keccak256(0x00, 0x20)\n      swap1\n      0x04\n      mul\n      add\n      mload(0x40)\n      dup1\n      0x80\n      add\n      0x40\n      mstore\n      swap1\n      dup2\n      0x00\n      dup3\n      add\n      dup1\n      sload\n      tag_32\n      swap1\n      tag_33\n      jump\t// in\n    tag_32:\n      dup1\n      0x1f\n      add\n      0x20\n      dup1\n      swap2\n      div\n      mul\n      0x20\n      add\n      mload(0x40)\n      swap1\n      dup2\n      add\n      0x40\n      mstore\n      dup1\n      swap3\n      swap2\n      swap1\n      dup2\n      dup2\n      mstore\n      0x20\n      add\n      dup3\n      dup1\n      sload\n      tag_34\n      swap1\n      tag_33\n      jump\t// in\n    tag_34:\n      dup1\n      iszero\n      tag_35\n      jumpi\n      dup1\n      0x1f\n      lt\n      tag_36\n      jumpi\n      0x0100\n      dup1\n      dup4\n      sload\n      div\n      mul\n      dup4\n      mstore\n      swap2\n      0x20\n      add\n      swap2\n      jump(tag_35)\n    tag_36:\n      dup3\n      add\n      swap2\n      swap1\n      0x00\n      mstore\n      keccak256(0x00, 0x20)\n      swap1\n    tag_37:\n      dup2\n      sload\n      dup2\n      mstore\n      swap1\n      0x01\n      add\n      swap1\n      0x20\n      add\n      dup1\n      dup4\n      gt\n      tag_37\n      jumpi\n      dup3\n      swap1\n      sub\n      0x1f\n      and\n      dup3\n      add\n      swap2\n    tag_35:\n      pop\n      pop\n      pop\n      pop\n      pop\n      dup2\n      mstore\n      0x20\n      add\n      0x01\n      dup3\n      add\n      dup1\n      sload\n      tag_38\n      swap1\n      tag_33\n      jump\t// in\n    tag_38:\n      dup1\n      0x1f\n      add\n      0x20\n      dup1\n      swap2\n      div\n      mul\n      0x20\n      add\n      mload(0x40)\n      swap1\n      dup2\n      add\n      0x40\n      mstore\n      dup1\n      swap3\n      swap2\n      swap1\n      dup2\n      dup2\n      mstore\n      0x20\n      add\n      dup3\n      dup1\n      sload\n      tag_39\n      swap1\n      tag_33\n      jump\t// in\n    tag_39:\n      dup1\n      iszero\n      tag_40\n      jumpi\n      dup1\n      0x1f\n      lt\n      tag_41\n      jumpi\n      0x0100\n      dup1\n      dup4\n      sload\n      div\n      mul\n      dup4\n      mstore\n      swap2\n      0x20\n      add\n      swap2\n      jump(tag_40)\n    tag_41:\n      dup3\n      add\n      swap2\n      swap1\n      0x00\n      mstore\n      keccak256(0x00, 0x20)\n      swap1\n    tag_42:\n      dup2\n      sload\n      dup2\n      mstore\n      swap1\n      0x01\n      add\n      swap1\n      0x20\n      add\n      dup1\n      dup4\n      gt\n      tag_42\n      jumpi\n      dup3\n      swap1\n      sub\n      0x1f\n      and\n      dup3\n      add\n      swap2\n    tag_40:\n      pop\n      pop\n      pop\n      pop\n      pop\n      dup2\n      mstore\n      0x20\n      add\n      0x02\n      dup3\n      add\n      0x00\n      swap1\n      sload\n      swap1\n      0x0100\n      exp\n      swap1\n      div\n      0xffffffffffffffffffffffffffffffffffffffff\n      and\n      0xffffffffffffffffffffffffffffffffffffffff\n      and\n      0xffffffffffffffffffffffffffffffffffffffff\n      and\n      dup2\n      mstore\n      0x20\n      add\n      0x03\n      dup3\n      add\n      sload\n      dup2\n      mstore\n      pop\n      pop\n      dup2\n      mstore\n      0x20\n      add\n      swap1\n      0x01\n      add\n      swap1\n      jump(tag_29)\n    tag_30:\n      pop\n      pop\n      pop\n      pop\n      swap1\n      pop\n        /* \"contracts/datasharingcontract.sol\":3880:4017  function getMySharedData() external view onlyRegistered returns (SharedData[] memory) {... */\n      swap1\n      jump\t// out\n        /* \"contracts/datasharingcontract.sol\":518:563  IAdminContract public immutable adminContract */\n    tag_11:\n      immutable(\"0x1d3be50b2bb17407dd170f1d5da128d1def30c6b1598d6a629e79b4775265526\")\n      dup2\n      jump\t// out\n        /* \"contracts/datasharingcontract.sol\":2572:3589  function shareData(... */\n    tag_17:\n        /* \"contracts/datasharingcontract.sol\":1549:1562  adminContract */\n      immutable(\"0x1d3be50b2bb17407dd170f1d5da128d1def30c6b1598d6a629e79b4775265526\")\n        /* \"contracts/datasharingcontract.sol\":1549:1575  adminContract.isRegistered */\n      0xffffffffffffffffffffffffffffffffffffffff\n      and\n      0xc3c5a547\n        /* \"contracts/datasharingcontract.sol\":1576:1586  msg.sender */\n      caller\n        /* \"contracts/datasharingcontract.sol\":1549:1587  adminContract.isRegistered(msg.sender) */\n      mload(0x40)\n      dup3\n      0xffffffff\n      and\n      0xe0\n      shl\n      dup2\n      mstore\n      0x04\n      add\n      tag_44\n      swap2\n      swap1\n      tag_20\n      jump\t// in\n    tag_44:\n      0x20\n      mload(0x40)\n      dup1\n      dup4\n      sub\n      dup2\n      dup7\n      gas\n      staticcall\n      iszero\n      dup1\n      iszero\n      tag_46\n      jumpi\n      returndatacopy(0x00, 0x00, returndatasize)\n      revert(0x00, returndatasize)\n    tag_46:\n      pop\n      pop\n      pop\n      pop\n      mload(0x40)\n      returndatasize\n      not(0x1f)\n      0x1f\n      dup3\n      add\n      and\n      dup3\n      add\n      dup1\n      0x40\n      mstore\n      pop\n      dup2\n      add\n      swap1\n      tag_47\n      swap2\n      swap1\n      tag_24\n      jump\t// in\n    tag_47:\n        /* \"contracts/datasharingcontract.sol\":1527:1660  require(... */\n      tag_48\n      jumpi\n      mload(0x40)\n      0x08c379a000000000000000000000000000000000000000000000000000000000\n      dup2\n      mstore\n      0x04\n      add\n      tag_49\n      swap1\n      tag_27\n      jump\t// in\n    tag_49:\n      mload(0x40)\n      dup1\n      swap2\n      sub\n      swap1\n      revert\n    tag_48:\n        /* \"contracts/datasharingcontract.sol\":2759:2760  0 */\n      0x00\n        /* \"contracts/datasharingcontract.sol\":2739:2761  receiver != address(0) */\n      0xffffffffffffffffffffffffffffffffffffffff\n      and\n        /* \"contracts/datasharingcontract.sol\":2739:2747  receiver */\n      dup6\n        /* \"contracts/datasharingcontract.sol\":2739:2761  receiver != address(0) */\n      0xffffffffffffffffffffffffffffffffffffffff\n      and\n      sub\n        /* \"contracts/datasharingcontract.sol\":2731:2832  require(receiver != address(0),                         \"DataSharing: Ungueltige Empfaenger-Adresse\") */\n      tag_51\n      jumpi\n      mload(0x40)\n      0x08c379a000000000000000000000000000000000000000000000000000000000\n      dup2\n      mstore\n      0x04\n      add\n      tag_52\n      swap1\n      tag_53\n      jump\t// in\n    tag_52:\n      mload(0x40)\n      dup1\n      swap2\n      sub\n      swap1\n      revert\n    tag_51:\n        /* \"contracts/datasharingcontract.sol\":2863:2873  msg.sender */\n      caller\n        /* \"contracts/datasharingcontract.sol\":2851:2873  receiver != msg.sender */\n      0xffffffffffffffffffffffffffffffffffffffff\n      and\n        /* \"contracts/datasharingcontract.sol\":2851:2859  receiver */\n      dup6\n        /* \"contracts/datasharingcontract.sol\":2851:2873  receiver != msg.sender */\n      0xffffffffffffffffffffffffffffffffffffffff\n      and\n      sub\n        /* \"contracts/datasharingcontract.sol\":2843:2946  require(receiver != msg.sender,                         \"DataSharing: Sender und Empfaenger identisch\") */\n      tag_54\n      jumpi\n      mload(0x40)\n      0x08c379a000000000000000000000000000000000000000000000000000000000\n      dup2\n      mstore\n      0x04\n      add\n      tag_55\n      swap1\n      tag_56\n      jump\t// in\n    tag_55:\n      mload(0x40)\n      dup1\n      swap2\n      sub\n      swap1\n      revert\n    tag_54:\n        /* \"contracts/datasharingcontract.sol\":2965:2978  adminContract */\n      immutable(\"0x1d3be50b2bb17407dd170f1d5da128d1def30c6b1598d6a629e79b4775265526\")\n        /* \"contracts/datasharingcontract.sol\":2965:2991  adminContract.isRegistered */\n      0xffffffffffffffffffffffffffffffffffffffff\n      and\n      0xc3c5a547\n        /* \"contracts/datasharingcontract.sol\":2992:3000  receiver */\n      dup7\n        /* \"contracts/datasharingcontract.sol\":2965:3001  adminContract.isRegistered(receiver) */\n      mload(0x40)\n      dup3\n      0xffffffff\n      and\n      0xe0\n      shl\n      dup2\n      mstore\n      0x04\n      add\n      tag_57\n      swap2\n      swap1\n      tag_20\n      jump\t// in\n    tag_57:\n      0x20\n      mload(0x40)\n      dup1\n      dup4\n      sub\n      dup2\n      dup7\n      gas\n      staticcall\n      iszero\n      dup1\n      iszero\n      tag_59\n      jumpi\n      returndatacopy(0x00, 0x00, returndatasize)\n      revert(0x00, returndatasize)\n    tag_59:\n      pop\n      pop\n      pop\n      pop\n      mload(0x40)\n      returndatasize\n      not(0x1f)\n      0x1f\n      dup3\n      add\n      and\n      dup3\n      add\n      dup1\n      0x40\n      mstore\n      pop\n      dup2\n      add\n      swap1\n      tag_60\n      swap2\n      swap1\n      tag_24\n      jump\t// in\n    tag_60:\n        /* \"contracts/datasharingcontract.sol\":2957:3057  require(adminContract.isRegistered(receiver),           \"DataSharing: Empfaenger nicht registriert\") */\n      tag_61\n      jumpi\n      mload(0x40)\n      0x08c379a000000000000000000000000000000000000000000000000000000000\n      dup2\n      mstore\n      0x04\n      add\n      tag_62\n      swap1\n      tag_63\n      jump\t// in\n    tag_62:\n      mload(0x40)\n      dup1\n      swap2\n      sub\n      swap1\n      revert\n    tag_61:\n        /* \"contracts/datasharingcontract.sol\":3096:3097  0 */\n      0x00\n        /* \"contracts/datasharingcontract.sol\":3082:3085  cid */\n      dup5\n      dup5\n        /* \"contracts/datasharingcontract.sol\":3076:3093  bytes(cid).length */\n      swap1\n      pop\n        /* \"contracts/datasharingcontract.sol\":3076:3097  bytes(cid).length > 0 */\n      gt\n        /* \"contracts/datasharingcontract.sol\":3068:3164  require(bytes(cid).length > 0,                          \"DataSharing: CID darf nicht leer sein\") */\n      tag_64\n      jumpi\n      mload(0x40)\n      0x08c379a000000000000000000000000000000000000000000000000000000000\n      dup2\n      mstore\n      0x04\n      add\n      tag_65\n      swap1\n      tag_66\n      jump\t// in\n    tag_65:\n      mload(0x40)\n      dup1\n      swap2\n      sub\n      swap1\n      revert\n    tag_64:\n        /* \"contracts/datasharingcontract.sol\":3205:3206  0 */\n      0x00\n        /* \"contracts/datasharingcontract.sol\":3183:3195  encryptedKey */\n      dup3\n      dup3\n        /* \"contracts/datasharingcontract.sol\":3183:3202  encryptedKey.length */\n      swap1\n      pop\n        /* \"contracts/datasharingcontract.sol\":3183:3206  encryptedKey.length > 0 */\n      gt\n        /* \"contracts/datasharingcontract.sol\":3175:3287  require(encryptedKey.length > 0,                        \"DataSharing: Verschl. Schluessel darf nicht leer sein\") */\n      tag_67\n      jumpi\n      mload(0x40)\n      0x08c379a000000000000000000000000000000000000000000000000000000000\n      dup2\n      mstore\n      0x04\n      add\n      tag_68\n      swap1\n      tag_69\n      jump\t// in\n    tag_68:\n      mload(0x40)\n      dup1\n      swap2\n      sub\n      swap1\n      revert\n    tag_67:\n        /* \"contracts/datasharingcontract.sol\":3300:3313  sharedDataFor */\n      0x00\n        /* \"contracts/datasharingcontract.sol\":3300:3323  sharedDataFor[receiver] */\n      0x00\n        /* \"contracts/datasharingcontract.sol\":3314:3322  receiver */\n      dup7\n        /* \"contracts/datasharingcontract.sol\":3300:3323  sharedDataFor[receiver] */\n      0xffffffffffffffffffffffffffffffffffffffff\n      and\n      0xffffffffffffffffffffffffffffffffffffffff\n      and\n      dup2\n      mstore\n      0x20\n      add\n      swap1\n      dup2\n      mstore\n      0x20\n      add\n      0x00\n      keccak256\n        /* \"contracts/datasharingcontract.sol\":3329:3508  SharedData({... */\n      mload(0x40)\n      dup1\n      0x80\n      add\n      0x40\n      mstore\n      dup1\n        /* \"contracts/datasharingcontract.sol\":3369:3372  cid */\n      dup7\n      dup7\n        /* \"contracts/datasharingcontract.sol\":3329:3508  SharedData({... */\n      dup1\n      dup1\n      0x1f\n      add\n      0x20\n      dup1\n      swap2\n      div\n      mul\n      0x20\n      add\n      mload(0x40)\n      swap1\n      dup2\n      add\n      0x40\n      mstore\n      dup1\n      swap4\n      swap3\n      swap2\n      swap1\n      dup2\n      dup2\n      mstore\n      0x20\n      add\n      dup4\n      dup4\n      dup1\n      dup3\n      dup5\n      calldatacopy\n      0x00\n      dup2\n      dup5\n      add\n      mstore\n      not(0x1f)\n      0x1f\n      dup3\n      add\n      and\n      swap1\n      pop\n      dup1\n      dup4\n      add\n      swap3\n      pop\n      pop\n      pop\n      pop\n      pop\n      pop\n      pop\n      dup2\n      mstore\n      0x20\n      add\n        /* \"contracts/datasharingcontract.sol\":3401:3413  encryptedKey */\n      dup5\n      dup5\n        /* \"contracts/datasharingcontract.sol\":3329:3508  SharedData({... */\n      dup1\n      dup1\n      0x1f\n      add\n      0x20\n      dup1\n      swap2\n      div\n      mul\n      0x20\n      add\n      mload(0x40)\n      swap1\n      dup2\n      add\n      0x40\n      mstore\n      dup1\n      swap4\n      swap3\n      swap2\n      swap1\n      dup2\n      dup2\n      mstore\n      0x20\n      add\n      dup4\n      dup4\n      dup1\n      dup3\n      dup5\n      calldatacopy\n      0x00\n      dup2\n      dup5\n      add\n      mstore\n      not(0x1f)\n      0x1f\n      dup3\n      add\n      and\n      swap1\n      pop\n      dup1\n      dup4\n      add\n      swap3\n      pop\n      pop\n      pop\n      pop\n      pop\n      pop\n      pop\n      dup2\n      mstore\n      0x20\n      add\n        /* \"contracts/datasharingcontract.sol\":3442:3452  msg.sender */\n      caller\n        /* \"contracts/datasharingcontract.sol\":3329:3508  SharedData({... */\n      0xffffffffffffffffffffffffffffffffffffffff\n      and\n      dup2\n      mstore\n      0x20\n      add\n        /* \"contracts/datasharingcontract.sol\":3481:3496  block.timestamp */\n      timestamp\n        /* \"contracts/datasharingcontract.sol\":3329:3508  SharedData({... */\n      dup2\n      mstore\n      pop\n        /* \"contracts/datasharingcontract.sol\":3300:3509  sharedDataFor[receiver].push(SharedData({... */\n      swap1\n      dup1\n      0x01\n      dup2\n      sload\n      add\n      dup1\n      dup3\n      sstore\n      dup1\n      swap2\n      pop\n      pop\n      0x01\n      swap1\n      sub\n      swap1\n      0x00\n      mstore\n      keccak256(0x00, 0x20)\n      swap1\n      0x04\n      mul\n      add\n      0x00\n      swap1\n      swap2\n      swap1\n      swap2\n      swap1\n      swap2\n      pop\n      0x00\n      dup3\n      add\n      mload\n      dup2\n      0x00\n      add\n      swap1\n      dup2\n      tag_71\n      swap2\n      swap1\n      tag_72\n      jump\t// in\n    tag_71:\n      pop\n      0x20\n      dup3\n      add\n      mload\n      dup2\n      0x01\n      add\n      swap1\n      dup2\n      tag_73\n      swap2\n      swap1\n      tag_74\n      jump\t// in\n    tag_73:\n      pop\n      0x40\n      dup3\n      add\n      mload\n      dup2\n      0x02\n      add\n      exp(0x0100, 0x00)\n      dup2\n      sload\n      dup2\n      0xffffffffffffffffffffffffffffffffffffffff\n      mul\n      not\n      and\n      swap1\n      dup4\n      0xffffffffffffffffffffffffffffffffffffffff\n      and\n      mul\n      or\n      swap1\n      sstore\n      pop\n      0x60\n      dup3\n      add\n      mload\n      dup2\n      0x03\n      add\n      sstore\n      pop\n      pop\n        /* \"contracts/datasharingcontract.sol\":3550:3558  receiver */\n      dup5\n        /* \"contracts/datasharingcontract.sol\":3527:3581  DataShared(msg.sender, receiver, cid, block.timestamp) */\n      0xffffffffffffffffffffffffffffffffffffffff\n      and\n        /* \"contracts/datasharingcontract.sol\":3538:3548  msg.sender */\n      caller\n        /* \"contracts/datasharingcontract.sol\":3527:3581  DataShared(msg.sender, receiver, cid, block.timestamp) */\n      0xffffffffffffffffffffffffffffffffffffffff\n      and\n      0x9075ebf5f39f05ecd4f5733cd6641a00639543399164e6719fd2b8d4c5f48ff4\n        /* \"contracts/datasharingcontract.sol\":3560:3563  cid */\n      dup7\n      dup7\n        /* \"contracts/datasharingcontract.sol\":3565:3580  block.timestamp */\n      timestamp\n        /* \"contracts/datasharingcontract.sol\":3527:3581  DataShared(msg.sender, receiver, cid, block.timestamp) */\n      mload(0x40)\n      tag_75\n      swap4\n      swap3\n      swap2\n      swap1\n      tag_76\n      jump\t// in\n    tag_75:\n      mload(0x40)\n      dup1\n      swap2\n      sub\n      swap1\n      log3\n        /* \"contracts/datasharingcontract.sol\":2572:3589  function shareData(... */\n      pop\n      pop\n      pop\n      pop\n      pop\n      jump\t// out\n        /* \"#utility.yul\":7:147   */\n    tag_77:\n        /* \"#utility.yul\":100:106   */\n      0x00\n        /* \"#utility.yul\":134:139   */\n      dup2\n        /* \"#utility.yul\":128:140   */\n      mload\n        /* \"#utility.yul\":118:140   */\n      swap1\n      pop\n        /* \"#utility.yul\":7:147   */\n      swap2\n      swap1\n      pop\n      jump\t// out\n        /* \"#utility.yul\":153:363   */\n    tag_78:\n        /* \"#utility.yul\":278:289   */\n      0x00\n        /* \"#utility.yul\":312:318   */\n      dup3\n        /* \"#utility.yul\":307:310   */\n      dup3\n        /* \"#utility.yul\":300:319   */\n      mstore\n        /* \"#utility.yul\":352:356   */\n      0x20\n        /* \"#utility.yul\":347:350   */\n      dup3\n        /* \"#utility.yul\":343:357   */\n      add\n        /* \"#utility.yul\":328:357   */\n      swap1\n      pop\n        /* \"#utility.yul\":153:363   */\n      swap3\n      swap2\n      pop\n      pop\n      jump\t// out\n        /* \"#utility.yul\":369:527   */\n    tag_79:\n        /* \"#utility.yul\":462:466   */\n      0x00\n        /* \"#utility.yul\":485:488   */\n      dup2\n        /* \"#utility.yul\":477:488   */\n      swap1\n      pop\n        /* \"#utility.yul\":515:519   */\n      0x20\n        /* \"#utility.yul\":510:513   */\n      dup3\n        /* \"#utility.yul\":506:520   */\n      add\n        /* \"#utility.yul\":498:520   */\n      swap1\n      pop\n        /* \"#utility.yul\":369:527   */\n      swap2\n      swap1\n      pop\n      jump\t// out\n        /* \"#utility.yul\":533:632   */\n    tag_80:\n        /* \"#utility.yul\":585:591   */\n      0x00\n        /* \"#utility.yul\":619:624   */\n      dup2\n        /* \"#utility.yul\":613:625   */\n      mload\n        /* \"#utility.yul\":603:625   */\n      swap1\n      pop\n        /* \"#utility.yul\":533:632   */\n      swap2\n      swap1\n      pop\n      jump\t// out\n        /* \"#utility.yul\":638:797   */\n    tag_81:\n        /* \"#utility.yul\":712:723   */\n      0x00\n        /* \"#utility.yul\":746:752   */\n      dup3\n        /* \"#utility.yul\":741:744   */\n      dup3\n        /* \"#utility.yul\":734:753   */\n      mstore\n        /* \"#utility.yul\":786:790   */\n      0x20\n        /* \"#utility.yul\":781:784   */\n      dup3\n        /* \"#utility.yul\":777:791   */\n      add\n        /* \"#utility.yul\":762:791   */\n      swap1\n      pop\n        /* \"#utility.yul\":638:797   */\n      swap3\n      swap2\n      pop\n      pop\n      jump\t// out\n        /* \"#utility.yul\":803:942   */\n    tag_82:\n        /* \"#utility.yul\":892:898   */\n      dup3\n        /* \"#utility.yul\":887:890   */\n      dup2\n        /* \"#utility.yul\":882:885   */\n      dup4\n        /* \"#utility.yul\":876:899   */\n      mcopy\n        /* \"#utility.yul\":933:934   */\n      0x00\n        /* \"#utility.yul\":924:930   */\n      dup4\n        /* \"#utility.yul\":919:922   */\n      dup4\n        /* \"#utility.yul\":915:931   */\n      add\n        /* \"#utility.yul\":908:935   */\n      mstore\n        /* \"#utility.yul\":803:942   */\n      pop\n      pop\n      pop\n      jump\t// out\n        /* \"#utility.yul\":948:1050   */\n    tag_83:\n        /* \"#utility.yul\":989:995   */\n      0x00\n        /* \"#utility.yul\":1040:1042   */\n      0x1f\n        /* \"#utility.yul\":1036:1043   */\n      not\n        /* \"#utility.yul\":1031:1033   */\n      0x1f\n        /* \"#utility.yul\":1024:1029   */\n      dup4\n        /* \"#utility.yul\":1020:1034   */\n      add\n        /* \"#utility.yul\":1016:1044   */\n      and\n        /* \"#utility.yul\":1006:1044   */\n      swap1\n      pop\n        /* \"#utility.yul\":948:1050   */\n      swap2\n      swap1\n      pop\n      jump\t// out\n        /* \"#utility.yul\":1056:1413   */\n    tag_84:\n        /* \"#utility.yul\":1134:1137   */\n      0x00\n        /* \"#utility.yul\":1162:1201   */\n      tag_159\n        /* \"#utility.yul\":1195:1200   */\n      dup3\n        /* \"#utility.yul\":1162:1201   */\n      tag_80\n      jump\t// in\n    tag_159:\n        /* \"#utility.yul\":1217:1278   */\n      tag_160\n        /* \"#utility.yul\":1271:1277   */\n      dup2\n        /* \"#utility.yul\":1266:1269   */\n      dup6\n        /* \"#utility.yul\":1217:1278   */\n      tag_81\n      jump\t// in\n    tag_160:\n        /* \"#utility.yul\":1210:1278   */\n      swap4\n      pop\n        /* \"#utility.yul\":1287:1352   */\n      tag_161\n        /* \"#utility.yul\":1345:1351   */\n      dup2\n        /* \"#utility.yul\":1340:1343   */\n      dup6\n        /* \"#utility.yul\":1333:1337   */\n      0x20\n        /* \"#utility.yul\":1326:1331   */\n      dup7\n        /* \"#utility.yul\":1322:1338   */\n      add\n        /* \"#utility.yul\":1287:1352   */\n      tag_82\n      jump\t// in\n    tag_161:\n        /* \"#utility.yul\":1377:1406   */\n      tag_162\n        /* \"#utility.yul\":1399:1405   */\n      dup2\n        /* \"#utility.yul\":1377:1406   */\n      tag_83\n      jump\t// in\n    tag_162:\n        /* \"#utility.yul\":1372:1375   */\n      dup5\n        /* \"#utility.yul\":1368:1407   */\n      add\n        /* \"#utility.yul\":1361:1407   */\n      swap2\n      pop\n        /* \"#utility.yul\":1138:1413   */\n      pop\n        /* \"#utility.yul\":1056:1413   */\n      swap3\n      swap2\n      pop\n      pop\n      jump\t// out\n        /* \"#utility.yul\":1419:1517   */\n    tag_85:\n        /* \"#utility.yul\":1470:1476   */\n      0x00\n        /* \"#utility.yul\":1504:1509   */\n      dup2\n        /* \"#utility.yul\":1498:1510   */\n      mload\n        /* \"#utility.yul\":1488:1510   */\n      swap1\n      pop\n        /* \"#utility.yul\":1419:1517   */\n      swap2\n      swap1\n      pop\n      jump\t// out\n        /* \"#utility.yul\":1523:1681   */\n    tag_86:\n        /* \"#utility.yul\":1596:1607   */\n      0x00\n        /* \"#utility.yul\":1630:1636   */\n      dup3\n        /* \"#utility.yul\":1625:1628   */\n      dup3\n        /* \"#utility.yul\":1618:1637   */\n      mstore\n        /* \"#utility.yul\":1670:1674   */\n      0x20\n        /* \"#utility.yul\":1665:1668   */\n      dup3\n        /* \"#utility.yul\":1661:1675   */\n      add\n        /* \"#utility.yul\":1646:1675   */\n      swap1\n      pop\n        /* \"#utility.yul\":1523:1681   */\n      swap3\n      swap2\n      pop\n      pop\n      jump\t// out\n        /* \"#utility.yul\":1687:2040   */\n    tag_87:\n        /* \"#utility.yul\":1763:1766   */\n      0x00\n        /* \"#utility.yul\":1791:1829   */\n      tag_166\n        /* \"#utility.yul\":1823:1828   */\n      dup3\n        /* \"#utility.yul\":1791:1829   */\n      tag_85\n      jump\t// in\n    tag_166:\n        /* \"#utility.yul\":1845:1905   */\n      tag_167\n        /* \"#utility.yul\":1898:1904   */\n      dup2\n        /* \"#utility.yul\":1893:1896   */\n      dup6\n        /* \"#utility.yul\":1845:1905   */\n      tag_86\n      jump\t// in\n    tag_167:\n        /* \"#utility.yul\":1838:1905   */\n      swap4\n      pop\n        /* \"#utility.yul\":1914:1979   */\n      tag_168\n        /* \"#utility.yul\":1972:1978   */\n      dup2\n        /* \"#utility.yul\":1967:1970   */\n      dup6\n        /* \"#utility.yul\":1960:1964   */\n      0x20\n        /* \"#utility.yul\":1953:1958   */\n      dup7\n        /* \"#utility.yul\":1949:1965   */\n      add\n        /* \"#utility.yul\":1914:1979   */\n      tag_82\n      jump\t// in\n    tag_168:\n        /* \"#utility.yul\":2004:2033   */\n      tag_169\n        /* \"#utility.yul\":2026:2032   */\n      dup2\n        /* \"#utility.yul\":2004:2033   */\n      tag_83\n      jump\t// in\n    tag_169:\n        /* \"#utility.yul\":1999:2002   */\n      dup5\n        /* \"#utility.yul\":1995:2034   */\n      add\n        /* \"#utility.yul\":1988:2034   */\n      swap2\n      pop\n        /* \"#utility.yul\":1767:2040   */\n      pop\n        /* \"#utility.yul\":1687:2040   */\n      swap3\n      swap2\n      pop\n      pop\n      jump\t// out\n        /* \"#utility.yul\":2046:2172   */\n    tag_88:\n        /* \"#utility.yul\":2083:2090   */\n      0x00\n        /* \"#utility.yul\":2123:2165   */\n      0xffffffffffffffffffffffffffffffffffffffff\n        /* \"#utility.yul\":2116:2121   */\n      dup3\n        /* \"#utility.yul\":2112:2166   */\n      and\n        /* \"#utility.yul\":2101:2166   */\n      swap1\n      pop\n        /* \"#utility.yul\":2046:2172   */\n      swap2\n      swap1\n      pop\n      jump\t// out\n        /* \"#utility.yul\":2178:2274   */\n    tag_89:\n        /* \"#utility.yul\":2215:2222   */\n      0x00\n        /* \"#utility.yul\":2244:2268   */\n      tag_172\n        /* \"#utility.yul\":2262:2267   */\n      dup3\n        /* \"#utility.yul\":2244:2268   */\n      tag_88\n      jump\t// in\n    tag_172:\n        /* \"#utility.yul\":2233:2268   */\n      swap1\n      pop\n        /* \"#utility.yul\":2178:2274   */\n      swap2\n      swap1\n      pop\n      jump\t// out\n        /* \"#utility.yul\":2280:2388   */\n    tag_90:\n        /* \"#utility.yul\":2357:2381   */\n      tag_174\n        /* \"#utility.yul\":2375:2380   */\n      dup2\n        /* \"#utility.yul\":2357:2381   */\n      tag_89\n      jump\t// in\n    tag_174:\n        /* \"#utility.yul\":2352:2355   */\n      dup3\n        /* \"#utility.yul\":2345:2382   */\n      mstore\n        /* \"#utility.yul\":2280:2388   */\n      pop\n      pop\n      jump\t// out\n        /* \"#utility.yul\":2394:2471   */\n    tag_91:\n        /* \"#utility.yul\":2431:2438   */\n      0x00\n        /* \"#utility.yul\":2460:2465   */\n      dup2\n        /* \"#utility.yul\":2449:2465   */\n      swap1\n      pop\n        /* \"#utility.yul\":2394:2471   */\n      swap2\n      swap1\n      pop\n      jump\t// out\n        /* \"#utility.yul\":2477:2585   */\n    tag_92:\n        /* \"#utility.yul\":2554:2578   */\n      tag_177\n        /* \"#utility.yul\":2572:2577   */\n      dup2\n        /* \"#utility.yul\":2554:2578   */\n      tag_91\n      jump\t// in\n    tag_177:\n        /* \"#utility.yul\":2549:2552   */\n      dup3\n        /* \"#utility.yul\":2542:2579   */\n      mstore\n        /* \"#utility.yul\":2477:2585   */\n      pop\n      pop\n      jump\t// out\n        /* \"#utility.yul\":2677:3706   */\n    tag_93:\n        /* \"#utility.yul\":2788:2791   */\n      0x00\n        /* \"#utility.yul\":2824:2828   */\n      0x80\n        /* \"#utility.yul\":2819:2822   */\n      dup4\n        /* \"#utility.yul\":2815:2829   */\n      add\n        /* \"#utility.yul\":2910:2914   */\n      0x00\n        /* \"#utility.yul\":2903:2908   */\n      dup4\n        /* \"#utility.yul\":2899:2915   */\n      add\n        /* \"#utility.yul\":2893:2916   */\n      mload\n        /* \"#utility.yul\":2963:2966   */\n      dup5\n        /* \"#utility.yul\":2957:2961   */\n      dup3\n        /* \"#utility.yul\":2953:2967   */\n      sub\n        /* \"#utility.yul\":2946:2950   */\n      0x00\n        /* \"#utility.yul\":2941:2944   */\n      dup7\n        /* \"#utility.yul\":2937:2951   */\n      add\n        /* \"#utility.yul\":2930:2968   */\n      mstore\n        /* \"#utility.yul\":2989:3062   */\n      tag_179\n        /* \"#utility.yul\":3057:3061   */\n      dup3\n        /* \"#utility.yul\":3043:3055   */\n      dup3\n        /* \"#utility.yul\":2989:3062   */\n      tag_84\n      jump\t// in\n    tag_179:\n        /* \"#utility.yul\":2981:3062   */\n      swap2\n      pop\n        /* \"#utility.yul\":2839:3073   */\n      pop\n        /* \"#utility.yul\":3163:3167   */\n      0x20\n        /* \"#utility.yul\":3156:3161   */\n      dup4\n        /* \"#utility.yul\":3152:3168   */\n      add\n        /* \"#utility.yul\":3146:3169   */\n      mload\n        /* \"#utility.yul\":3216:3219   */\n      dup5\n        /* \"#utility.yul\":3210:3214   */\n      dup3\n        /* \"#utility.yul\":3206:3220   */\n      sub\n        /* \"#utility.yul\":3199:3203   */\n      0x20\n        /* \"#utility.yul\":3194:3197   */\n      dup7\n        /* \"#utility.yul\":3190:3204   */\n      add\n        /* \"#utility.yul\":3183:3221   */\n      mstore\n        /* \"#utility.yul\":3242:3313   */\n      tag_180\n        /* \"#utility.yul\":3308:3312   */\n      dup3\n        /* \"#utility.yul\":3294:3306   */\n      dup3\n        /* \"#utility.yul\":3242:3313   */\n      tag_87\n      jump\t// in\n    tag_180:\n        /* \"#utility.yul\":3234:3313   */\n      swap2\n      pop\n        /* \"#utility.yul\":3083:3324   */\n      pop\n        /* \"#utility.yul\":3408:3412   */\n      0x40\n        /* \"#utility.yul\":3401:3406   */\n      dup4\n        /* \"#utility.yul\":3397:3413   */\n      add\n        /* \"#utility.yul\":3391:3414   */\n      mload\n        /* \"#utility.yul\":3427:3490   */\n      tag_181\n        /* \"#utility.yul\":3484:3488   */\n      0x40\n        /* \"#utility.yul\":3479:3482   */\n      dup7\n        /* \"#utility.yul\":3475:3489   */\n      add\n        /* \"#utility.yul\":3461:3473   */\n      dup3\n        /* \"#utility.yul\":3427:3490   */\n      tag_90\n      jump\t// in\n    tag_181:\n        /* \"#utility.yul\":3334:3500   */\n      pop\n        /* \"#utility.yul\":3587:3591   */\n      0x60\n        /* \"#utility.yul\":3580:3585   */\n      dup4\n        /* \"#utility.yul\":3576:3592   */\n      add\n        /* \"#utility.yul\":3570:3593   */\n      mload\n        /* \"#utility.yul\":3606:3669   */\n      tag_182\n        /* \"#utility.yul\":3663:3667   */\n      0x60\n        /* \"#utility.yul\":3658:3661   */\n      dup7\n        /* \"#utility.yul\":3654:3668   */\n      add\n        /* \"#utility.yul\":3640:3652   */\n      dup3\n        /* \"#utility.yul\":3606:3669   */\n      tag_92\n      jump\t// in\n    tag_182:\n        /* \"#utility.yul\":3510:3679   */\n      pop\n        /* \"#utility.yul\":3696:3700   */\n      dup1\n        /* \"#utility.yul\":3689:3700   */\n      swap2\n      pop\n        /* \"#utility.yul\":2793:3706   */\n      pop\n        /* \"#utility.yul\":2677:3706   */\n      swap3\n      swap2\n      pop\n      pop\n      jump\t// out\n        /* \"#utility.yul\":3712:3972   */\n    tag_94:\n        /* \"#utility.yul\":3833:3843   */\n      0x00\n        /* \"#utility.yul\":3868:3966   */\n      tag_184\n        /* \"#utility.yul\":3962:3965   */\n      dup4\n        /* \"#utility.yul\":3954:3960   */\n      dup4\n        /* \"#utility.yul\":3868:3966   */\n      tag_93\n      jump\t// in\n    tag_184:\n        /* \"#utility.yul\":3854:3966   */\n      swap1\n      pop\n        /* \"#utility.yul\":3712:3972   */\n      swap3\n      swap2\n      pop\n      pop\n      jump\t// out\n        /* \"#utility.yul\":3978:4117   */\n    tag_95:\n        /* \"#utility.yul\":4074:4078   */\n      0x00\n        /* \"#utility.yul\":4106:4110   */\n      0x20\n        /* \"#utility.yul\":4101:4104   */\n      dup3\n        /* \"#utility.yul\":4097:4111   */\n      add\n        /* \"#utility.yul\":4089:4111   */\n      swap1\n      pop\n        /* \"#utility.yul\":3978:4117   */\n      swap2\n      swap1\n      pop\n      jump\t// out\n        /* \"#utility.yul\":4213:5332   */\n    tag_96:\n        /* \"#utility.yul\":4384:4387   */\n      0x00\n        /* \"#utility.yul\":4413:4493   */\n      tag_187\n        /* \"#utility.yul\":4487:4492   */\n      dup3\n        /* \"#utility.yul\":4413:4493   */\n      tag_77\n      jump\t// in\n    tag_187:\n        /* \"#utility.yul\":4509:4621   */\n      tag_188\n        /* \"#utility.yul\":4614:4620   */\n      dup2\n        /* \"#utility.yul\":4609:4612   */\n      dup6\n        /* \"#utility.yul\":4509:4621   */\n      tag_78\n      jump\t// in\n    tag_188:\n        /* \"#utility.yul\":4502:4621   */\n      swap4\n      pop\n        /* \"#utility.yul\":4647:4650   */\n      dup4\n        /* \"#utility.yul\":4692:4696   */\n      0x20\n        /* \"#utility.yul\":4684:4690   */\n      dup3\n        /* \"#utility.yul\":4680:4697   */\n      mul\n        /* \"#utility.yul\":4675:4678   */\n      dup6\n        /* \"#utility.yul\":4671:4698   */\n      add\n        /* \"#utility.yul\":4722:4804   */\n      tag_189\n        /* \"#utility.yul\":4798:4803   */\n      dup6\n        /* \"#utility.yul\":4722:4804   */\n      tag_79\n      jump\t// in\n    tag_189:\n        /* \"#utility.yul\":4827:4834   */\n      dup1\n        /* \"#utility.yul\":4858:4859   */\n      0x00\n        /* \"#utility.yul\":4843:5287   */\n    tag_190:\n        /* \"#utility.yul\":4868:4874   */\n      dup6\n        /* \"#utility.yul\":4865:4866   */\n      dup2\n        /* \"#utility.yul\":4862:4875   */\n      lt\n        /* \"#utility.yul\":4843:5287   */\n      iszero\n      tag_192\n      jumpi\n        /* \"#utility.yul\":4939:4948   */\n      dup5\n        /* \"#utility.yul\":4933:4937   */\n      dup5\n        /* \"#utility.yul\":4929:4949   */\n      sub\n        /* \"#utility.yul\":4924:4927   */\n      dup10\n        /* \"#utility.yul\":4917:4950   */\n      mstore\n        /* \"#utility.yul\":4990:4996   */\n      dup2\n        /* \"#utility.yul\":4984:4997   */\n      mload\n        /* \"#utility.yul\":5018:5134   */\n      tag_193\n        /* \"#utility.yul\":5129:5133   */\n      dup6\n        /* \"#utility.yul\":5114:5127   */\n      dup3\n        /* \"#utility.yul\":5018:5134   */\n      tag_94\n      jump\t// in\n    tag_193:\n        /* \"#utility.yul\":5010:5134   */\n      swap5\n      pop\n        /* \"#utility.yul\":5157:5243   */\n      tag_194\n        /* \"#utility.yul\":5236:5242   */\n      dup4\n        /* \"#utility.yul\":5157:5243   */\n      tag_95\n      jump\t// in\n    tag_194:\n        /* \"#utility.yul\":5147:5243   */\n      swap3\n      pop\n        /* \"#utility.yul\":5272:5276   */\n      0x20\n        /* \"#utility.yul\":5267:5270   */\n      dup11\n        /* \"#utility.yul\":5263:5277   */\n      add\n        /* \"#utility.yul\":5256:5277   */\n      swap10\n      pop\n        /* \"#utility.yul\":4903:5287   */\n      pop\n        /* \"#utility.yul\":4890:4891   */\n      0x01\n        /* \"#utility.yul\":4887:4888   */\n      dup2\n        /* \"#utility.yul\":4883:4892   */\n      add\n        /* \"#utility.yul\":4878:4892   */\n      swap1\n      pop\n        /* \"#utility.yul\":4843:5287   */\n      jump(tag_190)\n    tag_192:\n        /* \"#utility.yul\":4847:4861   */\n      pop\n        /* \"#utility.yul\":5303:5307   */\n      dup3\n        /* \"#utility.yul\":5296:5307   */\n      swap8\n      pop\n        /* \"#utility.yul\":5323:5326   */\n      dup8\n        /* \"#utility.yul\":5316:5326   */\n      swap6\n      pop\n        /* \"#utility.yul\":4389:5332   */\n      pop\n      pop\n      pop\n      pop\n      pop\n        /* \"#utility.yul\":4213:5332   */\n      swap3\n      swap2\n      pop\n      pop\n      jump\t// out\n        /* \"#utility.yul\":5338:5815   */\n    tag_9:\n        /* \"#utility.yul\":5533:5537   */\n      0x00\n        /* \"#utility.yul\":5571:5573   */\n      0x20\n        /* \"#utility.yul\":5560:5569   */\n      dup3\n        /* \"#utility.yul\":5556:5574   */\n      add\n        /* \"#utility.yul\":5548:5574   */\n      swap1\n      pop\n        /* \"#utility.yul\":5620:5629   */\n      dup2\n        /* \"#utility.yul\":5614:5618   */\n      dup2\n        /* \"#utility.yul\":5610:5630   */\n      sub\n        /* \"#utility.yul\":5606:5607   */\n      0x00\n        /* \"#utility.yul\":5595:5604   */\n      dup4\n        /* \"#utility.yul\":5591:5608   */\n      add\n        /* \"#utility.yul\":5584:5631   */\n      mstore\n        /* \"#utility.yul\":5648:5808   */\n      tag_196\n        /* \"#utility.yul\":5803:5807   */\n      dup2\n        /* \"#utility.yul\":5794:5800   */\n      dup5\n        /* \"#utility.yul\":5648:5808   */\n      tag_96\n      jump\t// in\n    tag_196:\n        /* \"#utility.yul\":5640:5808   */\n      swap1\n      pop\n        /* \"#utility.yul\":5338:5815   */\n      swap3\n      swap2\n      pop\n      pop\n      jump\t// out\n        /* \"#utility.yul\":5821:5881   */\n    tag_97:\n        /* \"#utility.yul\":5849:5852   */\n      0x00\n        /* \"#utility.yul\":5870:5875   */\n      dup2\n        /* \"#utility.yul\":5863:5875   */\n      swap1\n      pop\n        /* \"#utility.yul\":5821:5881   */\n      swap2\n      swap1\n      pop\n      jump\t// out\n        /* \"#utility.yul\":5887:6029   */\n    tag_98:\n        /* \"#utility.yul\":5937:5946   */\n      0x00\n        /* \"#utility.yul\":5970:6023   */\n      tag_199\n        /* \"#utility.yul\":5988:6022   */\n      tag_200\n        /* \"#utility.yul\":5997:6021   */\n      tag_201\n        /* \"#utility.yul\":6015:6020   */\n      dup5\n        /* \"#utility.yul\":5997:6021   */\n      tag_88\n      jump\t// in\n    tag_201:\n        /* \"#utility.yul\":5988:6022   */\n      tag_97\n      jump\t// in\n    tag_200:\n        /* \"#utility.yul\":5970:6023   */\n      tag_88\n      jump\t// in\n    tag_199:\n        /* \"#utility.yul\":5957:6023   */\n      swap1\n      pop\n        /* \"#utility.yul\":5887:6029   */\n      swap2\n      swap1\n      pop\n      jump\t// out\n        /* \"#utility.yul\":6035:6161   */\n    tag_99:\n        /* \"#utility.yul\":6085:6094   */\n      0x00\n        /* \"#utility.yul\":6118:6155   */\n      tag_203\n        /* \"#utility.yul\":6149:6154   */\n      dup3\n        /* \"#utility.yul\":6118:6155   */\n      tag_98\n      jump\t// in\n    tag_203:\n        /* \"#utility.yul\":6105:6155   */\n      swap1\n      pop\n        /* \"#utility.yul\":6035:6161   */\n      swap2\n      swap1\n      pop\n      jump\t// out\n        /* \"#utility.yul\":6167:6313   */\n    tag_100:\n        /* \"#utility.yul\":6237:6246   */\n      0x00\n        /* \"#utility.yul\":6270:6307   */\n      tag_205\n        /* \"#utility.yul\":6301:6306   */\n      dup3\n        /* \"#utility.yul\":6270:6307   */\n      tag_99\n      jump\t// in\n    tag_205:\n        /* \"#utility.yul\":6257:6307   */\n      swap1\n      pop\n        /* \"#utility.yul\":6167:6313   */\n      swap2\n      swap1\n      pop\n      jump\t// out\n        /* \"#utility.yul\":6319:6490   */\n    tag_101:\n        /* \"#utility.yul\":6426:6483   */\n      tag_207\n        /* \"#utility.yul\":6477:6482   */\n      dup2\n        /* \"#utility.yul\":6426:6483   */\n      tag_100\n      jump\t// in\n    tag_207:\n        /* \"#utility.yul\":6421:6424   */\n      dup3\n        /* \"#utility.yul\":6414:6484   */\n      mstore\n        /* \"#utility.yul\":6319:6490   */\n      pop\n      pop\n      jump\t// out\n        /* \"#utility.yul\":6496:6758   */\n    tag_13:\n        /* \"#utility.yul\":6609:6613   */\n      0x00\n        /* \"#utility.yul\":6647:6649   */\n      0x20\n        /* \"#utility.yul\":6636:6645   */\n      dup3\n        /* \"#utility.yul\":6632:6650   */\n      add\n        /* \"#utility.yul\":6624:6650   */\n      swap1\n      pop\n        /* \"#utility.yul\":6660:6751   */\n      tag_209\n        /* \"#utility.yul\":6748:6749   */\n      0x00\n        /* \"#utility.yul\":6737:6746   */\n      dup4\n        /* \"#utility.yul\":6733:6750   */\n      add\n        /* \"#utility.yul\":6724:6730   */\n      dup5\n        /* \"#utility.yul\":6660:6751   */\n      tag_101\n      jump\t// in\n    tag_209:\n        /* \"#utility.yul\":6496:6758   */\n      swap3\n      swap2\n      pop\n      pop\n      jump\t// out\n        /* \"#utility.yul\":6845:6962   */\n    tag_103:\n        /* \"#utility.yul\":6954:6955   */\n      0x00\n        /* \"#utility.yul\":6951:6952   */\n      0x00\n        /* \"#utility.yul\":6944:6956   */\n      revert\n        /* \"#utility.yul\":6968:7085   */\n    tag_104:\n        /* \"#utility.yul\":7077:7078   */\n      0x00\n        /* \"#utility.yul\":7074:7075   */\n      0x00\n        /* \"#utility.yul\":7067:7079   */\n      revert\n        /* \"#utility.yul\":7091:7213   */\n    tag_105:\n        /* \"#utility.yul\":7164:7188   */\n      tag_214\n        /* \"#utility.yul\":7182:7187   */\n      dup2\n        /* \"#utility.yul\":7164:7188   */\n      tag_89\n      jump\t// in\n    tag_214:\n        /* \"#utility.yul\":7157:7162   */\n      dup2\n        /* \"#utility.yul\":7154:7189   */\n      eq\n        /* \"#utility.yul\":7144:7207   */\n      tag_215\n      jumpi\n        /* \"#utility.yul\":7203:7204   */\n      0x00\n        /* \"#utility.yul\":7200:7201   */\n      0x00\n        /* \"#utility.yul\":7193:7205   */\n      revert\n        /* \"#utility.yul\":7144:7207   */\n    tag_215:\n        /* \"#utility.yul\":7091:7213   */\n      pop\n      jump\t// out\n        /* \"#utility.yul\":7219:7358   */\n    tag_106:\n        /* \"#utility.yul\":7265:7270   */\n      0x00\n        /* \"#utility.yul\":7303:7309   */\n      dup2\n        /* \"#utility.yul\":7290:7310   */\n      calldataload\n        /* \"#utility.yul\":7281:7310   */\n      swap1\n      pop\n        /* \"#utility.yul\":7319:7352   */\n      tag_217\n        /* \"#utility.yul\":7346:7351   */\n      dup2\n        /* \"#utility.yul\":7319:7352   */\n      tag_105\n      jump\t// in\n    tag_217:\n        /* \"#utility.yul\":7219:7358   */\n      swap3\n      swap2\n      pop\n      pop\n      jump\t// out\n        /* \"#utility.yul\":7364:7481   */\n    tag_107:\n        /* \"#utility.yul\":7473:7474   */\n      0x00\n        /* \"#utility.yul\":7470:7471   */\n      0x00\n        /* \"#utility.yul\":7463:7475   */\n      revert\n        /* \"#utility.yul\":7487:7604   */\n    tag_108:\n        /* \"#utility.yul\":7596:7597   */\n      0x00\n        /* \"#utility.yul\":7593:7594   */\n      0x00\n        /* \"#utility.yul\":7586:7598   */\n      revert\n        /* \"#utility.yul\":7610:7727   */\n    tag_109:\n        /* \"#utility.yul\":7719:7720   */\n      0x00\n        /* \"#utility.yul\":7716:7717   */\n      0x00\n        /* \"#utility.yul\":7709:7721   */\n      revert\n        /* \"#utility.yul\":7747:8300   */\n    tag_110:\n        /* \"#utility.yul\":7805:7813   */\n      0x00\n        /* \"#utility.yul\":7815:7821   */\n      0x00\n        /* \"#utility.yul\":7865:7868   */\n      dup4\n        /* \"#utility.yul\":7858:7862   */\n      0x1f\n        /* \"#utility.yul\":7850:7856   */\n      dup5\n        /* \"#utility.yul\":7846:7863   */\n      add\n        /* \"#utility.yul\":7842:7869   */\n      slt\n        /* \"#utility.yul\":7832:7954   */\n      tag_222\n      jumpi\n        /* \"#utility.yul\":7873:7952   */\n      tag_223\n      tag_107\n      jump\t// in\n    tag_223:\n        /* \"#utility.yul\":7832:7954   */\n    tag_222:\n        /* \"#utility.yul\":7986:7992   */\n      dup3\n        /* \"#utility.yul\":7973:7993   */\n      calldataload\n        /* \"#utility.yul\":7963:7993   */\n      swap1\n      pop\n        /* \"#utility.yul\":8016:8034   */\n      0xffffffffffffffff\n        /* \"#utility.yul\":8008:8014   */\n      dup2\n        /* \"#utility.yul\":8005:8035   */\n      gt\n        /* \"#utility.yul\":8002:8119   */\n      iszero\n      tag_224\n      jumpi\n        /* \"#utility.yul\":8038:8117   */\n      tag_225\n      tag_108\n      jump\t// in\n    tag_225:\n        /* \"#utility.yul\":8002:8119   */\n    tag_224:\n        /* \"#utility.yul\":8152:8156   */\n      0x20\n        /* \"#utility.yul\":8144:8150   */\n      dup4\n        /* \"#utility.yul\":8140:8157   */\n      add\n        /* \"#utility.yul\":8128:8157   */\n      swap2\n      pop\n        /* \"#utility.yul\":8206:8209   */\n      dup4\n        /* \"#utility.yul\":8198:8202   */\n      0x01\n        /* \"#utility.yul\":8190:8196   */\n      dup3\n        /* \"#utility.yul\":8186:8203   */\n      mul\n        /* \"#utility.yul\":8176:8184   */\n      dup4\n        /* \"#utility.yul\":8172:8204   */\n      add\n        /* \"#utility.yul\":8169:8210   */\n      gt\n        /* \"#utility.yul\":8166:8294   */\n      iszero\n      tag_226\n      jumpi\n        /* \"#utility.yul\":8213:8292   */\n      tag_227\n      tag_109\n      jump\t// in\n    tag_227:\n        /* \"#utility.yul\":8166:8294   */\n    tag_226:\n        /* \"#utility.yul\":7747:8300   */\n      swap3\n      pop\n      swap3\n      swap1\n      pop\n      jump\t// out\n        /* \"#utility.yul\":8319:8871   */\n    tag_111:\n        /* \"#utility.yul\":8376:8384   */\n      0x00\n        /* \"#utility.yul\":8386:8392   */\n      0x00\n        /* \"#utility.yul\":8436:8439   */\n      dup4\n        /* \"#utility.yul\":8429:8433   */\n      0x1f\n        /* \"#utility.yul\":8421:8427   */\n      dup5\n        /* \"#utility.yul\":8417:8434   */\n      add\n        /* \"#utility.yul\":8413:8440   */\n      slt\n        /* \"#utility.yul\":8403:8525   */\n      tag_229\n      jumpi\n        /* \"#utility.yul\":8444:8523   */\n      tag_230\n      tag_107\n      jump\t// in\n    tag_230:\n        /* \"#utility.yul\":8403:8525   */\n    tag_229:\n        /* \"#utility.yul\":8557:8563   */\n      dup3\n        /* \"#utility.yul\":8544:8564   */\n      calldataload\n        /* \"#utility.yul\":8534:8564   */\n      swap1\n      pop\n        /* \"#utility.yul\":8587:8605   */\n      0xffffffffffffffff\n        /* \"#utility.yul\":8579:8585   */\n      dup2\n        /* \"#utility.yul\":8576:8606   */\n      gt\n        /* \"#utility.yul\":8573:8690   */\n      iszero\n      tag_231\n      jumpi\n        /* \"#utility.yul\":8609:8688   */\n      tag_232\n      tag_108\n      jump\t// in\n    tag_232:\n        /* \"#utility.yul\":8573:8690   */\n    tag_231:\n        /* \"#utility.yul\":8723:8727   */\n      0x20\n        /* \"#utility.yul\":8715:8721   */\n      dup4\n        /* \"#utility.yul\":8711:8728   */\n      add\n        /* \"#utility.yul\":8699:8728   */\n      swap2\n      pop\n        /* \"#utility.yul\":8777:8780   */\n      dup4\n        /* \"#utility.yul\":8769:8773   */\n      0x01\n        /* \"#utility.yul\":8761:8767   */\n      dup3\n        /* \"#utility.yul\":8757:8774   */\n      mul\n        /* \"#utility.yul\":8747:8755   */\n      dup4\n        /* \"#utility.yul\":8743:8775   */\n      add\n        /* \"#utility.yul\":8740:8781   */\n      gt\n        /* \"#utility.yul\":8737:8865   */\n      iszero\n      tag_233\n      jumpi\n        /* \"#utility.yul\":8784:8863   */\n      tag_234\n      tag_109\n      jump\t// in\n    tag_234:\n        /* \"#utility.yul\":8737:8865   */\n    tag_233:\n        /* \"#utility.yul\":8319:8871   */\n      swap3\n      pop\n      swap3\n      swap1\n      pop\n      jump\t// out\n        /* \"#utility.yul\":8877:9894   */\n    tag_16:\n        /* \"#utility.yul\":8977:8983   */\n      0x00\n        /* \"#utility.yul\":8985:8991   */\n      0x00\n        /* \"#utility.yul\":8993:8999   */\n      0x00\n        /* \"#utility.yul\":9001:9007   */\n      0x00\n        /* \"#utility.yul\":9009:9015   */\n      0x00\n        /* \"#utility.yul\":9058:9060   */\n      0x60\n        /* \"#utility.yul\":9046:9055   */\n      dup7\n        /* \"#utility.yul\":9037:9044   */\n      dup9\n        /* \"#utility.yul\":9033:9056   */\n      sub\n        /* \"#utility.yul\":9029:9061   */\n      slt\n        /* \"#utility.yul\":9026:9145   */\n      iszero\n      tag_236\n      jumpi\n        /* \"#utility.yul\":9064:9143   */\n      tag_237\n      tag_103\n      jump\t// in\n    tag_237:\n        /* \"#utility.yul\":9026:9145   */\n    tag_236:\n        /* \"#utility.yul\":9184:9185   */\n      0x00\n        /* \"#utility.yul\":9209:9262   */\n      tag_238\n        /* \"#utility.yul\":9254:9261   */\n      dup9\n        /* \"#utility.yul\":9245:9251   */\n      dup3\n        /* \"#utility.yul\":9234:9243   */\n      dup10\n        /* \"#utility.yul\":9230:9252   */\n      add\n        /* \"#utility.yul\":9209:9262   */\n      tag_106\n      jump\t// in\n    tag_238:\n        /* \"#utility.yul\":9199:9262   */\n      swap6\n      pop\n        /* \"#utility.yul\":9155:9272   */\n      pop\n        /* \"#utility.yul\":9339:9341   */\n      0x20\n        /* \"#utility.yul\":9328:9337   */\n      dup7\n        /* \"#utility.yul\":9324:9342   */\n      add\n        /* \"#utility.yul\":9311:9343   */\n      calldataload\n        /* \"#utility.yul\":9370:9388   */\n      0xffffffffffffffff\n        /* \"#utility.yul\":9362:9368   */\n      dup2\n        /* \"#utility.yul\":9359:9389   */\n      gt\n        /* \"#utility.yul\":9356:9473   */\n      iszero\n      tag_239\n      jumpi\n        /* \"#utility.yul\":9392:9471   */\n      tag_240\n      tag_104\n      jump\t// in\n    tag_240:\n        /* \"#utility.yul\":9356:9473   */\n    tag_239:\n        /* \"#utility.yul\":9505:9570   */\n      tag_241\n        /* \"#utility.yul\":9562:9569   */\n      dup9\n        /* \"#utility.yul\":9553:9559   */\n      dup3\n        /* \"#utility.yul\":9542:9551   */\n      dup10\n        /* \"#utility.yul\":9538:9560   */\n      add\n        /* \"#utility.yul\":9505:9570   */\n      tag_110\n      jump\t// in\n    tag_241:\n        /* \"#utility.yul\":9487:9570   */\n      swap5\n      pop\n      swap5\n      pop\n        /* \"#utility.yul\":9282:9580   */\n      pop\n        /* \"#utility.yul\":9647:9649   */\n      0x40\n        /* \"#utility.yul\":9636:9645   */\n      dup7\n        /* \"#utility.yul\":9632:9650   */\n      add\n        /* \"#utility.yul\":9619:9651   */\n      calldataload\n        /* \"#utility.yul\":9678:9696   */\n      0xffffffffffffffff\n        /* \"#utility.yul\":9670:9676   */\n      dup2\n        /* \"#utility.yul\":9667:9697   */\n      gt\n        /* \"#utility.yul\":9664:9781   */\n      iszero\n      tag_242\n      jumpi\n        /* \"#utility.yul\":9700:9779   */\n      tag_243\n      tag_104\n      jump\t// in\n    tag_243:\n        /* \"#utility.yul\":9664:9781   */\n    tag_242:\n        /* \"#utility.yul\":9813:9877   */\n      tag_244\n        /* \"#utility.yul\":9869:9876   */\n      dup9\n        /* \"#utility.yul\":9860:9866   */\n      dup3\n        /* \"#utility.yul\":9849:9858   */\n      dup10\n        /* \"#utility.yul\":9845:9867   */\n      add\n        /* \"#utility.yul\":9813:9877   */\n      tag_111\n      jump\t// in\n    tag_244:\n        /* \"#utility.yul\":9795:9877   */\n      swap3\n      pop\n      swap3\n      pop\n        /* \"#utility.yul\":9590:9887   */\n      pop\n        /* \"#utility.yul\":8877:9894   */\n      swap3\n      swap6\n      pop\n      swap3\n      swap6\n      swap1\n      swap4\n      pop\n      jump\t// out\n        /* \"#utility.yul\":9900:10018   */\n    tag_112:\n        /* \"#utility.yul\":9987:10011   */\n      tag_246\n        /* \"#utility.yul\":10005:10010   */\n      dup2\n        /* \"#utility.yul\":9987:10011   */\n      tag_89\n      jump\t// in\n    tag_246:\n        /* \"#utility.yul\":9982:9985   */\n      dup3\n        /* \"#utility.yul\":9975:10012   */\n      mstore\n        /* \"#utility.yul\":9900:10018   */\n      pop\n      pop\n      jump\t// out\n        /* \"#utility.yul\":10024:10246   */\n    tag_20:\n        /* \"#utility.yul\":10117:10121   */\n      0x00\n        /* \"#utility.yul\":10155:10157   */\n      0x20\n        /* \"#utility.yul\":10144:10153   */\n      dup3\n        /* \"#utility.yul\":10140:10158   */\n      add\n        /* \"#utility.yul\":10132:10158   */\n      swap1\n      pop\n        /* \"#utility.yul\":10168:10239   */\n      tag_248\n        /* \"#utility.yul\":10236:10237   */\n      0x00\n        /* \"#utility.yul\":10225:10234   */\n      dup4\n        /* \"#utility.yul\":10221:10238   */\n      add\n        /* \"#utility.yul\":10212:10218   */\n      dup5\n        /* \"#utility.yul\":10168:10239   */\n      tag_112\n      jump\t// in\n    tag_248:\n        /* \"#utility.yul\":10024:10246   */\n      swap3\n      swap2\n      pop\n      pop\n      jump\t// out\n        /* \"#utility.yul\":10252:10342   */\n    tag_113:\n        /* \"#utility.yul\":10286:10293   */\n      0x00\n        /* \"#utility.yul\":10329:10334   */\n      dup2\n        /* \"#utility.yul\":10322:10335   */\n      iszero\n        /* \"#utility.yul\":10315:10336   */\n      iszero\n        /* \"#utility.yul\":10304:10336   */\n      swap1\n      pop\n        /* \"#utility.yul\":10252:10342   */\n      swap2\n      swap1\n      pop\n      jump\t// out\n        /* \"#utility.yul\":10348:10464   */\n    tag_114:\n        /* \"#utility.yul\":10418:10439   */\n      tag_251\n        /* \"#utility.yul\":10433:10438   */\n      dup2\n        /* \"#utility.yul\":10418:10439   */\n      tag_113\n      jump\t// in\n    tag_251:\n        /* \"#utility.yul\":10411:10416   */\n      dup2\n        /* \"#utility.yul\":10408:10440   */\n      eq\n        /* \"#utility.yul\":10398:10458   */\n      tag_252\n      jumpi\n        /* \"#utility.yul\":10454:10455   */\n      0x00\n        /* \"#utility.yul\":10451:10452   */\n      0x00\n        /* \"#utility.yul\":10444:10456   */\n      revert\n        /* \"#utility.yul\":10398:10458   */\n    tag_252:\n        /* \"#utility.yul\":10348:10464   */\n      pop\n      jump\t// out\n        /* \"#utility.yul\":10470:10607   */\n    tag_115:\n        /* \"#utility.yul\":10524:10529   */\n      0x00\n        /* \"#utility.yul\":10555:10561   */\n      dup2\n        /* \"#utility.yul\":10549:10562   */\n      mload\n        /* \"#utility.yul\":10540:10562   */\n      swap1\n      pop\n        /* \"#utility.yul\":10571:10601   */\n      tag_254\n        /* \"#utility.yul\":10595:10600   */\n      dup2\n        /* \"#utility.yul\":10571:10601   */\n      tag_114\n      jump\t// in\n    tag_254:\n        /* \"#utility.yul\":10470:10607   */\n      swap3\n      swap2\n      pop\n      pop\n      jump\t// out\n        /* \"#utility.yul\":10613:10958   */\n    tag_24:\n        /* \"#utility.yul\":10680:10686   */\n      0x00\n        /* \"#utility.yul\":10729:10731   */\n      0x20\n        /* \"#utility.yul\":10717:10726   */\n      dup3\n        /* \"#utility.yul\":10708:10715   */\n      dup5\n        /* \"#utility.yul\":10704:10727   */\n      sub\n        /* \"#utility.yul\":10700:10732   */\n      slt\n        /* \"#utility.yul\":10697:10816   */\n      iszero\n      tag_256\n      jumpi\n        /* \"#utility.yul\":10735:10814   */\n      tag_257\n      tag_103\n      jump\t// in\n    tag_257:\n        /* \"#utility.yul\":10697:10816   */\n    tag_256:\n        /* \"#utility.yul\":10855:10856   */\n      0x00\n        /* \"#utility.yul\":10880:10941   */\n      tag_258\n        /* \"#utility.yul\":10933:10940   */\n      dup5\n        /* \"#utility.yul\":10924:10930   */\n      dup3\n        /* \"#utility.yul\":10913:10922   */\n      dup6\n        /* \"#utility.yul\":10909:10931   */\n      add\n        /* \"#utility.yul\":10880:10941   */\n      tag_115\n      jump\t// in\n    tag_258:\n        /* \"#utility.yul\":10870:10941   */\n      swap2\n      pop\n        /* \"#utility.yul\":10826:10951   */\n      pop\n        /* \"#utility.yul\":10613:10958   */\n      swap3\n      swap2\n      pop\n      pop\n      jump\t// out\n        /* \"#utility.yul\":10964:11133   */\n    tag_116:\n        /* \"#utility.yul\":11048:11059   */\n      0x00\n        /* \"#utility.yul\":11082:11088   */\n      dup3\n        /* \"#utility.yul\":11077:11080   */\n      dup3\n        /* \"#utility.yul\":11070:11089   */\n      mstore\n        /* \"#utility.yul\":11122:11126   */\n      0x20\n        /* \"#utility.yul\":11117:11120   */\n      dup3\n        /* \"#utility.yul\":11113:11127   */\n      add\n        /* \"#utility.yul\":11098:11127   */\n      swap1\n      pop\n        /* \"#utility.yul\":10964:11133   */\n      swap3\n      swap2\n      pop\n      pop\n      jump\t// out\n        /* \"#utility.yul\":11139:11371   */\n    tag_117:\n        /* \"#utility.yul\":11279:11313   */\n      0x4461746153686172696e673a206d73672e73656e64657220697374206e696368\n        /* \"#utility.yul\":11275:11276   */\n      0x00\n        /* \"#utility.yul\":11267:11273   */\n      dup3\n        /* \"#utility.yul\":11263:11277   */\n      add\n        /* \"#utility.yul\":11256:11314   */\n      mstore\n        /* \"#utility.yul\":11348:11363   */\n      0x7420726567697374726965727400000000000000000000000000000000000000\n        /* \"#utility.yul\":11343:11345   */\n      0x20\n        /* \"#utility.yul\":11335:11341   */\n      dup3\n        /* \"#utility.yul\":11331:11346   */\n      add\n        /* \"#utility.yul\":11324:11364   */\n      mstore\n        /* \"#utility.yul\":11139:11371   */\n      pop\n      jump\t// out\n        /* \"#utility.yul\":11377:11743   */\n    tag_118:\n        /* \"#utility.yul\":11519:11522   */\n      0x00\n        /* \"#utility.yul\":11540:11607   */\n      tag_262\n        /* \"#utility.yul\":11604:11606   */\n      0x2d\n        /* \"#utility.yul\":11599:11602   */\n      dup4\n        /* \"#utility.yul\":11540:11607   */\n      tag_116\n      jump\t// in\n    tag_262:\n        /* \"#utility.yul\":11533:11607   */\n      swap2\n      pop\n        /* \"#utility.yul\":11616:11709   */\n      tag_263\n        /* \"#utility.yul\":11705:11708   */\n      dup3\n        /* \"#utility.yul\":11616:11709   */\n      tag_117\n      jump\t// in\n    tag_263:\n        /* \"#utility.yul\":11734:11736   */\n      0x40\n        /* \"#utility.yul\":11729:11732   */\n      dup3\n        /* \"#utility.yul\":11725:11737   */\n      add\n        /* \"#utility.yul\":11718:11737   */\n      swap1\n      pop\n        /* \"#utility.yul\":11377:11743   */\n      swap2\n      swap1\n      pop\n      jump\t// out\n        /* \"#utility.yul\":11749:12168   */\n    tag_27:\n        /* \"#utility.yul\":11915:11919   */\n      0x00\n        /* \"#utility.yul\":11953:11955   */\n      0x20\n        /* \"#utility.yul\":11942:11951   */\n      dup3\n        /* \"#utility.yul\":11938:11956   */\n      add\n        /* \"#utility.yul\":11930:11956   */\n      swap1\n      pop\n        /* \"#utility.yul\":12002:12011   */\n      dup2\n        /* \"#utility.yul\":11996:12000   */\n      dup2\n        /* \"#utility.yul\":11992:12012   */\n      sub\n        /* \"#utility.yul\":11988:11989   */\n      0x00\n        /* \"#utility.yul\":11977:11986   */\n      dup4\n        /* \"#utility.yul\":11973:11990   */\n      add\n        /* \"#utility.yul\":11966:12013   */\n      mstore\n        /* \"#utility.yul\":12030:12161   */\n      tag_265\n        /* \"#utility.yul\":12156:12160   */\n      dup2\n        /* \"#utility.yul\":12030:12161   */\n      tag_118\n      jump\t// in\n    tag_265:\n        /* \"#utility.yul\":12022:12161   */\n      swap1\n      pop\n        /* \"#utility.yul\":11749:12168   */\n      swap2\n      swap1\n      pop\n      jump\t// out\n        /* \"#utility.yul\":12174:12354   */\n    tag_119:\n        /* \"#utility.yul\":12222:12299   */\n      0x4e487b7100000000000000000000000000000000000000000000000000000000\n        /* \"#utility.yul\":12219:12220   */\n      0x00\n        /* \"#utility.yul\":12212:12300   */\n      mstore\n        /* \"#utility.yul\":12319:12323   */\n      0x22\n        /* \"#utility.yul\":12316:12317   */\n      0x04\n        /* \"#utility.yul\":12309:12324   */\n      mstore\n        /* \"#utility.yul\":12343:12347   */\n      0x24\n        /* \"#utility.yul\":12340:12341   */\n      0x00\n        /* \"#utility.yul\":12333:12348   */\n      revert\n        /* \"#utility.yul\":12360:12680   */\n    tag_33:\n        /* \"#utility.yul\":12404:12410   */\n      0x00\n        /* \"#utility.yul\":12441:12442   */\n      0x02\n        /* \"#utility.yul\":12435:12439   */\n      dup3\n        /* \"#utility.yul\":12431:12443   */\n      div\n        /* \"#utility.yul\":12421:12443   */\n      swap1\n      pop\n        /* \"#utility.yul\":12488:12489   */\n      0x01\n        /* \"#utility.yul\":12482:12486   */\n      dup3\n        /* \"#utility.yul\":12478:12490   */\n      and\n        /* \"#utility.yul\":12509:12527   */\n      dup1\n        /* \"#utility.yul\":12499:12580   */\n      tag_268\n      jumpi\n        /* \"#utility.yul\":12565:12569   */\n      0x7f\n        /* \"#utility.yul\":12557:12563   */\n      dup3\n        /* \"#utility.yul\":12553:12570   */\n      and\n        /* \"#utility.yul\":12543:12570   */\n      swap2\n      pop\n        /* \"#utility.yul\":12499:12580   */\n    tag_268:\n        /* \"#utility.yul\":12627:12629   */\n      0x20\n        /* \"#utility.yul\":12619:12625   */\n      dup3\n        /* \"#utility.yul\":12616:12630   */\n      lt\n        /* \"#utility.yul\":12596:12614   */\n      dup2\n        /* \"#utility.yul\":12593:12631   */\n      sub\n        /* \"#utility.yul\":12590:12674   */\n      tag_269\n      jumpi\n        /* \"#utility.yul\":12646:12664   */\n      tag_270\n      tag_119\n      jump\t// in\n    tag_270:\n        /* \"#utility.yul\":12590:12674   */\n    tag_269:\n        /* \"#utility.yul\":12411:12680   */\n      pop\n        /* \"#utility.yul\":12360:12680   */\n      swap2\n      swap1\n      pop\n      jump\t// out\n        /* \"#utility.yul\":12686:12915   */\n    tag_120:\n        /* \"#utility.yul\":12826:12860   */\n      0x4461746153686172696e673a20556e6775656c7469676520456d706661656e67\n        /* \"#utility.yul\":12822:12823   */\n      0x00\n        /* \"#utility.yul\":12814:12820   */\n      dup3\n        /* \"#utility.yul\":12810:12824   */\n      add\n        /* \"#utility.yul\":12803:12861   */\n      mstore\n        /* \"#utility.yul\":12895:12907   */\n      0x65722d4164726573736500000000000000000000000000000000000000000000\n        /* \"#utility.yul\":12890:12892   */\n      0x20\n        /* \"#utility.yul\":12882:12888   */\n      dup3\n        /* \"#utility.yul\":12878:12893   */\n      add\n        /* \"#utility.yul\":12871:12908   */\n      mstore\n        /* \"#utility.yul\":12686:12915   */\n      pop\n      jump\t// out\n        /* \"#utility.yul\":12921:13287   */\n    tag_121:\n        /* \"#utility.yul\":13063:13066   */\n      0x00\n        /* \"#utility.yul\":13084:13151   */\n      tag_273\n        /* \"#utility.yul\":13148:13150   */\n      0x2a\n        /* \"#utility.yul\":13143:13146   */\n      dup4\n        /* \"#utility.yul\":13084:13151   */\n      tag_116\n      jump\t// in\n    tag_273:\n        /* \"#utility.yul\":13077:13151   */\n      swap2\n      pop\n        /* \"#utility.yul\":13160:13253   */\n      tag_274\n        /* \"#utility.yul\":13249:13252   */\n      dup3\n        /* \"#utility.yul\":13160:13253   */\n      tag_120\n      jump\t// in\n    tag_274:\n        /* \"#utility.yul\":13278:13280   */\n      0x40\n        /* \"#utility.yul\":13273:13276   */\n      dup3\n        /* \"#utility.yul\":13269:13281   */\n      add\n        /* \"#utility.yul\":13262:13281   */\n      swap1\n      pop\n        /* \"#utility.yul\":12921:13287   */\n      swap2\n      swap1\n      pop\n      jump\t// out\n        /* \"#utility.yul\":13293:13712   */\n    tag_53:\n        /* \"#utility.yul\":13459:13463   */\n      0x00\n        /* \"#utility.yul\":13497:13499   */\n      0x20\n        /* \"#utility.yul\":13486:13495   */\n      dup3\n        /* \"#utility.yul\":13482:13500   */\n      add\n        /* \"#utility.yul\":13474:13500   */\n      swap1\n      pop\n        /* \"#utility.yul\":13546:13555   */\n      dup2\n        /* \"#utility.yul\":13540:13544   */\n      dup2\n        /* \"#utility.yul\":13536:13556   */\n      sub\n        /* \"#utility.yul\":13532:13533   */\n      0x00\n        /* \"#utility.yul\":13521:13530   */\n      dup4\n        /* \"#utility.yul\":13517:13534   */\n      add\n        /* \"#utility.yul\":13510:13557   */\n      mstore\n        /* \"#utility.yul\":13574:13705   */\n      tag_276\n        /* \"#utility.yul\":13700:13704   */\n      dup2\n        /* \"#utility.yul\":13574:13705   */\n      tag_121\n      jump\t// in\n    tag_276:\n        /* \"#utility.yul\":13566:13705   */\n      swap1\n      pop\n        /* \"#utility.yul\":13293:13712   */\n      swap2\n      swap1\n      pop\n      jump\t// out\n        /* \"#utility.yul\":13718:13949   */\n    tag_122:\n        /* \"#utility.yul\":13858:13892   */\n      0x4461746153686172696e673a2053656e64657220756e6420456d706661656e67\n        /* \"#utility.yul\":13854:13855   */\n      0x00\n        /* \"#utility.yul\":13846:13852   */\n      dup3\n        /* \"#utility.yul\":13842:13856   */\n      add\n        /* \"#utility.yul\":13835:13893   */\n      mstore\n        /* \"#utility.yul\":13927:13941   */\n      0x6572206964656e74697363680000000000000000000000000000000000000000\n        /* \"#utility.yul\":13922:13924   */\n      0x20\n        /* \"#utility.yul\":13914:13920   */\n      dup3\n        /* \"#utility.yul\":13910:13925   */\n      add\n        /* \"#utility.yul\":13903:13942   */\n      mstore\n        /* \"#utility.yul\":13718:13949   */\n      pop\n      jump\t// out\n        /* \"#utility.yul\":13955:14321   */\n    tag_123:\n        /* \"#utility.yul\":14097:14100   */\n      0x00\n        /* \"#utility.yul\":14118:14185   */\n      tag_279\n        /* \"#utility.yul\":14182:14184   */\n      0x2c\n        /* \"#utility.yul\":14177:14180   */\n      dup4\n        /* \"#utility.yul\":14118:14185   */\n      tag_116\n      jump\t// in\n    tag_279:\n        /* \"#utility.yul\":14111:14185   */\n      swap2\n      pop\n        /* \"#utility.yul\":14194:14287   */\n      tag_280\n        /* \"#utility.yul\":14283:14286   */\n      dup3\n        /* \"#utility.yul\":14194:14287   */\n      tag_122\n      jump\t// in\n    tag_280:\n        /* \"#utility.yul\":14312:14314   */\n      0x40\n        /* \"#utility.yul\":14307:14310   */\n      dup3\n        /* \"#utility.yul\":14303:14315   */\n      add\n        /* \"#utility.yul\":14296:14315   */\n      swap1\n      pop\n        /* \"#utility.yul\":13955:14321   */\n      swap2\n      swap1\n      pop\n      jump\t// out\n        /* \"#utility.yul\":14327:14746   */\n    tag_56:\n        /* \"#utility.yul\":14493:14497   */\n      0x00\n        /* \"#utility.yul\":14531:14533   */\n      0x20\n        /* \"#utility.yul\":14520:14529   */\n      dup3\n        /* \"#utility.yul\":14516:14534   */\n      add\n        /* \"#utility.yul\":14508:14534   */\n      swap1\n      pop\n        /* \"#utility.yul\":14580:14589   */\n      dup2\n        /* \"#utility.yul\":14574:14578   */\n      dup2\n        /* \"#utility.yul\":14570:14590   */\n      sub\n        /* \"#utility.yul\":14566:14567   */\n      0x00\n        /* \"#utility.yul\":14555:14564   */\n      dup4\n        /* \"#utility.yul\":14551:14568   */\n      add\n        /* \"#utility.yul\":14544:14591   */\n      mstore\n        /* \"#utility.yul\":14608:14739   */\n      tag_282\n        /* \"#utility.yul\":14734:14738   */\n      dup2\n        /* \"#utility.yul\":14608:14739   */\n      tag_123\n      jump\t// in\n    tag_282:\n        /* \"#utility.yul\":14600:14739   */\n      swap1\n      pop\n        /* \"#utility.yul\":14327:14746   */\n      swap2\n      swap1\n      pop\n      jump\t// out\n        /* \"#utility.yul\":14752:14980   */\n    tag_124:\n        /* \"#utility.yul\":14892:14926   */\n      0x4461746153686172696e673a20456d706661656e676572206e69636874207265\n        /* \"#utility.yul\":14888:14889   */\n      0x00\n        /* \"#utility.yul\":14880:14886   */\n      dup3\n        /* \"#utility.yul\":14876:14890   */\n      add\n        /* \"#utility.yul\":14869:14927   */\n      mstore\n        /* \"#utility.yul\":14961:14972   */\n      0x6769737472696572740000000000000000000000000000000000000000000000\n        /* \"#utility.yul\":14956:14958   */\n      0x20\n        /* \"#utility.yul\":14948:14954   */\n      dup3\n        /* \"#utility.yul\":14944:14959   */\n      add\n        /* \"#utility.yul\":14937:14973   */\n      mstore\n        /* \"#utility.yul\":14752:14980   */\n      pop\n      jump\t// out\n        /* \"#utility.yul\":14986:15352   */\n    tag_125:\n        /* \"#utility.yul\":15128:15131   */\n      0x00\n        /* \"#utility.yul\":15149:15216   */\n      tag_285\n        /* \"#utility.yul\":15213:15215   */\n      0x29\n        /* \"#utility.yul\":15208:15211   */\n      dup4\n        /* \"#utility.yul\":15149:15216   */\n      tag_116\n      jump\t// in\n    tag_285:\n        /* \"#utility.yul\":15142:15216   */\n      swap2\n      pop\n        /* \"#utility.yul\":15225:15318   */\n      tag_286\n        /* \"#utility.yul\":15314:15317   */\n      dup3\n        /* \"#utility.yul\":15225:15318   */\n      tag_124\n      jump\t// in\n    tag_286:\n        /* \"#utility.yul\":15343:15345   */\n      0x40\n        /* \"#utility.yul\":15338:15341   */\n      dup3\n        /* \"#utility.yul\":15334:15346   */\n      add\n        /* \"#utility.yul\":15327:15346   */\n      swap1\n      pop\n        /* \"#utility.yul\":14986:15352   */\n      swap2\n      swap1\n      pop\n      jump\t// out\n        /* \"#utility.yul\":15358:15777   */\n    tag_63:\n        /* \"#utility.yul\":15524:15528   */\n      0x00\n        /* \"#utility.yul\":15562:15564   */\n      0x20\n        /* \"#utility.yul\":15551:15560   */\n      dup3\n        /* \"#utility.yul\":15547:15565   */\n      add\n        /* \"#utility.yul\":15539:15565   */\n      swap1\n      pop\n        /* \"#utility.yul\":15611:15620   */\n      dup2\n        /* \"#utility.yul\":15605:15609   */\n      dup2\n        /* \"#utility.yul\":15601:15621   */\n      sub\n        /* \"#utility.yul\":15597:15598   */\n      0x00\n        /* \"#utility.yul\":15586:15595   */\n      dup4\n        /* \"#utility.yul\":15582:15599   */\n      add\n        /* \"#utility.yul\":15575:15622   */\n      mstore\n        /* \"#utility.yul\":15639:15770   */\n      tag_288\n        /* \"#utility.yul\":15765:15769   */\n      dup2\n        /* \"#utility.yul\":15639:15770   */\n      tag_125\n      jump\t// in\n    tag_288:\n        /* \"#utility.yul\":15631:15770   */\n      swap1\n      pop\n        /* \"#utility.yul\":15358:15777   */\n      swap2\n      swap1\n      pop\n      jump\t// out\n        /* \"#utility.yul\":15783:16007   */\n    tag_126:\n        /* \"#utility.yul\":15923:15957   */\n      0x4461746153686172696e673a204349442064617266206e69636874206c656572\n        /* \"#utility.yul\":15919:15920   */\n      0x00\n        /* \"#utility.yul\":15911:15917   */\n      dup3\n        /* \"#utility.yul\":15907:15921   */\n      add\n        /* \"#utility.yul\":15900:15958   */\n      mstore\n        /* \"#utility.yul\":15992:15999   */\n      0x207365696e000000000000000000000000000000000000000000000000000000\n        /* \"#utility.yul\":15987:15989   */\n      0x20\n        /* \"#utility.yul\":15979:15985   */\n      dup3\n        /* \"#utility.yul\":15975:15990   */\n      add\n        /* \"#utility.yul\":15968:16000   */\n      mstore\n        /* \"#utility.yul\":15783:16007   */\n      pop\n      jump\t// out\n        /* \"#utility.yul\":16013:16379   */\n    tag_127:\n        /* \"#utility.yul\":16155:16158   */\n      0x00\n        /* \"#utility.yul\":16176:16243   */\n      tag_291\n        /* \"#utility.yul\":16240:16242   */\n      0x25\n        /* \"#utility.yul\":16235:16238   */\n      dup4\n        /* \"#utility.yul\":16176:16243   */\n      tag_116\n      jump\t// in\n    tag_291:\n        /* \"#utility.yul\":16169:16243   */\n      swap2\n      pop\n        /* \"#utility.yul\":16252:16345   */\n      tag_292\n        /* \"#utility.yul\":16341:16344   */\n      dup3\n        /* \"#utility.yul\":16252:16345   */\n      tag_126\n      jump\t// in\n    tag_292:\n        /* \"#utility.yul\":16370:16372   */\n      0x40\n        /* \"#utility.yul\":16365:16368   */\n      dup3\n        /* \"#utility.yul\":16361:16373   */\n      add\n        /* \"#utility.yul\":16354:16373   */\n      swap1\n      pop\n        /* \"#utility.yul\":16013:16379   */\n      swap2\n      swap1\n      pop\n      jump\t// out\n        /* \"#utility.yul\":16385:16804   */\n    tag_66:\n        /* \"#utility.yul\":16551:16555   */\n      0x00\n        /* \"#utility.yul\":16589:16591   */\n      0x20\n        /* \"#utility.yul\":16578:16587   */\n      dup3\n        /* \"#utility.yul\":16574:16592   */\n      add\n        /* \"#utility.yul\":16566:16592   */\n      swap1\n      pop\n        /* \"#utility.yul\":16638:16647   */\n      dup2\n        /* \"#utility.yul\":16632:16636   */\n      dup2\n        /* \"#utility.yul\":16628:16648   */\n      sub\n        /* \"#utility.yul\":16624:16625   */\n      0x00\n        /* \"#utility.yul\":16613:16622   */\n      dup4\n        /* \"#utility.yul\":16609:16626   */\n      add\n        /* \"#utility.yul\":16602:16649   */\n      mstore\n        /* \"#utility.yul\":16666:16797   */\n      tag_294\n        /* \"#utility.yul\":16792:16796   */\n      dup2\n        /* \"#utility.yul\":16666:16797   */\n      tag_127\n      jump\t// in\n    tag_294:\n        /* \"#utility.yul\":16658:16797   */\n      swap1\n      pop\n        /* \"#utility.yul\":16385:16804   */\n      swap2\n      swap1\n      pop\n      jump\t// out\n        /* \"#utility.yul\":16810:17050   */\n    tag_128:\n        /* \"#utility.yul\":16950:16984   */\n      0x4461746153686172696e673a205665727363686c2e205363686c75657373656c\n        /* \"#utility.yul\":16946:16947   */\n      0x00\n        /* \"#utility.yul\":16938:16944   */\n      dup3\n        /* \"#utility.yul\":16934:16948   */\n      add\n        /* \"#utility.yul\":16927:16985   */\n      mstore\n        /* \"#utility.yul\":17019:17042   */\n      0x2064617266206e69636874206c656572207365696e0000000000000000000000\n        /* \"#utility.yul\":17014:17016   */\n      0x20\n        /* \"#utility.yul\":17006:17012   */\n      dup3\n        /* \"#utility.yul\":17002:17017   */\n      add\n        /* \"#utility.yul\":16995:17043   */\n      mstore\n        /* \"#utility.yul\":16810:17050   */\n      pop\n      jump\t// out\n        /* \"#utility.yul\":17056:17422   */\n    tag_129:\n        /* \"#utility.yul\":17198:17201   */\n      0x00\n        /* \"#utility.yul\":17219:17286   */\n      tag_297\n        /* \"#utility.yul\":17283:17285   */\n      0x35\n        /* \"#utility.yul\":17278:17281   */\n      dup4\n        /* \"#utility.yul\":17219:17286   */\n      tag_116\n      jump\t// in\n    tag_297:\n        /* \"#utility.yul\":17212:17286   */\n      swap2\n      pop\n        /* \"#utility.yul\":17295:17388   */\n      tag_298\n        /* \"#utility.yul\":17384:17387   */\n      dup3\n        /* \"#utility.yul\":17295:17388   */\n      tag_128\n      jump\t// in\n    tag_298:\n        /* \"#utility.yul\":17413:17415   */\n      0x40\n        /* \"#utility.yul\":17408:17411   */\n      dup3\n        /* \"#utility.yul\":17404:17416   */\n      add\n        /* \"#utility.yul\":17397:17416   */\n      swap1\n      pop\n        /* \"#utility.yul\":17056:17422   */\n      swap2\n      swap1\n      pop\n      jump\t// out\n        /* \"#utility.yul\":17428:17847   */\n    tag_69:\n        /* \"#utility.yul\":17594:17598   */\n      0x00\n        /* \"#utility.yul\":17632:17634   */\n      0x20\n        /* \"#utility.yul\":17621:17630   */\n      dup3\n        /* \"#utility.yul\":17617:17635   */\n      add\n        /* \"#utility.yul\":17609:17635   */\n      swap1\n      pop\n        /* \"#utility.yul\":17681:17690   */\n      dup2\n        /* \"#utility.yul\":17675:17679   */\n      dup2\n        /* \"#utility.yul\":17671:17691   */\n      sub\n        /* \"#utility.yul\":17667:17668   */\n      0x00\n        /* \"#utility.yul\":17656:17665   */\n      dup4\n        /* \"#utility.yul\":17652:17669   */\n      add\n        /* \"#utility.yul\":17645:17692   */\n      mstore\n        /* \"#utility.yul\":17709:17840   */\n      tag_300\n        /* \"#utility.yul\":17835:17839   */\n      dup2\n        /* \"#utility.yul\":17709:17840   */\n      tag_129\n      jump\t// in\n    tag_300:\n        /* \"#utility.yul\":17701:17840   */\n      swap1\n      pop\n        /* \"#utility.yul\":17428:17847   */\n      swap2\n      swap1\n      pop\n      jump\t// out\n        /* \"#utility.yul\":17853:18033   */\n    tag_130:\n        /* \"#utility.yul\":17901:17978   */\n      0x4e487b7100000000000000000000000000000000000000000000000000000000\n        /* \"#utility.yul\":17898:17899   */\n      0x00\n        /* \"#utility.yul\":17891:17979   */\n      mstore\n        /* \"#utility.yul\":17998:18002   */\n      0x41\n        /* \"#utility.yul\":17995:17996   */\n      0x04\n        /* \"#utility.yul\":17988:18003   */\n      mstore\n        /* \"#utility.yul\":18022:18026   */\n      0x24\n        /* \"#utility.yul\":18019:18020   */\n      0x00\n        /* \"#utility.yul\":18012:18027   */\n      revert\n        /* \"#utility.yul\":18039:18180   */\n    tag_131:\n        /* \"#utility.yul\":18088:18092   */\n      0x00\n        /* \"#utility.yul\":18111:18114   */\n      dup2\n        /* \"#utility.yul\":18103:18114   */\n      swap1\n      pop\n        /* \"#utility.yul\":18134:18137   */\n      dup2\n        /* \"#utility.yul\":18131:18132   */\n      0x00\n        /* \"#utility.yul\":18124:18138   */\n      mstore\n        /* \"#utility.yul\":18168:18172   */\n      0x20\n        /* \"#utility.yul\":18165:18166   */\n      0x00\n        /* \"#utility.yul\":18155:18173   */\n      keccak256\n        /* \"#utility.yul\":18147:18173   */\n      swap1\n      pop\n        /* \"#utility.yul\":18039:18180   */\n      swap2\n      swap1\n      pop\n      jump\t// out\n        /* \"#utility.yul\":18186:18279   */\n    tag_132:\n        /* \"#utility.yul\":18223:18229   */\n      0x00\n        /* \"#utility.yul\":18270:18272   */\n      0x20\n        /* \"#utility.yul\":18265:18267   */\n      0x1f\n        /* \"#utility.yul\":18258:18263   */\n      dup4\n        /* \"#utility.yul\":18254:18268   */\n      add\n        /* \"#utility.yul\":18250:18273   */\n      div\n        /* \"#utility.yul\":18240:18273   */\n      swap1\n      pop\n        /* \"#utility.yul\":18186:18279   */\n      swap2\n      swap1\n      pop\n      jump\t// out\n        /* \"#utility.yul\":18285:18392   */\n    tag_133:\n        /* \"#utility.yul\":18329:18337   */\n      0x00\n        /* \"#utility.yul\":18379:18384   */\n      dup3\n        /* \"#utility.yul\":18373:18377   */\n      dup3\n        /* \"#utility.yul\":18369:18385   */\n      shl\n        /* \"#utility.yul\":18348:18385   */\n      swap1\n      pop\n        /* \"#utility.yul\":18285:18392   */\n      swap3\n      swap2\n      pop\n      pop\n      jump\t// out\n        /* \"#utility.yul\":18398:18791   */\n    tag_134:\n        /* \"#utility.yul\":18467:18473   */\n      0x00\n        /* \"#utility.yul\":18517:18518   */\n      0x08\n        /* \"#utility.yul\":18505:18515   */\n      dup4\n        /* \"#utility.yul\":18501:18519   */\n      mul\n        /* \"#utility.yul\":18540:18637   */\n      tag_306\n        /* \"#utility.yul\":18570:18636   */\n      0xffffffffffffffffffffffffffffffffffffffffffffffffffffffffffffffff\n        /* \"#utility.yul\":18559:18568   */\n      dup3\n        /* \"#utility.yul\":18540:18637   */\n      tag_133\n      jump\t// in\n    tag_306:\n        /* \"#utility.yul\":18658:18697   */\n      tag_307\n        /* \"#utility.yul\":18688:18696   */\n      dup7\n        /* \"#utility.yul\":18677:18686   */\n      dup4\n        /* \"#utility.yul\":18658:18697   */\n      tag_133\n      jump\t// in\n    tag_307:\n        /* \"#utility.yul\":18646:18697   */\n      swap6\n      pop\n        /* \"#utility.yul\":18730:18734   */\n      dup1\n        /* \"#utility.yul\":18726:18735   */\n      not\n        /* \"#utility.yul\":18719:18724   */\n      dup5\n        /* \"#utility.yul\":18715:18736   */\n      and\n        /* \"#utility.yul\":18706:18736   */\n      swap4\n      pop\n        /* \"#utility.yul\":18779:18783   */\n      dup1\n        /* \"#utility.yul\":18769:18777   */\n      dup7\n        /* \"#utility.yul\":18765:18784   */\n      and\n        /* \"#utility.yul\":18758:18763   */\n      dup5\n        /* \"#utility.yul\":18755:18785   */\n      or\n        /* \"#utility.yul\":18745:18785   */\n      swap3\n      pop\n        /* \"#utility.yul\":18474:18791   */\n      pop\n      pop\n        /* \"#utility.yul\":18398:18791   */\n      swap4\n      swap3\n      pop\n      pop\n      pop\n      jump\t// out\n        /* \"#utility.yul\":18797:18939   */\n    tag_135:\n        /* \"#utility.yul\":18847:18856   */\n      0x00\n        /* \"#utility.yul\":18880:18933   */\n      tag_309\n        /* \"#utility.yul\":18898:18932   */\n      tag_310\n        /* \"#utility.yul\":18907:18931   */\n      tag_311\n        /* \"#utility.yul\":18925:18930   */\n      dup5\n        /* \"#utility.yul\":18907:18931   */\n      tag_91\n      jump\t// in\n    tag_311:\n        /* \"#utility.yul\":18898:18932   */\n      tag_97\n      jump\t// in\n    tag_310:\n        /* \"#utility.yul\":18880:18933   */\n      tag_91\n      jump\t// in\n    tag_309:\n        /* \"#utility.yul\":18867:18933   */\n      swap1\n      pop\n        /* \"#utility.yul\":18797:18939   */\n      swap2\n      swap1\n      pop\n      jump\t// out\n        /* \"#utility.yul\":18945:19020   */\n    tag_136:\n        /* \"#utility.yul\":18988:18991   */\n      0x00\n        /* \"#utility.yul\":19009:19014   */\n      dup2\n        /* \"#utility.yul\":19002:19014   */\n      swap1\n      pop\n        /* \"#utility.yul\":18945:19020   */\n      swap2\n      swap1\n      pop\n      jump\t// out\n        /* \"#utility.yul\":19026:19295   */\n    tag_137:\n        /* \"#utility.yul\":19136:19175   */\n      tag_314\n        /* \"#utility.yul\":19167:19174   */\n      dup4\n        /* \"#utility.yul\":19136:19175   */\n      tag_135\n      jump\t// in\n    tag_314:\n        /* \"#utility.yul\":19197:19288   */\n      tag_315\n        /* \"#utility.yul\":19246:19287   */\n      tag_316\n        /* \"#utility.yul\":19270:19286   */\n      dup3\n        /* \"#utility.yul\":19246:19287   */\n      tag_136\n      jump\t// in\n    tag_316:\n        /* \"#utility.yul\":19238:19244   */\n      dup5\n        /* \"#utility.yul\":19231:19235   */\n      dup5\n        /* \"#utility.yul\":19225:19236   */\n      sload\n        /* \"#utility.yul\":19197:19288   */\n      tag_134\n      jump\t// in\n    tag_315:\n        /* \"#utility.yul\":19191:19195   */\n      dup3\n        /* \"#utility.yul\":19184:19289   */\n      sstore\n        /* \"#utility.yul\":19102:19295   */\n      pop\n        /* \"#utility.yul\":19026:19295   */\n      pop\n      pop\n      pop\n      jump\t// out\n        /* \"#utility.yul\":19301:19374   */\n    tag_138:\n        /* \"#utility.yul\":19346:19349   */\n      0x00\n        /* \"#utility.yul\":19367:19368   */\n      0x00\n        /* \"#utility.yul\":19360:19368   */\n      swap1\n      pop\n        /* \"#utility.yul\":19301:19374   */\n      swap1\n      jump\t// out\n        /* \"#utility.yul\":19380:19569   */\n    tag_139:\n        /* \"#utility.yul\":19457:19489   */\n      tag_319\n      tag_138\n      jump\t// in\n    tag_319:\n        /* \"#utility.yul\":19498:19563   */\n      tag_320\n        /* \"#utility.yul\":19556:19562   */\n      dup2\n        /* \"#utility.yul\":19548:19554   */\n      dup5\n        /* \"#utility.yul\":19542:19546   */\n      dup5\n        /* \"#utility.yul\":19498:19563   */\n      tag_137\n      jump\t// in\n    tag_320:\n        /* \"#utility.yul\":19433:19569   */\n      pop\n        /* \"#utility.yul\":19380:19569   */\n      pop\n      pop\n      jump\t// out\n        /* \"#utility.yul\":19575:19761   */\n    tag_140:\n        /* \"#utility.yul\":19635:19755   */\n    tag_322:\n        /* \"#utility.yul\":19652:19655   */\n      dup2\n        /* \"#utility.yul\":19645:19650   */\n      dup2\n        /* \"#utility.yul\":19642:19656   */\n      lt\n        /* \"#utility.yul\":19635:19755   */\n      iszero\n      tag_324\n      jumpi\n        /* \"#utility.yul\":19706:19745   */\n      tag_325\n        /* \"#utility.yul\":19743:19744   */\n      0x00\n        /* \"#utility.yul\":19736:19741   */\n      dup3\n        /* \"#utility.yul\":19706:19745   */\n      tag_139\n      jump\t// in\n    tag_325:\n        /* \"#utility.yul\":19679:19680   */\n      0x01\n        /* \"#utility.yul\":19672:19677   */\n      dup2\n        /* \"#utility.yul\":19668:19681   */\n      add\n        /* \"#utility.yul\":19659:19681   */\n      swap1\n      pop\n        /* \"#utility.yul\":19635:19755   */\n      jump(tag_322)\n    tag_324:\n        /* \"#utility.yul\":19575:19761   */\n      pop\n      pop\n      jump\t// out\n        /* \"#utility.yul\":19767:20310   */\n    tag_141:\n        /* \"#utility.yul\":19868:19870   */\n      0x1f\n        /* \"#utility.yul\":19863:19866   */\n      dup3\n        /* \"#utility.yul\":19860:19871   */\n      gt\n        /* \"#utility.yul\":19857:20303   */\n      iszero\n      tag_327\n      jumpi\n        /* \"#utility.yul\":19902:19940   */\n      tag_328\n        /* \"#utility.yul\":19934:19939   */\n      dup2\n        /* \"#utility.yul\":19902:19940   */\n      tag_131\n      jump\t// in\n    tag_328:\n        /* \"#utility.yul\":19986:20015   */\n      tag_329\n        /* \"#utility.yul\":20004:20014   */\n      dup5\n        /* \"#utility.yul\":19986:20015   */\n      tag_132\n      jump\t// in\n    tag_329:\n        /* \"#utility.yul\":19976:19984   */\n      dup2\n        /* \"#utility.yul\":19972:20016   */\n      add\n        /* \"#utility.yul\":20169:20171   */\n      0x20\n        /* \"#utility.yul\":20157:20167   */\n      dup6\n        /* \"#utility.yul\":20154:20172   */\n      lt\n        /* \"#utility.yul\":20151:20200   */\n      iszero\n      tag_330\n      jumpi\n        /* \"#utility.yul\":20190:20198   */\n      dup2\n        /* \"#utility.yul\":20175:20198   */\n      swap1\n      pop\n        /* \"#utility.yul\":20151:20200   */\n    tag_330:\n        /* \"#utility.yul\":20213:20293   */\n      tag_331\n        /* \"#utility.yul\":20269:20291   */\n      tag_332\n        /* \"#utility.yul\":20287:20290   */\n      dup6\n        /* \"#utility.yul\":20269:20291   */\n      tag_132\n      jump\t// in\n    tag_332:\n        /* \"#utility.yul\":20259:20267   */\n      dup4\n        /* \"#utility.yul\":20255:20292   */\n      add\n        /* \"#utility.yul\":20242:20253   */\n      dup3\n        /* \"#utility.yul\":20213:20293   */\n      tag_140\n      jump\t// in\n    tag_331:\n        /* \"#utility.yul\":19872:20303   */\n      pop\n      pop\n        /* \"#utility.yul\":19857:20303   */\n    tag_327:\n        /* \"#utility.yul\":19767:20310   */\n      pop\n      pop\n      pop\n      jump\t// out\n        /* \"#utility.yul\":20316:20433   */\n    tag_142:\n        /* \"#utility.yul\":20370:20378   */\n      0x00\n        /* \"#utility.yul\":20420:20425   */\n      dup3\n        /* \"#utility.yul\":20414:20418   */\n      dup3\n        /* \"#utility.yul\":20410:20426   */\n      shr\n        /* \"#utility.yul\":20389:20426   */\n      swap1\n      pop\n        /* \"#utility.yul\":20316:20433   */\n      swap3\n      swap2\n      pop\n      pop\n      jump\t// out\n        /* \"#utility.yul\":20439:20608   */\n    tag_143:\n        /* \"#utility.yul\":20483:20489   */\n      0x00\n        /* \"#utility.yul\":20516:20567   */\n      tag_335\n        /* \"#utility.yul\":20564:20565   */\n      0x00\n        /* \"#utility.yul\":20560:20566   */\n      not\n        /* \"#utility.yul\":20552:20557   */\n      dup5\n        /* \"#utility.yul\":20549:20550   */\n      0x08\n        /* \"#utility.yul\":20545:20558   */\n      mul\n        /* \"#utility.yul\":20516:20567   */\n      tag_142\n      jump\t// in\n    tag_335:\n        /* \"#utility.yul\":20512:20568   */\n      not\n        /* \"#utility.yul\":20597:20601   */\n      dup1\n        /* \"#utility.yul\":20591:20595   */\n      dup4\n        /* \"#utility.yul\":20587:20602   */\n      and\n        /* \"#utility.yul\":20577:20602   */\n      swap2\n      pop\n        /* \"#utility.yul\":20490:20608   */\n      pop\n        /* \"#utility.yul\":20439:20608   */\n      swap3\n      swap2\n      pop\n      pop\n      jump\t// out\n        /* \"#utility.yul\":20613:20908   */\n    tag_144:\n        /* \"#utility.yul\":20689:20693   */\n      0x00\n        /* \"#utility.yul\":20835:20864   */\n      tag_337\n        /* \"#utility.yul\":20860:20863   */\n      dup4\n        /* \"#utility.yul\":20854:20858   */\n      dup4\n        /* \"#utility.yul\":20835:20864   */\n      tag_143\n      jump\t// in\n    tag_337:\n        /* \"#utility.yul\":20827:20864   */\n      swap2\n      pop\n        /* \"#utility.yul\":20897:20900   */\n      dup3\n        /* \"#utility.yul\":20894:20895   */\n      0x02\n        /* \"#utility.yul\":20890:20901   */\n      mul\n        /* \"#utility.yul\":20884:20888   */\n      dup3\n        /* \"#utility.yul\":20881:20902   */\n      or\n        /* \"#utility.yul\":20873:20902   */\n      swap1\n      pop\n        /* \"#utility.yul\":20613:20908   */\n      swap3\n      swap2\n      pop\n      pop\n      jump\t// out\n        /* \"#utility.yul\":20913:22308   */\n    tag_72:\n        /* \"#utility.yul\":21030:21067   */\n      tag_339\n        /* \"#utility.yul\":21063:21066   */\n      dup3\n        /* \"#utility.yul\":21030:21067   */\n      tag_80\n      jump\t// in\n    tag_339:\n        /* \"#utility.yul\":21132:21150   */\n      0xffffffffffffffff\n        /* \"#utility.yul\":21124:21130   */\n      dup2\n        /* \"#utility.yul\":21121:21151   */\n      gt\n        /* \"#utility.yul\":21118:21174   */\n      iszero\n      tag_340\n      jumpi\n        /* \"#utility.yul\":21154:21172   */\n      tag_341\n      tag_130\n      jump\t// in\n    tag_341:\n        /* \"#utility.yul\":21118:21174   */\n    tag_340:\n        /* \"#utility.yul\":21198:21236   */\n      tag_342\n        /* \"#utility.yul\":21230:21234   */\n      dup3\n        /* \"#utility.yul\":21224:21235   */\n      sload\n        /* \"#utility.yul\":21198:21236   */\n      tag_33\n      jump\t// in\n    tag_342:\n        /* \"#utility.yul\":21283:21350   */\n      tag_343\n        /* \"#utility.yul\":21343:21349   */\n      dup3\n        /* \"#utility.yul\":21335:21341   */\n      dup3\n        /* \"#utility.yul\":21329:21333   */\n      dup6\n        /* \"#utility.yul\":21283:21350   */\n      tag_141\n      jump\t// in\n    tag_343:\n        /* \"#utility.yul\":21377:21378   */\n      0x00\n        /* \"#utility.yul\":21401:21405   */\n      0x20\n        /* \"#utility.yul\":21388:21405   */\n      swap1\n      pop\n        /* \"#utility.yul\":21433:21435   */\n      0x1f\n        /* \"#utility.yul\":21425:21431   */\n      dup4\n        /* \"#utility.yul\":21422:21436   */\n      gt\n        /* \"#utility.yul\":21450:21451   */\n      0x01\n        /* \"#utility.yul\":21445:22063   */\n      dup2\n      eq\n      tag_345\n      jumpi\n        /* \"#utility.yul\":22107:22108   */\n      0x00\n        /* \"#utility.yul\":22124:22130   */\n      dup5\n        /* \"#utility.yul\":22121:22198   */\n      iszero\n      tag_346\n      jumpi\n        /* \"#utility.yul\":22173:22182   */\n      dup3\n        /* \"#utility.yul\":22168:22171   */\n      dup8\n        /* \"#utility.yul\":22164:22183   */\n      add\n        /* \"#utility.yul\":22158:22184   */\n      mload\n        /* \"#utility.yul\":22149:22184   */\n      swap1\n      pop\n        /* \"#utility.yul\":22121:22198   */\n    tag_346:\n        /* \"#utility.yul\":22224:22291   */\n      tag_347\n        /* \"#utility.yul\":22284:22290   */\n      dup6\n        /* \"#utility.yul\":22277:22282   */\n      dup3\n        /* \"#utility.yul\":22224:22291   */\n      tag_144\n      jump\t// in\n    tag_347:\n        /* \"#utility.yul\":22218:22222   */\n      dup7\n        /* \"#utility.yul\":22211:22292   */\n      sstore\n        /* \"#utility.yul\":22080:22302   */\n      pop\n        /* \"#utility.yul\":21415:22302   */\n      jump(tag_344)\n        /* \"#utility.yul\":21445:22063   */\n    tag_345:\n        /* \"#utility.yul\":21497:21501   */\n      0x1f\n        /* \"#utility.yul\":21493:21502   */\n      not\n        /* \"#utility.yul\":21485:21491   */\n      dup5\n        /* \"#utility.yul\":21481:21503   */\n      and\n        /* \"#utility.yul\":21531:21568   */\n      tag_348\n        /* \"#utility.yul\":21563:21567   */\n      dup7\n        /* \"#utility.yul\":21531:21568   */\n      tag_131\n      jump\t// in\n    tag_348:\n        /* \"#utility.yul\":21590:21591   */\n      0x00\n        /* \"#utility.yul\":21604:21812   */\n    tag_349:\n        /* \"#utility.yul\":21618:21625   */\n      dup3\n        /* \"#utility.yul\":21615:21616   */\n      dup2\n        /* \"#utility.yul\":21612:21626   */\n      lt\n        /* \"#utility.yul\":21604:21812   */\n      iszero\n      tag_351\n      jumpi\n        /* \"#utility.yul\":21697:21706   */\n      dup5\n        /* \"#utility.yul\":21692:21695   */\n      dup10\n        /* \"#utility.yul\":21688:21707   */\n      add\n        /* \"#utility.yul\":21682:21708   */\n      mload\n        /* \"#utility.yul\":21674:21680   */\n      dup3\n        /* \"#utility.yul\":21667:21709   */\n      sstore\n        /* \"#utility.yul\":21748:21749   */\n      0x01\n        /* \"#utility.yul\":21740:21746   */\n      dup3\n        /* \"#utility.yul\":21736:21750   */\n      add\n        /* \"#utility.yul\":21726:21750   */\n      swap2\n      pop\n        /* \"#utility.yul\":21795:21797   */\n      0x20\n        /* \"#utility.yul\":21784:21793   */\n      dup6\n        /* \"#utility.yul\":21780:21798   */\n      add\n        /* \"#utility.yul\":21767:21798   */\n      swap5\n      pop\n        /* \"#utility.yul\":21641:21645   */\n      0x20\n        /* \"#utility.yul\":21638:21639   */\n      dup2\n        /* \"#utility.yul\":21634:21646   */\n      add\n        /* \"#utility.yul\":21629:21646   */\n      swap1\n      pop\n        /* \"#utility.yul\":21604:21812   */\n      jump(tag_349)\n    tag_351:\n        /* \"#utility.yul\":21840:21846   */\n      dup7\n        /* \"#utility.yul\":21831:21838   */\n      dup4\n        /* \"#utility.yul\":21828:21847   */\n      lt\n        /* \"#utility.yul\":21825:22004   */\n      iszero\n      tag_352\n      jumpi\n        /* \"#utility.yul\":21898:21907   */\n      dup5\n        /* \"#utility.yul\":21893:21896   */\n      dup10\n        /* \"#utility.yul\":21889:21908   */\n      add\n        /* \"#utility.yul\":21883:21909   */\n      mload\n        /* \"#utility.yul\":21941:21989   */\n      tag_353\n        /* \"#utility.yul\":21983:21987   */\n      0x1f\n        /* \"#utility.yul\":21975:21981   */\n      dup10\n        /* \"#utility.yul\":21971:21988   */\n      and\n        /* \"#utility.yul\":21960:21969   */\n      dup3\n        /* \"#utility.yul\":21941:21989   */\n      tag_143\n      jump\t// in\n    tag_353:\n        /* \"#utility.yul\":21933:21939   */\n      dup4\n        /* \"#utility.yul\":21926:21990   */\n      sstore\n        /* \"#utility.yul\":21848:22004   */\n      pop\n        /* \"#utility.yul\":21825:22004   */\n    tag_352:\n        /* \"#utility.yul\":22050:22051   */\n      0x01\n        /* \"#utility.yul\":22046:22047   */\n      0x02\n        /* \"#utility.yul\":22038:22044   */\n      dup9\n        /* \"#utility.yul\":22034:22048   */\n      mul\n        /* \"#utility.yul\":22030:22052   */\n      add\n        /* \"#utility.yul\":22024:22028   */\n      dup9\n        /* \"#utility.yul\":22017:22053   */\n      sstore\n        /* \"#utility.yul\":21452:22063   */\n      pop\n      pop\n      pop\n        /* \"#utility.yul\":21415:22302   */\n    tag_344:\n      pop\n        /* \"#utility.yul\":21005:22308   */\n      pop\n      pop\n      pop\n        /* \"#utility.yul\":20913:22308   */\n      pop\n      pop\n      jump\t// out\n        /* \"#utility.yul\":22314:22454   */\n    tag_145:\n        /* \"#utility.yul\":22362:22366   */\n      0x00\n        /* \"#utility.yul\":22385:22388   */\n      dup2\n        /* \"#utility.yul\":22377:22388   */\n      swap1\n      pop\n        /* \"#utility.yul\":22408:22411   */\n      dup2\n        /* \"#utility.yul\":22405:22406   */\n      0x00\n        /* \"#utility.yul\":22398:22412   */\n      mstore\n        /* \"#utility.yul\":22442:22446   */\n      0x20\n        /* \"#utility.yul\":22439:22440   */\n      0x00\n        /* \"#utility.yul\":22429:22447   */\n      keccak256\n        /* \"#utility.yul\":22421:22447   */\n      swap1\n      pop\n        /* \"#utility.yul\":22314:22454   */\n      swap2\n      swap1\n      pop\n      jump\t// out\n        /* \"#utility.yul\":22460:23001   */\n    tag_146:\n        /* \"#utility.yul\":22560:22562   */\n      0x1f\n        /* \"#utility.yul\":22555:22558   */\n      dup3\n        /* \"#utility.yul\":22552:22563   */\n      gt\n        /* \"#utility.yul\":22549:22994   */\n      iszero\n      tag_356\n      jumpi\n        /* \"#utility.yul\":22594:22631   */\n      tag_357\n        /* \"#utility.yul\":22625:22630   */\n      dup2\n        /* \"#utility.yul\":22594:22631   */\n      tag_145\n      jump\t// in\n    tag_357:\n        /* \"#utility.yul\":22677:22706   */\n      tag_358\n        /* \"#utility.yul\":22695:22705   */\n      dup5\n        /* \"#utility.yul\":22677:22706   */\n      tag_132\n      jump\t// in\n    tag_358:\n        /* \"#utility.yul\":22667:22675   */\n      dup2\n        /* \"#utility.yul\":22663:22707   */\n      add\n        /* \"#utility.yul\":22860:22862   */\n      0x20\n        /* \"#utility.yul\":22848:22858   */\n      dup6\n        /* \"#utility.yul\":22845:22863   */\n      lt\n        /* \"#utility.yul\":22842:22891   */\n      iszero\n      tag_359\n      jumpi\n        /* \"#utility.yul\":22881:22889   */\n      dup2\n        /* \"#utility.yul\":22866:22889   */\n      swap1\n      pop\n        /* \"#utility.yul\":22842:22891   */\n    tag_359:\n        /* \"#utility.yul\":22904:22984   */\n      tag_360\n        /* \"#utility.yul\":22960:22982   */\n      tag_361\n        /* \"#utility.yul\":22978:22981   */\n      dup6\n        /* \"#utility.yul\":22960:22982   */\n      tag_132\n      jump\t// in\n    tag_361:\n        /* \"#utility.yul\":22950:22958   */\n      dup4\n        /* \"#utility.yul\":22946:22983   */\n      add\n        /* \"#utility.yul\":22933:22944   */\n      dup3\n        /* \"#utility.yul\":22904:22984   */\n      tag_140\n      jump\t// in\n    tag_360:\n        /* \"#utility.yul\":22564:22994   */\n      pop\n      pop\n        /* \"#utility.yul\":22549:22994   */\n    tag_356:\n        /* \"#utility.yul\":22460:23001   */\n      pop\n      pop\n      pop\n      jump\t// out\n        /* \"#utility.yul\":23007:24397   */\n    tag_74:\n        /* \"#utility.yul\":23122:23158   */\n      tag_363\n        /* \"#utility.yul\":23154:23157   */\n      dup3\n        /* \"#utility.yul\":23122:23158   */\n      tag_85\n      jump\t// in\n    tag_363:\n        /* \"#utility.yul\":23223:23241   */\n      0xffffffffffffffff\n        /* \"#utility.yul\":23215:23221   */\n      dup2\n        /* \"#utility.yul\":23212:23242   */\n      gt\n        /* \"#utility.yul\":23209:23265   */\n      iszero\n      tag_364\n      jumpi\n        /* \"#utility.yul\":23245:23263   */\n      tag_365\n      tag_130\n      jump\t// in\n    tag_365:\n        /* \"#utility.yul\":23209:23265   */\n    tag_364:\n        /* \"#utility.yul\":23289:23327   */\n      tag_366\n        /* \"#utility.yul\":23321:23325   */\n      dup3\n        /* \"#utility.yul\":23315:23326   */\n      sload\n        /* \"#utility.yul\":23289:23327   */\n      tag_33\n      jump\t// in\n    tag_366:\n        /* \"#utility.yul\":23374:23440   */\n      tag_367\n        /* \"#utility.yul\":23433:23439   */\n      dup3\n        /* \"#utility.yul\":23425:23431   */\n      dup3\n        /* \"#utility.yul\":23419:23423   */\n      dup6\n        /* \"#utility.yul\":23374:23440   */\n      tag_146\n      jump\t// in\n    tag_367:\n        /* \"#utility.yul\":23467:23468   */\n      0x00\n        /* \"#utility.yul\":23491:23495   */\n      0x20\n        /* \"#utility.yul\":23478:23495   */\n      swap1\n      pop\n        /* \"#utility.yul\":23523:23525   */\n      0x1f\n        /* \"#utility.yul\":23515:23521   */\n      dup4\n        /* \"#utility.yul\":23512:23526   */\n      gt\n        /* \"#utility.yul\":23540:23541   */\n      0x01\n        /* \"#utility.yul\":23535:24152   */\n      dup2\n      eq\n      tag_369\n      jumpi\n        /* \"#utility.yul\":24196:24197   */\n      0x00\n        /* \"#utility.yul\":24213:24219   */\n      dup5\n        /* \"#utility.yul\":24210:24287   */\n      iszero\n      tag_370\n      jumpi\n        /* \"#utility.yul\":24262:24271   */\n      dup3\n        /* \"#utility.yul\":24257:24260   */\n      dup8\n        /* \"#utility.yul\":24253:24272   */\n      add\n        /* \"#utility.yul\":24247:24273   */\n      mload\n        /* \"#utility.yul\":24238:24273   */\n      swap1\n      pop\n        /* \"#utility.yul\":24210:24287   */\n    tag_370:\n        /* \"#utility.yul\":24313:24380   */\n      tag_371\n        /* \"#utility.yul\":24373:24379   */\n      dup6\n        /* \"#utility.yul\":24366:24371   */\n      dup3\n        /* \"#utility.yul\":24313:24380   */\n      tag_144\n      jump\t// in\n    tag_371:\n        /* \"#utility.yul\":24307:24311   */\n      dup7\n        /* \"#utility.yul\":24300:24381   */\n      sstore\n        /* \"#utility.yul\":24169:24391   */\n      pop\n        /* \"#utility.yul\":23505:24391   */\n      jump(tag_368)\n        /* \"#utility.yul\":23535:24152   */\n    tag_369:\n        /* \"#utility.yul\":23587:23591   */\n      0x1f\n        /* \"#utility.yul\":23583:23592   */\n      not\n        /* \"#utility.yul\":23575:23581   */\n      dup5\n        /* \"#utility.yul\":23571:23593   */\n      and\n        /* \"#utility.yul\":23621:23657   */\n      tag_372\n        /* \"#utility.yul\":23652:23656   */\n      dup7\n        /* \"#utility.yul\":23621:23657   */\n      tag_145\n      jump\t// in\n    tag_372:\n        /* \"#utility.yul\":23679:23680   */\n      0x00\n        /* \"#utility.yul\":23693:23901   */\n    tag_373:\n        /* \"#utility.yul\":23707:23714   */\n      dup3\n        /* \"#utility.yul\":23704:23705   */\n      dup2\n        /* \"#utility.yul\":23701:23715   */\n      lt\n        /* \"#utility.yul\":23693:23901   */\n      iszero\n      tag_375\n      jumpi\n        /* \"#utility.yul\":23786:23795   */\n      dup5\n        /* \"#utility.yul\":23781:23784   */\n      dup10\n        /* \"#utility.yul\":23777:23796   */\n      add\n        /* \"#utility.yul\":23771:23797   */\n      mload\n        /* \"#utility.yul\":23763:23769   */\n      dup3\n        /* \"#utility.yul\":23756:23798   */\n      sstore\n        /* \"#utility.yul\":23837:23838   */\n      0x01\n        /* \"#utility.yul\":23829:23835   */\n      dup3\n        /* \"#utility.yul\":23825:23839   */\n      add\n        /* \"#utility.yul\":23815:23839   */\n      swap2\n      pop\n        /* \"#utility.yul\":23884:23886   */\n      0x20\n        /* \"#utility.yul\":23873:23882   */\n      dup6\n        /* \"#utility.yul\":23869:23887   */\n      add\n        /* \"#utility.yul\":23856:23887   */\n      swap5\n      pop\n        /* \"#utility.yul\":23730:23734   */\n      0x20\n        /* \"#utility.yul\":23727:23728   */\n      dup2\n        /* \"#utility.yul\":23723:23735   */\n      add\n        /* \"#utility.yul\":23718:23735   */\n      swap1\n      pop\n        /* \"#utility.yul\":23693:23901   */\n      jump(tag_373)\n    tag_375:\n        /* \"#utility.yul\":23929:23935   */\n      dup7\n        /* \"#utility.yul\":23920:23927   */\n      dup4\n        /* \"#utility.yul\":23917:23936   */\n      lt\n        /* \"#utility.yul\":23914:24093   */\n      iszero\n      tag_376\n      jumpi\n        /* \"#utility.yul\":23987:23996   */\n      dup5\n        /* \"#utility.yul\":23982:23985   */\n      dup10\n        /* \"#utility.yul\":23978:23997   */\n      add\n        /* \"#utility.yul\":23972:23998   */\n      mload\n        /* \"#utility.yul\":24030:24078   */\n      tag_377\n        /* \"#utility.yul\":24072:24076   */\n      0x1f\n        /* \"#utility.yul\":24064:24070   */\n      dup10\n        /* \"#utility.yul\":24060:24077   */\n      and\n        /* \"#utility.yul\":24049:24058   */\n      dup3\n        /* \"#utility.yul\":24030:24078   */\n      tag_143\n      jump\t// in\n    tag_377:\n        /* \"#utility.yul\":24022:24028   */\n      dup4\n        /* \"#utility.yul\":24015:24079   */\n      sstore\n        /* \"#utility.yul\":23937:24093   */\n      pop\n        /* \"#utility.yul\":23914:24093   */\n    tag_376:\n        /* \"#utility.yul\":24139:24140   */\n      0x01\n        /* \"#utility.yul\":24135:24136   */\n      0x02\n        /* \"#utility.yul\":24127:24133   */\n      dup9\n        /* \"#utility.yul\":24123:24137   */\n      mul\n        /* \"#utility.yul\":24119:24141   */\n      add\n        /* \"#utility.yul\":24113:24117   */\n      dup9\n        /* \"#utility.yul\":24106:24142   */\n      sstore\n        /* \"#utility.yul\":23542:24152   */\n      pop\n      pop\n      pop\n        /* \"#utility.yul\":23505:24391   */\n    tag_368:\n      pop\n        /* \"#utility.yul\":23097:24397   */\n      pop\n      pop\n      pop\n        /* \"#utility.yul\":23007:24397   */\n      pop\n      pop\n      jump\t// out\n        /* \"#utility.yul\":24403:24551   */\n    tag_147:\n        /* \"#utility.yul\":24501:24507   */\n      dup3\n        /* \"#utility.yul\":24496:24499   */\n      dup2\n        /* \"#utility.yul\":24491:24494   */\n      dup4\n        /* \"#utility.yul\":24478:24508   */\n      calldatacopy\n        /* \"#utility.yul\":24542:24543   */\n      0x00\n        /* \"#utility.yul\":24533:24539   */\n      dup4\n        /* \"#utility.yul\":24528:24531   */\n      dup4\n        /* \"#utility.yul\":24524:24540   */\n      add\n        /* \"#utility.yul\":24517:24544   */\n      mstore\n        /* \"#utility.yul\":24403:24551   */\n      pop\n      pop\n      pop\n      jump\t// out\n        /* \"#utility.yul\":24581:24898   */\n    tag_148:\n        /* \"#utility.yul\":24679:24682   */\n      0x00\n        /* \"#utility.yul\":24700:24771   */\n      tag_380\n        /* \"#utility.yul\":24764:24770   */\n      dup4\n        /* \"#utility.yul\":24759:24762   */\n      dup6\n        /* \"#utility.yul\":24700:24771   */\n      tag_116\n      jump\t// in\n    tag_380:\n        /* \"#utility.yul\":24693:24771   */\n      swap4\n      pop\n        /* \"#utility.yul\":24781:24837   */\n      tag_381\n        /* \"#utility.yul\":24830:24836   */\n      dup4\n        /* \"#utility.yul\":24825:24828   */\n      dup6\n        /* \"#utility.yul\":24818:24823   */\n      dup5\n        /* \"#utility.yul\":24781:24837   */\n      tag_147\n      jump\t// in\n    tag_381:\n        /* \"#utility.yul\":24862:24891   */\n      tag_382\n        /* \"#utility.yul\":24884:24890   */\n      dup4\n        /* \"#utility.yul\":24862:24891   */\n      tag_83\n      jump\t// in\n    tag_382:\n        /* \"#utility.yul\":24857:24860   */\n      dup5\n        /* \"#utility.yul\":24853:24892   */\n      add\n        /* \"#utility.yul\":24846:24892   */\n      swap1\n      pop\n        /* \"#utility.yul\":24581:24898   */\n      swap4\n      swap3\n      pop\n      pop\n      pop\n      jump\t// out\n        /* \"#utility.yul\":24904:25022   */\n    tag_149:\n        /* \"#utility.yul\":24991:25015   */\n      tag_384\n        /* \"#utility.yul\":25009:25014   */\n      dup2\n        /* \"#utility.yul\":24991:25015   */\n      tag_91\n      jump\t// in\n    tag_384:\n        /* \"#utility.yul\":24986:24989   */\n      dup3\n        /* \"#utility.yul\":24979:25016   */\n      mstore\n        /* \"#utility.yul\":24904:25022   */\n      pop\n      pop\n      jump\t// out\n        /* \"#utility.yul\":25028:25471   */\n    tag_76:\n        /* \"#utility.yul\":25179:25183   */\n      0x00\n        /* \"#utility.yul\":25217:25219   */\n      0x40\n        /* \"#utility.yul\":25206:25215   */\n      dup3\n        /* \"#utility.yul\":25202:25220   */\n      add\n        /* \"#utility.yul\":25194:25220   */\n      swap1\n      pop\n        /* \"#utility.yul\":25266:25275   */\n      dup2\n        /* \"#utility.yul\":25260:25264   */\n      dup2\n        /* \"#utility.yul\":25256:25276   */\n      sub\n        /* \"#utility.yul\":25252:25253   */\n      0x00\n        /* \"#utility.yul\":25241:25250   */\n      dup4\n        /* \"#utility.yul\":25237:25254   */\n      add\n        /* \"#utility.yul\":25230:25277   */\n      mstore\n        /* \"#utility.yul\":25294:25382   */\n      tag_386\n        /* \"#utility.yul\":25377:25381   */\n      dup2\n        /* \"#utility.yul\":25368:25374   */\n      dup6\n        /* \"#utility.yul\":25360:25366   */\n      dup8\n        /* \"#utility.yul\":25294:25382   */\n      tag_148\n      jump\t// in\n    tag_386:\n        /* \"#utility.yul\":25286:25382   */\n      swap1\n      pop\n        /* \"#utility.yul\":25392:25464   */\n      tag_387\n        /* \"#utility.yul\":25460:25462   */\n      0x20\n        /* \"#utility.yul\":25449:25458   */\n      dup4\n        /* \"#utility.yul\":25445:25463   */\n      add\n        /* \"#utility.yul\":25436:25442   */\n      dup5\n        /* \"#utility.yul\":25392:25464   */\n      tag_149\n      jump\t// in\n    tag_387:\n        /* \"#utility.yul\":25028:25471   */\n      swap5\n      swap4\n      pop\n      pop\n      pop\n      pop\n      jump\t// out\n\n    auxdata: 0xa264697066735822122088af5f6f747ac22c9968f6ad43f2f677d738d9be5b0c6dbabe75e3afd8504f4864736f6c634300081f0033\n}\n",
				"bytecode": {
					"linkReferences": {},
					"object": "60a060405234801561000f575f5ffd5b506040516117ef3803806117ef83398181016040528101906100319190610137565b5f73ffffffffffffffffffffffffffffffffffffffff168173ffffffffffffffffffffffffffffffffffffffff160361009f576040517f08c379a0000000000000000000000000000000000000000000000000000000008152600401610096906101e2565b60405180910390fd5b8073ffffffffffffffffffffffffffffffffffffffff1660808173ffffffffffffffffffffffffffffffffffffffff168152505050610200565b5f5ffd5b5f73ffffffffffffffffffffffffffffffffffffffff82169050919050565b5f610106826100dd565b9050919050565b610116816100fc565b8114610120575f5ffd5b50565b5f815190506101318161010d565b92915050565b5f6020828403121561014c5761014b6100d9565b5b5f61015984828501610123565b91505092915050565b5f82825260208201905092915050565b7f4461746153686172696e673a20556e6775656c746967652041646d696e436f6e5f8201527f74726163742d4164726573736500000000000000000000000000000000000000602082015250565b5f6101cc602d83610162565b91506101d782610172565b604082019050919050565b5f6020820190508181035f8301526101f9816101c0565b9050919050565b6080516115c361022c5f395f8181609f01528181610388015281816103ac015261055f01526115c35ff3fe608060405234801561000f575f5ffd5b506004361061003f575f3560e01c80637c3fe30e14610043578063c05c5e9414610061578063f42691ce1461007f575b5f5ffd5b61004b61009b565b6040516100589190610b04565b60405180910390f35b610069610386565b6040516100769190610b7f565b60405180910390f35b61009960048036038101906100949190610c80565b6103aa565b005b60607f000000000000000000000000000000000000000000000000000000000000000073ffffffffffffffffffffffffffffffffffffffff1663c3c5a547336040518263ffffffff1660e01b81526004016100f69190610d20565b602060405180830381865afa158015610111573d5f5f3e3d5ffd5b505050506040513d601f19601f820116820180604052508101906101359190610d6e565b610174576040517f08c379a000000000000000000000000000000000000000000000000000000000815260040161016b90610e19565b60405180910390fd5b5f5f3373ffffffffffffffffffffffffffffffffffffffff1673ffffffffffffffffffffffffffffffffffffffff1681526020019081526020015f20805480602002602001604051908101604052809291908181526020015f905b8282101561037d578382905f5260205f2090600402016040518060800160405290815f820180546101ff90610e64565b80601f016020809104026020016040519081016040528092919081815260200182805461022b90610e64565b80156102765780601f1061024d57610100808354040283529160200191610276565b820191905f5260205f20905b81548152906001019060200180831161025957829003601f168201915b5050505050815260200160018201805461028f90610e64565b80601f01602080910402602001604051908101604052809291908181526020018280546102bb90610e64565b80156103065780601f106102dd57610100808354040283529160200191610306565b820191905f5260205f20905b8154815290600101906020018083116102e957829003601f168201915b50505050508152602001600282015f9054906101000a900473ffffffffffffffffffffffffffffffffffffffff1673ffffffffffffffffffffffffffffffffffffffff1673ffffffffffffffffffffffffffffffffffffffff168152602001600382015481525050815260200190600101906101cf565b50505050905090565b7f000000000000000000000000000000000000000000000000000000000000000081565b7f000000000000000000000000000000000000000000000000000000000000000073ffffffffffffffffffffffffffffffffffffffff1663c3c5a547336040518263ffffffff1660e01b81526004016104039190610d20565b602060405180830381865afa15801561041e573d5f5f3e3d5ffd5b505050506040513d601f19601f820116820180604052508101906104429190610d6e565b610481576040517f08c379a000000000000000000000000000000000000000000000000000000000815260040161047890610e19565b60405180910390fd5b5f73ffffffffffffffffffffffffffffffffffffffff168573ffffffffffffffffffffffffffffffffffffffff16036104ef576040517f08c379a00000000000000000000000000000000000000000000000000000000081526004016104e690610f04565b60405180910390fd5b3373ffffffffffffffffffffffffffffffffffffffff168573ffffffffffffffffffffffffffffffffffffffff160361055d576040517f08c379a000000000000000000000000000000000000000000000000000000000815260040161055490610f92565b60405180910390fd5b7f000000000000000000000000000000000000000000000000000000000000000073ffffffffffffffffffffffffffffffffffffffff1663c3c5a547866040518263ffffffff1660e01b81526004016105b69190610d20565b602060405180830381865afa1580156105d1573d5f5f3e3d5ffd5b505050506040513d601f19601f820116820180604052508101906105f59190610d6e565b610634576040517f08c379a000000000000000000000000000000000000000000000000000000000815260040161062b90611020565b60405180910390fd5b5f8484905011610679576040517f08c379a0000000000000000000000000000000000000000000000000000000008152600401610670906110ae565b60405180910390fd5b5f82829050116106be576040517f08c379a00000000000000000000000000000000000000000000000000000000081526004016106b59061113c565b60405180910390fd5b5f5f8673ffffffffffffffffffffffffffffffffffffffff1673ffffffffffffffffffffffffffffffffffffffff1681526020019081526020015f20604051806080016040528086868080601f0160208091040260200160405190810160405280939291908181526020018383808284375f81840152601f19601f82011690508083019250505050505050815260200184848080601f0160208091040260200160405190810160405280939291908181526020018383808284375f81840152601f19601f8201169050808301925050505050505081526020013373ffffffffffffffffffffffffffffffffffffffff16815260200142815250908060018154018082558091505060019003905f5260205f2090600402015f909190919091505f820151815f0190816107f0919061131e565b5060208201518160010190816108069190611445565b506040820151816002015f6101000a81548173ffffffffffffffffffffffffffffffffffffffff021916908373ffffffffffffffffffffffffffffffffffffffff1602179055506060820151816003015550508473ffffffffffffffffffffffffffffffffffffffff163373ffffffffffffffffffffffffffffffffffffffff167f9075ebf5f39f05ecd4f5733cd6641a00639543399164e6719fd2b8d4c5f48ff48686426040516108ba9392919061155d565b60405180910390a35050505050565b5f81519050919050565b5f82825260208201905092915050565b5f819050602082019050919050565b5f81519050919050565b5f82825260208201905092915050565b8281835e5f83830152505050565b5f601f19601f8301169050919050565b5f610934826108f2565b61093e81856108fc565b935061094e81856020860161090c565b6109578161091a565b840191505092915050565b5f81519050919050565b5f82825260208201905092915050565b5f61098682610962565b610990818561096c565b93506109a081856020860161090c565b6109a98161091a565b840191505092915050565b5f73ffffffffffffffffffffffffffffffffffffffff82169050919050565b5f6109dd826109b4565b9050919050565b6109ed816109d3565b82525050565b5f819050919050565b610a05816109f3565b82525050565b5f608083015f8301518482035f860152610a25828261092a565b91505060208301518482036020860152610a3f828261097c565b9150506040830151610a5460408601826109e4565b506060830151610a6760608601826109fc565b508091505092915050565b5f610a7d8383610a0b565b905092915050565b5f602082019050919050565b5f610a9b826108c9565b610aa581856108d3565b935083602082028501610ab7856108e3565b805f5b85811015610af25784840389528151610ad38582610a72565b9450610ade83610a85565b925060208a01995050600181019050610aba565b50829750879550505050505092915050565b5f6020820190508181035f830152610b1c8184610a91565b905092915050565b5f819050919050565b5f610b47610b42610b3d846109b4565b610b24565b6109b4565b9050919050565b5f610b5882610b2d565b9050919050565b5f610b6982610b4e565b9050919050565b610b7981610b5f565b82525050565b5f602082019050610b925f830184610b70565b92915050565b5f5ffd5b5f5ffd5b610ba9816109d3565b8114610bb3575f5ffd5b50565b5f81359050610bc481610ba0565b92915050565b5f5ffd5b5f5ffd5b5f5ffd5b5f5f83601f840112610beb57610bea610bca565b5b8235905067ffffffffffffffff811115610c0857610c07610bce565b5b602083019150836001820283011115610c2457610c23610bd2565b5b9250929050565b5f5f83601f840112610c4057610c3f610bca565b5b8235905067ffffffffffffffff811115610c5d57610c5c610bce565b5b602083019150836001820283011115610c7957610c78610bd2565b5b9250929050565b5f5f5f5f5f60608688031215610c9957610c98610b98565b5b5f610ca688828901610bb6565b955050602086013567ffffffffffffffff811115610cc757610cc6610b9c565b5b610cd388828901610bd6565b9450945050604086013567ffffffffffffffff811115610cf657610cf5610b9c565b5b610d0288828901610c2b565b92509250509295509295909350565b610d1a816109d3565b82525050565b5f602082019050610d335f830184610d11565b92915050565b5f8115159050919050565b610d4d81610d39565b8114610d57575f5ffd5b50565b5f81519050610d6881610d44565b92915050565b5f60208284031215610d8357610d82610b98565b5b5f610d9084828501610d5a565b91505092915050565b5f82825260208201905092915050565b7f4461746153686172696e673a206d73672e73656e64657220697374206e6963685f8201527f7420726567697374726965727400000000000000000000000000000000000000602082015250565b5f610e03602d83610d99565b9150610e0e82610da9565b604082019050919050565b5f6020820190508181035f830152610e3081610df7565b9050919050565b7f4e487b71000000000000000000000000000000000000000000000000000000005f52602260045260245ffd5b5f6002820490506001821680610e7b57607f821691505b602082108103610e8e57610e8d610e37565b5b50919050565b7f4461746153686172696e673a20556e6775656c7469676520456d706661656e675f8201527f65722d4164726573736500000000000000000000000000000000000000000000602082015250565b5f610eee602a83610d99565b9150610ef982610e94565b604082019050919050565b5f6020820190508181035f830152610f1b81610ee2565b9050919050565b7f4461746153686172696e673a2053656e64657220756e6420456d706661656e675f8201527f6572206964656e74697363680000000000000000000000000000000000000000602082015250565b5f610f7c602c83610d99565b9150610f8782610f22565b604082019050919050565b5f6020820190508181035f830152610fa981610f70565b9050919050565b7f4461746153686172696e673a20456d706661656e676572206e696368742072655f8201527f6769737472696572740000000000000000000000000000000000000000000000602082015250565b5f61100a602983610d99565b915061101582610fb0565b604082019050919050565b5f6020820190508181035f83015261103781610ffe565b9050919050565b7f4461746153686172696e673a204349442064617266206e69636874206c6565725f8201527f207365696e000000000000000000000000000000000000000000000000000000602082015250565b5f611098602583610d99565b91506110a38261103e565b604082019050919050565b5f6020820190508181035f8301526110c58161108c565b9050919050565b7f4461746153686172696e673a205665727363686c2e205363686c75657373656c5f8201527f2064617266206e69636874206c656572207365696e0000000000000000000000602082015250565b5f611126603583610d99565b9150611131826110cc565b604082019050919050565b5f6020820190508181035f8301526111538161111a565b9050919050565b7f4e487b71000000000000000000000000000000000000000000000000000000005f52604160045260245ffd5b5f819050815f5260205f209050919050565b5f6020601f8301049050919050565b5f82821b905092915050565b5f600883026111e37fffffffffffffffffffffffffffffffffffffffffffffffffffffffffffffffff826111a8565b6111ed86836111a8565b95508019841693508086168417925050509392505050565b5f61121f61121a611215846109f3565b610b24565b6109f3565b9050919050565b5f819050919050565b61123883611205565b61124c61124482611226565b8484546111b4565b825550505050565b5f5f905090565b611263611254565b61126e81848461122f565b505050565b5b81811015611291576112865f8261125b565b600181019050611274565b5050565b601f8211156112d6576112a781611187565b6112b084611199565b810160208510156112bf578190505b6112d36112cb85611199565b830182611273565b50505b505050565b5f82821c905092915050565b5f6112f65f19846008026112db565b1980831691505092915050565b5f61130e83836112e7565b9150826002028217905092915050565b611327826108f2565b67ffffffffffffffff8111156113405761133f61115a565b5b61134a8254610e64565b611355828285611295565b5f60209050601f831160018114611386575f8415611374578287015190505b61137e8582611303565b8655506113e5565b601f19841661139486611187565b5f5b828110156113bb57848901518255600182019150602085019450602081019050611396565b868310156113d857848901516113d4601f8916826112e7565b8355505b6001600288020188555050505b505050505050565b5f819050815f5260205f209050919050565b601f82111561144057611411816113ed565b61141a84611199565b81016020851015611429578190505b61143d61143585611199565b830182611273565b50505b505050565b61144e82610962565b67ffffffffffffffff8111156114675761146661115a565b5b6114718254610e64565b61147c8282856113ff565b5f60209050601f8311600181146114ad575f841561149b578287015190505b6114a58582611303565b86555061150c565b601f1984166114bb866113ed565b5f5b828110156114e2578489015182556001820191506020850194506020810190506114bd565b868310156114ff57848901516114fb601f8916826112e7565b8355505b6001600288020188555050505b505050505050565b828183375f83830152505050565b5f61152d8385610d99565b935061153a838584611514565b6115438361091a565b840190509392505050565b611557816109f3565b82525050565b5f6040820190508181035f830152611576818587611522565b9050611585602083018461154e565b94935050505056fea264697066735822122088af5f6f747ac22c9968f6ad43f2f677d738d9be5b0c6dbabe75e3afd8504f4864736f6c634300081f0033",
					"opcodes": "PUSH1 0xA0 PUSH1 0x40 MSTORE CALLVALUE DUP1 ISZERO PUSH2 0xF JUMPI PUSH0 PUSH0 REVERT JUMPDEST POP PUSH1 0x40 MLOAD PUSH2 0x17EF CODESIZE SUB DUP1 PUSH2 0x17EF DUP4 CODECOPY DUP2 DUP2 ADD PUSH1 0x40 MSTORE DUP2 ADD SWAP1 PUSH2 0x31 SWAP2 SWAP1 PUSH2 0x137 JUMP JUMPDEST PUSH0 PUSH20 0xFFFFFFFFFFFFFFFFFFFFFFFFFFFFFFFFFFFFFFFF AND DUP2 PUSH20 0xFFFFFFFFFFFFFFFFFFFFFFFFFFFFFFFFFFFFFFFF AND SUB PUSH2 0x9F JUMPI PUSH1 0x40 MLOAD PUSH32 0x8C379A000000000000000000000000000000000000000000000000000000000 DUP2 MSTORE PUSH1 0x4 ADD PUSH2 0x96 SWAP1 PUSH2 0x1E2 JUMP JUMPDEST PUSH1 0x40 MLOAD DUP1 SWAP2 SUB SWAP1 REVERT JUMPDEST DUP1 PUSH20 0xFFFFFFFFFFFFFFFFFFFFFFFFFFFFFFFFFFFFFFFF AND PUSH1 0x80 DUP2 PUSH20 0xFFFFFFFFFFFFFFFFFFFFFFFFFFFFFFFFFFFFFFFF AND DUP2 MSTORE POP POP POP PUSH2 0x200 JUMP JUMPDEST PUSH0 PUSH0 REVERT JUMPDEST PUSH0 PUSH20 0xFFFFFFFFFFFFFFFFFFFFFFFFFFFFFFFFFFFFFFFF DUP3 AND SWAP1 POP SWAP2 SWAP1 POP JUMP JUMPDEST PUSH0 PUSH2 0x106 DUP3 PUSH2 0xDD JUMP JUMPDEST SWAP1 POP SWAP2 SWAP1 POP JUMP JUMPDEST PUSH2 0x116 DUP2 PUSH2 0xFC JUMP JUMPDEST DUP2 EQ PUSH2 0x120 JUMPI PUSH0 PUSH0 REVERT JUMPDEST POP JUMP JUMPDEST PUSH0 DUP2 MLOAD SWAP1 POP PUSH2 0x131 DUP2 PUSH2 0x10D JUMP JUMPDEST SWAP3 SWAP2 POP POP JUMP JUMPDEST PUSH0 PUSH1 0x20 DUP3 DUP5 SUB SLT ISZERO PUSH2 0x14C JUMPI PUSH2 0x14B PUSH2 0xD9 JUMP JUMPDEST JUMPDEST PUSH0 PUSH2 0x159 DUP5 DUP3 DUP6 ADD PUSH2 0x123 JUMP JUMPDEST SWAP2 POP POP SWAP3 SWAP2 POP POP JUMP JUMPDEST PUSH0 DUP3 DUP3 MSTORE PUSH1 0x20 DUP3 ADD SWAP1 POP SWAP3 SWAP2 POP POP JUMP JUMPDEST PUSH32 0x4461746153686172696E673A20556E6775656C746967652041646D696E436F6E PUSH0 DUP3 ADD MSTORE PUSH32 0x74726163742D4164726573736500000000000000000000000000000000000000 PUSH1 0x20 DUP3 ADD MSTORE POP JUMP JUMPDEST PUSH0 PUSH2 0x1CC PUSH1 0x2D DUP4 PUSH2 0x162 JUMP JUMPDEST SWAP2 POP PUSH2 0x1D7 DUP3 PUSH2 0x172 JUMP JUMPDEST PUSH1 0x40 DUP3 ADD SWAP1 POP SWAP2 SWAP1 POP JUMP JUMPDEST PUSH0 PUSH1 0x20 DUP3 ADD SWAP1 POP DUP2 DUP2 SUB PUSH0 DUP4 ADD MSTORE PUSH2 0x1F9 DUP2 PUSH2 0x1C0 JUMP JUMPDEST SWAP1 POP SWAP2 SWAP1 POP JUMP JUMPDEST PUSH1 0x80 MLOAD PUSH2 0x15C3 PUSH2 0x22C PUSH0 CODECOPY PUSH0 DUP2 DUP2 PUSH1 0x9F ADD MSTORE DUP2 DUP2 PUSH2 0x388 ADD MSTORE DUP2 DUP2 PUSH2 0x3AC ADD MSTORE PUSH2 0x55F ADD MSTORE PUSH2 0x15C3 PUSH0 RETURN INVALID PUSH1 0x80 PUSH1 0x40 MSTORE CALLVALUE DUP1 ISZERO PUSH2 0xF JUMPI PUSH0 PUSH0 REVERT JUMPDEST POP PUSH1 0x4 CALLDATASIZE LT PUSH2 0x3F JUMPI PUSH0 CALLDATALOAD PUSH1 0xE0 SHR DUP1 PUSH4 0x7C3FE30E EQ PUSH2 0x43 JUMPI DUP1 PUSH4 0xC05C5E94 EQ PUSH2 0x61 JUMPI DUP1 PUSH4 0xF42691CE EQ PUSH2 0x7F JUMPI JUMPDEST PUSH0 PUSH0 REVERT JUMPDEST PUSH2 0x4B PUSH2 0x9B JUMP JUMPDEST PUSH1 0x40 MLOAD PUSH2 0x58 SWAP2 SWAP1 PUSH2 0xB04 JUMP JUMPDEST PUSH1 0x40 MLOAD DUP1 SWAP2 SUB SWAP1 RETURN JUMPDEST PUSH2 0x69 PUSH2 0x386 JUMP JUMPDEST PUSH1 0x40 MLOAD PUSH2 0x76 SWAP2 SWAP1 PUSH2 0xB7F JUMP JUMPDEST PUSH1 0x40 MLOAD DUP1 SWAP2 SUB SWAP1 RETURN JUMPDEST PUSH2 0x99 PUSH1 0x4 DUP1 CALLDATASIZE SUB DUP2 ADD SWAP1 PUSH2 0x94 SWAP2 SWAP1 PUSH2 0xC80 JUMP JUMPDEST PUSH2 0x3AA JUMP JUMPDEST STOP JUMPDEST PUSH1 0x60 PUSH32 0x0 PUSH20 0xFFFFFFFFFFFFFFFFFFFFFFFFFFFFFFFFFFFFFFFF AND PUSH4 0xC3C5A547 CALLER PUSH1 0x40 MLOAD DUP3 PUSH4 0xFFFFFFFF AND PUSH1 0xE0 SHL DUP2 MSTORE PUSH1 0x4 ADD PUSH2 0xF6 SWAP2 SWAP1 PUSH2 0xD20 JUMP JUMPDEST PUSH1 0x20 PUSH1 0x40 MLOAD DUP1 DUP4 SUB DUP2 DUP7 GAS STATICCALL ISZERO DUP1 ISZERO PUSH2 0x111 JUMPI RETURNDATASIZE PUSH0 PUSH0 RETURNDATACOPY RETURNDATASIZE PUSH0 REVERT JUMPDEST POP POP POP POP PUSH1 0x40 MLOAD RETURNDATASIZE PUSH1 0x1F NOT PUSH1 0x1F DUP3 ADD AND DUP3 ADD DUP1 PUSH1 0x40 MSTORE POP DUP2 ADD SWAP1 PUSH2 0x135 SWAP2 SWAP1 PUSH2 0xD6E JUMP JUMPDEST PUSH2 0x174 JUMPI PUSH1 0x40 MLOAD PUSH32 0x8C379A000000000000000000000000000000000000000000000000000000000 DUP2 MSTORE PUSH1 0x4 ADD PUSH2 0x16B SWAP1 PUSH2 0xE19 JUMP JUMPDEST PUSH1 0x40 MLOAD DUP1 SWAP2 SUB SWAP1 REVERT JUMPDEST PUSH0 PUSH0 CALLER PUSH20 0xFFFFFFFFFFFFFFFFFFFFFFFFFFFFFFFFFFFFFFFF AND PUSH20 0xFFFFFFFFFFFFFFFFFFFFFFFFFFFFFFFFFFFFFFFF AND DUP2 MSTORE PUSH1 0x20 ADD SWAP1 DUP2 MSTORE PUSH1 0x20 ADD PUSH0 KECCAK256 DUP1 SLOAD DUP1 PUSH1 0x20 MUL PUSH1 0x20 ADD PUSH1 0x40 MLOAD SWAP1 DUP2 ADD PUSH1 0x40 MSTORE DUP1 SWAP3 SWAP2 SWAP1 DUP2 DUP2 MSTORE PUSH1 0x20 ADD PUSH0 SWAP1 JUMPDEST DUP3 DUP3 LT ISZERO PUSH2 0x37D JUMPI DUP4 DUP3 SWAP1 PUSH0 MSTORE PUSH1 0x20 PUSH0 KECCAK256 SWAP1 PUSH1 0x4 MUL ADD PUSH1 0x40 MLOAD DUP1 PUSH1 0x80 ADD PUSH1 0x40 MSTORE SWAP1 DUP2 PUSH0 DUP3 ADD DUP1 SLOAD PUSH2 0x1FF SWAP1 PUSH2 0xE64 JUMP JUMPDEST DUP1 PUSH1 0x1F ADD PUSH1 0x20 DUP1 SWAP2 DIV MUL PUSH1 0x20 ADD PUSH1 0x40 MLOAD SWAP1 DUP2 ADD PUSH1 0x40 MSTORE DUP1 SWAP3 SWAP2 SWAP1 DUP2 DUP2 MSTORE PUSH1 0x20 ADD DUP3 DUP1 SLOAD PUSH2 0x22B SWAP1 PUSH2 0xE64 JUMP JUMPDEST DUP1 ISZERO PUSH2 0x276 JUMPI DUP1 PUSH1 0x1F LT PUSH2 0x24D JUMPI PUSH2 0x100 DUP1 DUP4 SLOAD DIV MUL DUP4 MSTORE SWAP2 PUSH1 0x20 ADD SWAP2 PUSH2 0x276 JUMP JUMPDEST DUP3 ADD SWAP2 SWAP1 PUSH0 MSTORE PUSH1 0x20 PUSH0 KECCAK256 SWAP1 JUMPDEST DUP2 SLOAD DUP2 MSTORE SWAP1 PUSH1 0x1 ADD SWAP1 PUSH1 0x20 ADD DUP1 DUP4 GT PUSH2 0x259 JUMPI DUP3 SWAP1 SUB PUSH1 0x1F AND DUP3 ADD SWAP2 JUMPDEST POP POP POP POP POP DUP2 MSTORE PUSH1 0x20 ADD PUSH1 0x1 DUP3 ADD DUP1 SLOAD PUSH2 0x28F SWAP1 PUSH2 0xE64 JUMP JUMPDEST DUP1 PUSH1 0x1F ADD PUSH1 0x20 DUP1 SWAP2 DIV MUL PUSH1 0x20 ADD PUSH1 0x40 MLOAD SWAP1 DUP2 ADD PUSH1 0x40 MSTORE DUP1 SWAP3 SWAP2 SWAP1 DUP2 DUP2 MSTORE PUSH1 0x20 ADD DUP3 DUP1 SLOAD PUSH2 0x2BB SWAP1 PUSH2 0xE64 JUMP JUMPDEST DUP1 ISZERO PUSH2 0x306 JUMPI DUP1 PUSH1 0x1F LT PUSH2 0x2DD JUMPI PUSH2 0x100 DUP1 DUP4 SLOAD DIV MUL DUP4 MSTORE SWAP2 PUSH1 0x20 ADD SWAP2 PUSH2 0x306 JUMP JUMPDEST DUP3 ADD SWAP2 SWAP1 PUSH0 MSTORE PUSH1 0x20 PUSH0 KECCAK256 SWAP1 JUMPDEST DUP2 SLOAD DUP2 MSTORE SWAP1 PUSH1 0x1 ADD SWAP1 PUSH1 0x20 ADD DUP1 DUP4 GT PUSH2 0x2E9 JUMPI DUP3 SWAP1 SUB PUSH1 0x1F AND DUP3 ADD SWAP2 JUMPDEST POP POP POP POP POP DUP2 MSTORE PUSH1 0x20 ADD PUSH1 0x2 DUP3 ADD PUSH0 SWAP1 SLOAD SWAP1 PUSH2 0x100 EXP SWAP1 DIV PUSH20 0xFFFFFFFFFFFFFFFFFFFFFFFFFFFFFFFFFFFFFFFF AND PUSH20 0xFFFFFFFFFFFFFFFFFFFFFFFFFFFFFFFFFFFFFFFF AND PUSH20 0xFFFFFFFFFFFFFFFFFFFFFFFFFFFFFFFFFFFFFFFF AND DUP2 MSTORE PUSH1 0x20 ADD PUSH1 0x3 DUP3 ADD SLOAD DUP2 MSTORE POP POP DUP2 MSTORE PUSH1 0x20 ADD SWAP1 PUSH1 0x1 ADD SWAP1 PUSH2 0x1CF JUMP JUMPDEST POP POP POP POP SWAP1 POP SWAP1 JUMP JUMPDEST PUSH32 0x0 DUP2 JUMP JUMPDEST PUSH32 0x0 PUSH20 0xFFFFFFFFFFFFFFFFFFFFFFFFFFFFFFFFFFFFFFFF AND PUSH4 0xC3C5A547 CALLER PUSH1 0x40 MLOAD DUP3 PUSH4 0xFFFFFFFF AND PUSH1 0xE0 SHL DUP2 MSTORE PUSH1 0x4 ADD PUSH2 0x403 SWAP2 SWAP1 PUSH2 0xD20 JUMP JUMPDEST PUSH1 0x20 PUSH1 0x40 MLOAD DUP1 DUP4 SUB DUP2 DUP7 GAS STATICCALL ISZERO DUP1 ISZERO PUSH2 0x41E JUMPI RETURNDATASIZE PUSH0 PUSH0 RETURNDATACOPY RETURNDATASIZE PUSH0 REVERT JUMPDEST POP POP POP POP PUSH1 0x40 MLOAD RETURNDATASIZE PUSH1 0x1F NOT PUSH1 0x1F DUP3 ADD AND DUP3 ADD DUP1 PUSH1 0x40 MSTORE POP DUP2 ADD SWAP1 PUSH2 0x442 SWAP2 SWAP1 PUSH2 0xD6E JUMP JUMPDEST PUSH2 0x481 JUMPI PUSH1 0x40 MLOAD PUSH32 0x8C379A000000000000000000000000000000000000000000000000000000000 DUP2 MSTORE PUSH1 0x4 ADD PUSH2 0x478 SWAP1 PUSH2 0xE19 JUMP JUMPDEST PUSH1 0x40 MLOAD DUP1 SWAP2 SUB SWAP1 REVERT JUMPDEST PUSH0 PUSH20 0xFFFFFFFFFFFFFFFFFFFFFFFFFFFFFFFFFFFFFFFF AND DUP6 PUSH20 0xFFFFFFFFFFFFFFFFFFFFFFFFFFFFFFFFFFFFFFFF AND SUB PUSH2 0x4EF JUMPI PUSH1 0x40 MLOAD PUSH32 0x8C379A000000000000000000000000000000000000000000000000000000000 DUP2 MSTORE PUSH1 0x4 ADD PUSH2 0x4E6 SWAP1 PUSH2 0xF04 JUMP JUMPDEST PUSH1 0x40 MLOAD DUP1 SWAP2 SUB SWAP1 REVERT JUMPDEST CALLER PUSH20 0xFFFFFFFFFFFFFFFFFFFFFFFFFFFFFFFFFFFFFFFF AND DUP6 PUSH20 0xFFFFFFFFFFFFFFFFFFFFFFFFFFFFFFFFFFFFFFFF AND SUB PUSH2 0x55D JUMPI PUSH1 0x40 MLOAD PUSH32 0x8C379A000000000000000000000000000000000000000000000000000000000 DUP2 MSTORE PUSH1 0x4 ADD PUSH2 0x554 SWAP1 PUSH2 0xF92 JUMP JUMPDEST PUSH1 0x40 MLOAD DUP1 SWAP2 SUB SWAP1 REVERT JUMPDEST PUSH32 0x0 PUSH20 0xFFFFFFFFFFFFFFFFFFFFFFFFFFFFFFFFFFFFFFFF AND PUSH4 0xC3C5A547 DUP7 PUSH1 0x40 MLOAD DUP3 PUSH4 0xFFFFFFFF AND PUSH1 0xE0 SHL DUP2 MSTORE PUSH1 0x4 ADD PUSH2 0x5B6 SWAP2 SWAP1 PUSH2 0xD20 JUMP JUMPDEST PUSH1 0x20 PUSH1 0x40 MLOAD DUP1 DUP4 SUB DUP2 DUP7 GAS STATICCALL ISZERO DUP1 ISZERO PUSH2 0x5D1 JUMPI RETURNDATASIZE PUSH0 PUSH0 RETURNDATACOPY RETURNDATASIZE PUSH0 REVERT JUMPDEST POP POP POP POP PUSH1 0x40 MLOAD RETURNDATASIZE PUSH1 0x1F NOT PUSH1 0x1F DUP3 ADD AND DUP3 ADD DUP1 PUSH1 0x40 MSTORE POP DUP2 ADD SWAP1 PUSH2 0x5F5 SWAP2 SWAP1 PUSH2 0xD6E JUMP JUMPDEST PUSH2 0x634 JUMPI PUSH1 0x40 MLOAD PUSH32 0x8C379A000000000000000000000000000000000000000000000000000000000 DUP2 MSTORE PUSH1 0x4 ADD PUSH2 0x62B SWAP1 PUSH2 0x1020 JUMP JUMPDEST PUSH1 0x40 MLOAD DUP1 SWAP2 SUB SWAP1 REVERT JUMPDEST PUSH0 DUP5 DUP5 SWAP1 POP GT PUSH2 0x679 JUMPI PUSH1 0x40 MLOAD PUSH32 0x8C379A000000000000000000000000000000000000000000000000000000000 DUP2 MSTORE PUSH1 0x4 ADD PUSH2 0x670 SWAP1 PUSH2 0x10AE JUMP JUMPDEST PUSH1 0x40 MLOAD DUP1 SWAP2 SUB SWAP1 REVERT JUMPDEST PUSH0 DUP3 DUP3 SWAP1 POP GT PUSH2 0x6BE JUMPI PUSH1 0x40 MLOAD PUSH32 0x8C379A000000000000000000000000000000000000000000000000000000000 DUP2 MSTORE PUSH1 0x4 ADD PUSH2 0x6B5 SWAP1 PUSH2 0x113C JUMP JUMPDEST PUSH1 0x40 MLOAD DUP1 SWAP2 SUB SWAP1 REVERT JUMPDEST PUSH0 PUSH0 DUP7 PUSH20 0xFFFFFFFFFFFFFFFFFFFFFFFFFFFFFFFFFFFFFFFF AND PUSH20 0xFFFFFFFFFFFFFFFFFFFFFFFFFFFFFFFFFFFFFFFF AND DUP2 MSTORE PUSH1 0x20 ADD SWAP1 DUP2 MSTORE PUSH1 0x20 ADD PUSH0 KECCAK256 PUSH1 0x40 MLOAD DUP1 PUSH1 0x80 ADD PUSH1 0x40 MSTORE DUP1 DUP7 DUP7 DUP1 DUP1 PUSH1 0x1F ADD PUSH1 0x20 DUP1 SWAP2 DIV MUL PUSH1 0x20 ADD PUSH1 0x40 MLOAD SWAP1 DUP2 ADD PUSH1 0x40 MSTORE DUP1 SWAP4 SWAP3 SWAP2 SWAP1 DUP2 DUP2 MSTORE PUSH1 0x20 ADD DUP4 DUP4 DUP1 DUP3 DUP5 CALLDATACOPY PUSH0 DUP2 DUP5 ADD MSTORE PUSH1 0x1F NOT PUSH1 0x1F DUP3 ADD AND SWAP1 POP DUP1 DUP4 ADD SWAP3 POP POP POP POP POP POP POP DUP2 MSTORE PUSH1 0x20 ADD DUP5 DUP5 DUP1 DUP1 PUSH1 0x1F ADD PUSH1 0x20 DUP1 SWAP2 DIV MUL PUSH1 0x20 ADD PUSH1 0x40 MLOAD SWAP1 DUP2 ADD PUSH1 0x40 MSTORE DUP1 SWAP4 SWAP3 SWAP2 SWAP1 DUP2 DUP2 MSTORE PUSH1 0x20 ADD DUP4 DUP4 DUP1 DUP3 DUP5 CALLDATACOPY PUSH0 DUP2 DUP5 ADD MSTORE PUSH1 0x1F NOT PUSH1 0x1F DUP3 ADD AND SWAP1 POP DUP1 DUP4 ADD SWAP3 POP POP POP POP POP POP POP DUP2 MSTORE PUSH1 0x20 ADD CALLER PUSH20 0xFFFFFFFFFFFFFFFFFFFFFFFFFFFFFFFFFFFFFFFF AND DUP2 MSTORE PUSH1 0x20 ADD TIMESTAMP DUP2 MSTORE POP SWAP1 DUP1 PUSH1 0x1 DUP2 SLOAD ADD DUP1 DUP3 SSTORE DUP1 SWAP2 POP POP PUSH1 0x1 SWAP1 SUB SWAP1 PUSH0 MSTORE PUSH1 0x20 PUSH0 KECCAK256 SWAP1 PUSH1 0x4 MUL ADD PUSH0 SWAP1 SWAP2 SWAP1 SWAP2 SWAP1 SWAP2 POP PUSH0 DUP3 ADD MLOAD DUP2 PUSH0 ADD SWAP1 DUP2 PUSH2 0x7F0 SWAP2 SWAP1 PUSH2 0x131E JUMP JUMPDEST POP PUSH1 0x20 DUP3 ADD MLOAD DUP2 PUSH1 0x1 ADD SWAP1 DUP2 PUSH2 0x806 SWAP2 SWAP1 PUSH2 0x1445 JUMP JUMPDEST POP PUSH1 0x40 DUP3 ADD MLOAD DUP2 PUSH1 0x2 ADD PUSH0 PUSH2 0x100 EXP DUP2 SLOAD DUP2 PUSH20 0xFFFFFFFFFFFFFFFFFFFFFFFFFFFFFFFFFFFFFFFF MUL NOT AND SWAP1 DUP4 PUSH20 0xFFFFFFFFFFFFFFFFFFFFFFFFFFFFFFFFFFFFFFFF AND MUL OR SWAP1 SSTORE POP PUSH1 0x60 DUP3 ADD MLOAD DUP2 PUSH1 0x3 ADD SSTORE POP POP DUP5 PUSH20 0xFFFFFFFFFFFFFFFFFFFFFFFFFFFFFFFFFFFFFFFF AND CALLER PUSH20 0xFFFFFFFFFFFFFFFFFFFFFFFFFFFFFFFFFFFFFFFF AND PUSH32 0x9075EBF5F39F05ECD4F5733CD6641A00639543399164E6719FD2B8D4C5F48FF4 DUP7 DUP7 TIMESTAMP PUSH1 0x40 MLOAD PUSH2 0x8BA SWAP4 SWAP3 SWAP2 SWAP1 PUSH2 0x155D JUMP JUMPDEST PUSH1 0x40 MLOAD DUP1 SWAP2 SUB SWAP1 LOG3 POP POP POP POP POP JUMP JUMPDEST PUSH0 DUP2 MLOAD SWAP1 POP SWAP2 SWAP1 POP JUMP JUMPDEST PUSH0 DUP3 DUP3 MSTORE PUSH1 0x20 DUP3 ADD SWAP1 POP SWAP3 SWAP2 POP POP JUMP JUMPDEST PUSH0 DUP2 SWAP1 POP PUSH1 0x20 DUP3 ADD SWAP1 POP SWAP2 SWAP1 POP JUMP JUMPDEST PUSH0 DUP2 MLOAD SWAP1 POP SWAP2 SWAP1 POP JUMP JUMPDEST PUSH0 DUP3 DUP3 MSTORE PUSH1 0x20 DUP3 ADD SWAP1 POP SWAP3 SWAP2 POP POP JUMP JUMPDEST DUP3 DUP2 DUP4 MCOPY PUSH0 DUP4 DUP4 ADD MSTORE POP POP POP JUMP JUMPDEST PUSH0 PUSH1 0x1F NOT PUSH1 0x1F DUP4 ADD AND SWAP1 POP SWAP2 SWAP1 POP JUMP JUMPDEST PUSH0 PUSH2 0x934 DUP3 PUSH2 0x8F2 JUMP JUMPDEST PUSH2 0x93E DUP2 DUP6 PUSH2 0x8FC JUMP JUMPDEST SWAP4 POP PUSH2 0x94E DUP2 DUP6 PUSH1 0x20 DUP7 ADD PUSH2 0x90C JUMP JUMPDEST PUSH2 0x957 DUP2 PUSH2 0x91A JUMP JUMPDEST DUP5 ADD SWAP2 POP POP SWAP3 SWAP2 POP POP JUMP JUMPDEST PUSH0 DUP2 MLOAD SWAP1 POP SWAP2 SWAP1 POP JUMP JUMPDEST PUSH0 DUP3 DUP3 MSTORE PUSH1 0x20 DUP3 ADD SWAP1 POP SWAP3 SWAP2 POP POP JUMP JUMPDEST PUSH0 PUSH2 0x986 DUP3 PUSH2 0x962 JUMP JUMPDEST PUSH2 0x990 DUP2 DUP6 PUSH2 0x96C JUMP JUMPDEST SWAP4 POP PUSH2 0x9A0 DUP2 DUP6 PUSH1 0x20 DUP7 ADD PUSH2 0x90C JUMP JUMPDEST PUSH2 0x9A9 DUP2 PUSH2 0x91A JUMP JUMPDEST DUP5 ADD SWAP2 POP POP SWAP3 SWAP2 POP POP JUMP JUMPDEST PUSH0 PUSH20 0xFFFFFFFFFFFFFFFFFFFFFFFFFFFFFFFFFFFFFFFF DUP3 AND SWAP1 POP SWAP2 SWAP1 POP JUMP JUMPDEST PUSH0 PUSH2 0x9DD DUP3 PUSH2 0x9B4 JUMP JUMPDEST SWAP1 POP SWAP2 SWAP1 POP JUMP JUMPDEST PUSH2 0x9ED DUP2 PUSH2 0x9D3 JUMP JUMPDEST DUP3 MSTORE POP POP JUMP JUMPDEST PUSH0 DUP2 SWAP1 POP SWAP2 SWAP1 POP JUMP JUMPDEST PUSH2 0xA05 DUP2 PUSH2 0x9F3 JUMP JUMPDEST DUP3 MSTORE POP POP JUMP JUMPDEST PUSH0 PUSH1 0x80 DUP4 ADD PUSH0 DUP4 ADD MLOAD DUP5 DUP3 SUB PUSH0 DUP7 ADD MSTORE PUSH2 0xA25 DUP3 DUP3 PUSH2 0x92A JUMP JUMPDEST SWAP2 POP POP PUSH1 0x20 DUP4 ADD MLOAD DUP5 DUP3 SUB PUSH1 0x20 DUP7 ADD MSTORE PUSH2 0xA3F DUP3 DUP3 PUSH2 0x97C JUMP JUMPDEST SWAP2 POP POP PUSH1 0x40 DUP4 ADD MLOAD PUSH2 0xA54 PUSH1 0x40 DUP7 ADD DUP3 PUSH2 0x9E4 JUMP JUMPDEST POP PUSH1 0x60 DUP4 ADD MLOAD PUSH2 0xA67 PUSH1 0x60 DUP7 ADD DUP3 PUSH2 0x9FC JUMP JUMPDEST POP DUP1 SWAP2 POP POP SWAP3 SWAP2 POP POP JUMP JUMPDEST PUSH0 PUSH2 0xA7D DUP4 DUP4 PUSH2 0xA0B JUMP JUMPDEST SWAP1 POP SWAP3 SWAP2 POP POP JUMP JUMPDEST PUSH0 PUSH1 0x20 DUP3 ADD SWAP1 POP SWAP2 SWAP1 POP JUMP JUMPDEST PUSH0 PUSH2 0xA9B DUP3 PUSH2 0x8C9 JUMP JUMPDEST PUSH2 0xAA5 DUP2 DUP6 PUSH2 0x8D3 JUMP JUMPDEST SWAP4 POP DUP4 PUSH1 0x20 DUP3 MUL DUP6 ADD PUSH2 0xAB7 DUP6 PUSH2 0x8E3 JUMP JUMPDEST DUP1 PUSH0 JUMPDEST DUP6 DUP2 LT ISZERO PUSH2 0xAF2 JUMPI DUP5 DUP5 SUB DUP10 MSTORE DUP2 MLOAD PUSH2 0xAD3 DUP6 DUP3 PUSH2 0xA72 JUMP JUMPDEST SWAP5 POP PUSH2 0xADE DUP4 PUSH2 0xA85 JUMP JUMPDEST SWAP3 POP PUSH1 0x20 DUP11 ADD SWAP10 POP POP PUSH1 0x1 DUP2 ADD SWAP1 POP PUSH2 0xABA JUMP JUMPDEST POP DUP3 SWAP8 POP DUP8 SWAP6 POP POP POP POP POP POP SWAP3 SWAP2 POP POP JUMP JUMPDEST PUSH0 PUSH1 0x20 DUP3 ADD SWAP1 POP DUP2 DUP2 SUB PUSH0 DUP4 ADD MSTORE PUSH2 0xB1C DUP2 DUP5 PUSH2 0xA91 JUMP JUMPDEST SWAP1 POP SWAP3 SWAP2 POP POP JUMP JUMPDEST PUSH0 DUP2 SWAP1 POP SWAP2 SWAP1 POP JUMP JUMPDEST PUSH0 PUSH2 0xB47 PUSH2 0xB42 PUSH2 0xB3D DUP5 PUSH2 0x9B4 JUMP JUMPDEST PUSH2 0xB24 JUMP JUMPDEST PUSH2 0x9B4 JUMP JUMPDEST SWAP1 POP SWAP2 SWAP1 POP JUMP JUMPDEST PUSH0 PUSH2 0xB58 DUP3 PUSH2 0xB2D JUMP JUMPDEST SWAP1 POP SWAP2 SWAP1 POP JUMP JUMPDEST PUSH0 PUSH2 0xB69 DUP3 PUSH2 0xB4E JUMP JUMPDEST SWAP1 POP SWAP2 SWAP1 POP JUMP JUMPDEST PUSH2 0xB79 DUP2 PUSH2 0xB5F JUMP JUMPDEST DUP3 MSTORE POP POP JUMP JUMPDEST PUSH0 PUSH1 0x20 DUP3 ADD SWAP1 POP PUSH2 0xB92 PUSH0 DUP4 ADD DUP5 PUSH2 0xB70 JUMP JUMPDEST SWAP3 SWAP2 POP POP JUMP JUMPDEST PUSH0 PUSH0 REVERT JUMPDEST PUSH0 PUSH0 REVERT JUMPDEST PUSH2 0xBA9 DUP2 PUSH2 0x9D3 JUMP JUMPDEST DUP2 EQ PUSH2 0xBB3 JUMPI PUSH0 PUSH0 REVERT JUMPDEST POP JUMP JUMPDEST PUSH0 DUP2 CALLDATALOAD SWAP1 POP PUSH2 0xBC4 DUP2 PUSH2 0xBA0 JUMP JUMPDEST SWAP3 SWAP2 POP POP JUMP JUMPDEST PUSH0 PUSH0 REVERT JUMPDEST PUSH0 PUSH0 REVERT JUMPDEST PUSH0 PUSH0 REVERT JUMPDEST PUSH0 PUSH0 DUP4 PUSH1 0x1F DUP5 ADD SLT PUSH2 0xBEB JUMPI PUSH2 0xBEA PUSH2 0xBCA JUMP JUMPDEST JUMPDEST DUP3 CALLDATALOAD SWAP1 POP PUSH8 0xFFFFFFFFFFFFFFFF DUP2 GT ISZERO PUSH2 0xC08 JUMPI PUSH2 0xC07 PUSH2 0xBCE JUMP JUMPDEST JUMPDEST PUSH1 0x20 DUP4 ADD SWAP2 POP DUP4 PUSH1 0x1 DUP3 MUL DUP4 ADD GT ISZERO PUSH2 0xC24 JUMPI PUSH2 0xC23 PUSH2 0xBD2 JUMP JUMPDEST JUMPDEST SWAP3 POP SWAP3 SWAP1 POP JUMP JUMPDEST PUSH0 PUSH0 DUP4 PUSH1 0x1F DUP5 ADD SLT PUSH2 0xC40 JUMPI PUSH2 0xC3F PUSH2 0xBCA JUMP JUMPDEST JUMPDEST DUP3 CALLDATALOAD SWAP1 POP PUSH8 0xFFFFFFFFFFFFFFFF DUP2 GT ISZERO PUSH2 0xC5D JUMPI PUSH2 0xC5C PUSH2 0xBCE JUMP JUMPDEST JUMPDEST PUSH1 0x20 DUP4 ADD SWAP2 POP DUP4 PUSH1 0x1 DUP3 MUL DUP4 ADD GT ISZERO PUSH2 0xC79 JUMPI PUSH2 0xC78 PUSH2 0xBD2 JUMP JUMPDEST JUMPDEST SWAP3 POP SWAP3 SWAP1 POP JUMP JUMPDEST PUSH0 PUSH0 PUSH0 PUSH0 PUSH0 PUSH1 0x60 DUP7 DUP9 SUB SLT ISZERO PUSH2 0xC99 JUMPI PUSH2 0xC98 PUSH2 0xB98 JUMP JUMPDEST JUMPDEST PUSH0 PUSH2 0xCA6 DUP9 DUP3 DUP10 ADD PUSH2 0xBB6 JUMP JUMPDEST SWAP6 POP POP PUSH1 0x20 DUP7 ADD CALLDATALOAD PUSH8 0xFFFFFFFFFFFFFFFF DUP2 GT ISZERO PUSH2 0xCC7 JUMPI PUSH2 0xCC6 PUSH2 0xB9C JUMP JUMPDEST JUMPDEST PUSH2 0xCD3 DUP9 DUP3 DUP10 ADD PUSH2 0xBD6 JUMP JUMPDEST SWAP5 POP SWAP5 POP POP PUSH1 0x40 DUP7 ADD CALLDATALOAD PUSH8 0xFFFFFFFFFFFFFFFF DUP2 GT ISZERO PUSH2 0xCF6 JUMPI PUSH2 0xCF5 PUSH2 0xB9C JUMP JUMPDEST JUMPDEST PUSH2 0xD02 DUP9 DUP3 DUP10 ADD PUSH2 0xC2B JUMP JUMPDEST SWAP3 POP SWAP3 POP POP SWAP3 SWAP6 POP SWAP3 SWAP6 SWAP1 SWAP4 POP JUMP JUMPDEST PUSH2 0xD1A DUP2 PUSH2 0x9D3 JUMP JUMPDEST DUP3 MSTORE POP POP JUMP JUMPDEST PUSH0 PUSH1 0x20 DUP3 ADD SWAP1 POP PUSH2 0xD33 PUSH0 DUP4 ADD DUP5 PUSH2 0xD11 JUMP JUMPDEST SWAP3 SWAP2 POP POP JUMP JUMPDEST PUSH0 DUP2 ISZERO ISZERO SWAP1 POP SWAP2 SWAP1 POP JUMP JUMPDEST PUSH2 0xD4D DUP2 PUSH2 0xD39 JUMP JUMPDEST DUP2 EQ PUSH2 0xD57 JUMPI PUSH0 PUSH0 REVERT JUMPDEST POP JUMP JUMPDEST PUSH0 DUP2 MLOAD SWAP1 POP PUSH2 0xD68 DUP2 PUSH2 0xD44 JUMP JUMPDEST SWAP3 SWAP2 POP POP JUMP JUMPDEST PUSH0 PUSH1 0x20 DUP3 DUP5 SUB SLT ISZERO PUSH2 0xD83 JUMPI PUSH2 0xD82 PUSH2 0xB98 JUMP JUMPDEST JUMPDEST PUSH0 PUSH2 0xD90 DUP5 DUP3 DUP6 ADD PUSH2 0xD5A JUMP JUMPDEST SWAP2 POP POP SWAP3 SWAP2 POP POP JUMP JUMPDEST PUSH0 DUP3 DUP3 MSTORE PUSH1 0x20 DUP3 ADD SWAP1 POP SWAP3 SWAP2 POP POP JUMP JUMPDEST PUSH32 0x4461746153686172696E673A206D73672E73656E64657220697374206E696368 PUSH0 DUP3 ADD MSTORE PUSH32 0x7420726567697374726965727400000000000000000000000000000000000000 PUSH1 0x20 DUP3 ADD MSTORE POP JUMP JUMPDEST PUSH0 PUSH2 0xE03 PUSH1 0x2D DUP4 PUSH2 0xD99 JUMP JUMPDEST SWAP2 POP PUSH2 0xE0E DUP3 PUSH2 0xDA9 JUMP JUMPDEST PUSH1 0x40 DUP3 ADD SWAP1 POP SWAP2 SWAP1 POP JUMP JUMPDEST PUSH0 PUSH1 0x20 DUP3 ADD SWAP1 POP DUP2 DUP2 SUB PUSH0 DUP4 ADD MSTORE PUSH2 0xE30 DUP2 PUSH2 0xDF7 JUMP JUMPDEST SWAP1 POP SWAP2 SWAP1 POP JUMP JUMPDEST PUSH32 0x4E487B7100000000000000000000000000000000000000000000000000000000 PUSH0 MSTORE PUSH1 0x22 PUSH1 0x4 MSTORE PUSH1 0x24 PUSH0 REVERT JUMPDEST PUSH0 PUSH1 0x2 DUP3 DIV SWAP1 POP PUSH1 0x1 DUP3 AND DUP1 PUSH2 0xE7B JUMPI PUSH1 0x7F DUP3 AND SWAP2 POP JUMPDEST PUSH1 0x20 DUP3 LT DUP2 SUB PUSH2 0xE8E JUMPI PUSH2 0xE8D PUSH2 0xE37 JUMP JUMPDEST JUMPDEST POP SWAP2 SWAP1 POP JUMP JUMPDEST PUSH32 0x4461746153686172696E673A20556E6775656C7469676520456D706661656E67 PUSH0 DUP3 ADD MSTORE PUSH32 0x65722D4164726573736500000000000000000000000000000000000000000000 PUSH1 0x20 DUP3 ADD MSTORE POP JUMP JUMPDEST PUSH0 PUSH2 0xEEE PUSH1 0x2A DUP4 PUSH2 0xD99 JUMP JUMPDEST SWAP2 POP PUSH2 0xEF9 DUP3 PUSH2 0xE94 JUMP JUMPDEST PUSH1 0x40 DUP3 ADD SWAP1 POP SWAP2 SWAP1 POP JUMP JUMPDEST PUSH0 PUSH1 0x20 DUP3 ADD SWAP1 POP DUP2 DUP2 SUB PUSH0 DUP4 ADD MSTORE PUSH2 0xF1B DUP2 PUSH2 0xEE2 JUMP JUMPDEST SWAP1 POP SWAP2 SWAP1 POP JUMP JUMPDEST PUSH32 0x4461746153686172696E673A2053656E64657220756E6420456D706661656E67 PUSH0 DUP3 ADD MSTORE PUSH32 0x6572206964656E74697363680000000000000000000000000000000000000000 PUSH1 0x20 DUP3 ADD MSTORE POP JUMP JUMPDEST PUSH0 PUSH2 0xF7C PUSH1 0x2C DUP4 PUSH2 0xD99 JUMP JUMPDEST SWAP2 POP PUSH2 0xF87 DUP3 PUSH2 0xF22 JUMP JUMPDEST PUSH1 0x40 DUP3 ADD SWAP1 POP SWAP2 SWAP1 POP JUMP JUMPDEST PUSH0 PUSH1 0x20 DUP3 ADD SWAP1 POP DUP2 DUP2 SUB PUSH0 DUP4 ADD MSTORE PUSH2 0xFA9 DUP2 PUSH2 0xF70 JUMP JUMPDEST SWAP1 POP SWAP2 SWAP1 POP JUMP JUMPDEST PUSH32 0x4461746153686172696E673A20456D706661656E676572206E69636874207265 PUSH0 DUP3 ADD MSTORE PUSH32 0x6769737472696572740000000000000000000000000000000000000000000000 PUSH1 0x20 DUP3 ADD MSTORE POP JUMP JUMPDEST PUSH0 PUSH2 0x100A PUSH1 0x29 DUP4 PUSH2 0xD99 JUMP JUMPDEST SWAP2 POP PUSH2 0x1015 DUP3 PUSH2 0xFB0 JUMP JUMPDEST PUSH1 0x40 DUP3 ADD SWAP1 POP SWAP2 SWAP1 POP JUMP JUMPDEST PUSH0 PUSH1 0x20 DUP3 ADD SWAP1 POP DUP2 DUP2 SUB PUSH0 DUP4 ADD MSTORE PUSH2 0x1037 DUP2 PUSH2 0xFFE JUMP JUMPDEST SWAP1 POP SWAP2 SWAP1 POP JUMP JUMPDEST PUSH32 0x4461746153686172696E673A204349442064617266206E69636874206C656572 PUSH0 DUP3 ADD MSTORE PUSH32 0x207365696E000000000000000000000000000000000000000000000000000000 PUSH1 0x20 DUP3 ADD MSTORE POP JUMP JUMPDEST PUSH0 PUSH2 0x1098 PUSH1 0x25 DUP4 PUSH2 0xD99 JUMP JUMPDEST SWAP2 POP PUSH2 0x10A3 DUP3 PUSH2 0x103E JUMP JUMPDEST PUSH1 0x40 DUP3 ADD SWAP1 POP SWAP2 SWAP1 POP JUMP JUMPDEST PUSH0 PUSH1 0x20 DUP3 ADD SWAP1 POP DUP2 DUP2 SUB PUSH0 DUP4 ADD MSTORE PUSH2 0x10C5 DUP2 PUSH2 0x108C JUMP JUMPDEST SWAP1 POP SWAP2 SWAP1 POP JUMP JUMPDEST PUSH32 0x4461746153686172696E673A205665727363686C2E205363686C75657373656C PUSH0 DUP3 ADD MSTORE PUSH32 0x2064617266206E69636874206C656572207365696E0000000000000000000000 PUSH1 0x20 DUP3 ADD MSTORE POP JUMP JUMPDEST PUSH0 PUSH2 0x1126 PUSH1 0x35 DUP4 PUSH2 0xD99 JUMP JUMPDEST SWAP2 POP PUSH2 0x1131 DUP3 PUSH2 0x10CC JUMP JUMPDEST PUSH1 0x40 DUP3 ADD SWAP1 POP SWAP2 SWAP1 POP JUMP JUMPDEST PUSH0 PUSH1 0x20 DUP3 ADD SWAP1 POP DUP2 DUP2 SUB PUSH0 DUP4 ADD MSTORE PUSH2 0x1153 DUP2 PUSH2 0x111A JUMP JUMPDEST SWAP1 POP SWAP2 SWAP1 POP JUMP JUMPDEST PUSH32 0x4E487B7100000000000000000000000000000000000000000000000000000000 PUSH0 MSTORE PUSH1 0x41 PUSH1 0x4 MSTORE PUSH1 0x24 PUSH0 REVERT JUMPDEST PUSH0 DUP2 SWAP1 POP DUP2 PUSH0 MSTORE PUSH1 0x20 PUSH0 KECCAK256 SWAP1 POP SWAP2 SWAP1 POP JUMP JUMPDEST PUSH0 PUSH1 0x20 PUSH1 0x1F DUP4 ADD DIV SWAP1 POP SWAP2 SWAP1 POP JUMP JUMPDEST PUSH0 DUP3 DUP3 SHL SWAP1 POP SWAP3 SWAP2 POP POP JUMP JUMPDEST PUSH0 PUSH1 0x8 DUP4 MUL PUSH2 0x11E3 PUSH32 0xFFFFFFFFFFFFFFFFFFFFFFFFFFFFFFFFFFFFFFFFFFFFFFFFFFFFFFFFFFFFFFFF DUP3 PUSH2 0x11A8 JUMP JUMPDEST PUSH2 0x11ED DUP7 DUP4 PUSH2 0x11A8 JUMP JUMPDEST SWAP6 POP DUP1 NOT DUP5 AND SWAP4 POP DUP1 DUP7 AND DUP5 OR SWAP3 POP POP POP SWAP4 SWAP3 POP POP POP JUMP JUMPDEST PUSH0 PUSH2 0x121F PUSH2 0x121A PUSH2 0x1215 DUP5 PUSH2 0x9F3 JUMP JUMPDEST PUSH2 0xB24 JUMP JUMPDEST PUSH2 0x9F3 JUMP JUMPDEST SWAP1 POP SWAP2 SWAP1 POP JUMP JUMPDEST PUSH0 DUP2 SWAP1 POP SWAP2 SWAP1 POP JUMP JUMPDEST PUSH2 0x1238 DUP4 PUSH2 0x1205 JUMP JUMPDEST PUSH2 0x124C PUSH2 0x1244 DUP3 PUSH2 0x1226 JUMP JUMPDEST DUP5 DUP5 SLOAD PUSH2 0x11B4 JUMP JUMPDEST DUP3 SSTORE POP POP POP POP JUMP JUMPDEST PUSH0 PUSH0 SWAP1 POP SWAP1 JUMP JUMPDEST PUSH2 0x1263 PUSH2 0x1254 JUMP JUMPDEST PUSH2 0x126E DUP2 DUP5 DUP5 PUSH2 0x122F JUMP JUMPDEST POP POP POP JUMP JUMPDEST JUMPDEST DUP2 DUP2 LT ISZERO PUSH2 0x1291 JUMPI PUSH2 0x1286 PUSH0 DUP3 PUSH2 0x125B JUMP JUMPDEST PUSH1 0x1 DUP2 ADD SWAP1 POP PUSH2 0x1274 JUMP JUMPDEST POP POP JUMP JUMPDEST PUSH1 0x1F DUP3 GT ISZERO PUSH2 0x12D6 JUMPI PUSH2 0x12A7 DUP2 PUSH2 0x1187 JUMP JUMPDEST PUSH2 0x12B0 DUP5 PUSH2 0x1199 JUMP JUMPDEST DUP2 ADD PUSH1 0x20 DUP6 LT ISZERO PUSH2 0x12BF JUMPI DUP2 SWAP1 POP JUMPDEST PUSH2 0x12D3 PUSH2 0x12CB DUP6 PUSH2 0x1199 JUMP JUMPDEST DUP4 ADD DUP3 PUSH2 0x1273 JUMP JUMPDEST POP POP JUMPDEST POP POP POP JUMP JUMPDEST PUSH0 DUP3 DUP3 SHR SWAP1 POP SWAP3 SWAP2 POP POP JUMP JUMPDEST PUSH0 PUSH2 0x12F6 PUSH0 NOT DUP5 PUSH1 0x8 MUL PUSH2 0x12DB JUMP JUMPDEST NOT DUP1 DUP4 AND SWAP2 POP POP SWAP3 SWAP2 POP POP JUMP JUMPDEST PUSH0 PUSH2 0x130E DUP4 DUP4 PUSH2 0x12E7 JUMP JUMPDEST SWAP2 POP DUP3 PUSH1 0x2 MUL DUP3 OR SWAP1 POP SWAP3 SWAP2 POP POP JUMP JUMPDEST PUSH2 0x1327 DUP3 PUSH2 0x8F2 JUMP JUMPDEST PUSH8 0xFFFFFFFFFFFFFFFF DUP2 GT ISZERO PUSH2 0x1340 JUMPI PUSH2 0x133F PUSH2 0x115A JUMP JUMPDEST JUMPDEST PUSH2 0x134A DUP3 SLOAD PUSH2 0xE64 JUMP JUMPDEST PUSH2 0x1355 DUP3 DUP3 DUP6 PUSH2 0x1295 JUMP JUMPDEST PUSH0 PUSH1 0x20 SWAP1 POP PUSH1 0x1F DUP4 GT PUSH1 0x1 DUP2 EQ PUSH2 0x1386 JUMPI PUSH0 DUP5 ISZERO PUSH2 0x1374 JUMPI DUP3 DUP8 ADD MLOAD SWAP1 POP JUMPDEST PUSH2 0x137E DUP6 DUP3 PUSH2 0x1303 JUMP JUMPDEST DUP7 SSTORE POP PUSH2 0x13E5 JUMP JUMPDEST PUSH1 0x1F NOT DUP5 AND PUSH2 0x1394 DUP7 PUSH2 0x1187 JUMP JUMPDEST PUSH0 JUMPDEST DUP3 DUP2 LT ISZERO PUSH2 0x13BB JUMPI DUP5 DUP10 ADD MLOAD DUP3 SSTORE PUSH1 0x1 DUP3 ADD SWAP2 POP PUSH1 0x20 DUP6 ADD SWAP5 POP PUSH1 0x20 DUP2 ADD SWAP1 POP PUSH2 0x1396 JUMP JUMPDEST DUP7 DUP4 LT ISZERO PUSH2 0x13D8 JUMPI DUP5 DUP10 ADD MLOAD PUSH2 0x13D4 PUSH1 0x1F DUP10 AND DUP3 PUSH2 0x12E7 JUMP JUMPDEST DUP4 SSTORE POP JUMPDEST PUSH1 0x1 PUSH1 0x2 DUP9 MUL ADD DUP9 SSTORE POP POP POP JUMPDEST POP POP POP POP POP POP JUMP JUMPDEST PUSH0 DUP2 SWAP1 POP DUP2 PUSH0 MSTORE PUSH1 0x20 PUSH0 KECCAK256 SWAP1 POP SWAP2 SWAP1 POP JUMP JUMPDEST PUSH1 0x1F DUP3 GT ISZERO PUSH2 0x1440 JUMPI PUSH2 0x1411 DUP2 PUSH2 0x13ED JUMP JUMPDEST PUSH2 0x141A DUP5 PUSH2 0x1199 JUMP JUMPDEST DUP2 ADD PUSH1 0x20 DUP6 LT ISZERO PUSH2 0x1429 JUMPI DUP2 SWAP1 POP JUMPDEST PUSH2 0x143D PUSH2 0x1435 DUP6 PUSH2 0x1199 JUMP JUMPDEST DUP4 ADD DUP3 PUSH2 0x1273 JUMP JUMPDEST POP POP JUMPDEST POP POP POP JUMP JUMPDEST PUSH2 0x144E DUP3 PUSH2 0x962 JUMP JUMPDEST PUSH8 0xFFFFFFFFFFFFFFFF DUP2 GT ISZERO PUSH2 0x1467 JUMPI PUSH2 0x1466 PUSH2 0x115A JUMP JUMPDEST JUMPDEST PUSH2 0x1471 DUP3 SLOAD PUSH2 0xE64 JUMP JUMPDEST PUSH2 0x147C DUP3 DUP3 DUP6 PUSH2 0x13FF JUMP JUMPDEST PUSH0 PUSH1 0x20 SWAP1 POP PUSH1 0x1F DUP4 GT PUSH1 0x1 DUP2 EQ PUSH2 0x14AD JUMPI PUSH0 DUP5 ISZERO PUSH2 0x149B JUMPI DUP3 DUP8 ADD MLOAD SWAP1 POP JUMPDEST PUSH2 0x14A5 DUP6 DUP3 PUSH2 0x1303 JUMP JUMPDEST DUP7 SSTORE POP PUSH2 0x150C JUMP JUMPDEST PUSH1 0x1F NOT DUP5 AND PUSH2 0x14BB DUP7 PUSH2 0x13ED JUMP JUMPDEST PUSH0 JUMPDEST DUP3 DUP2 LT ISZERO PUSH2 0x14E2 JUMPI DUP5 DUP10 ADD MLOAD DUP3 SSTORE PUSH1 0x1 DUP3 ADD SWAP2 POP PUSH1 0x20 DUP6 ADD SWAP5 POP PUSH1 0x20 DUP2 ADD SWAP1 POP PUSH2 0x14BD JUMP JUMPDEST DUP7 DUP4 LT ISZERO PUSH2 0x14FF JUMPI DUP5 DUP10 ADD MLOAD PUSH2 0x14FB PUSH1 0x1F DUP10 AND DUP3 PUSH2 0x12E7 JUMP JUMPDEST DUP4 SSTORE POP JUMPDEST PUSH1 0x1 PUSH1 0x2 DUP9 MUL ADD DUP9 SSTORE POP POP POP JUMPDEST POP POP POP POP POP POP JUMP JUMPDEST DUP3 DUP2 DUP4 CALLDATACOPY PUSH0 DUP4 DUP4 ADD MSTORE POP POP POP JUMP JUMPDEST PUSH0 PUSH2 0x152D DUP4 DUP6 PUSH2 0xD99 JUMP JUMPDEST SWAP4 POP PUSH2 0x153A DUP4 DUP6 DUP5 PUSH2 0x1514 JUMP JUMPDEST PUSH2 0x1543 DUP4 PUSH2 0x91A JUMP JUMPDEST DUP5 ADD SWAP1 POP SWAP4 SWAP3 POP POP POP JUMP JUMPDEST PUSH2 0x1557 DUP2 PUSH2 0x9F3 JUMP JUMPDEST DUP3 MSTORE POP POP JUMP JUMPDEST PUSH0 PUSH1 0x40 DUP3 ADD SWAP1 POP DUP2 DUP2 SUB PUSH0 DUP4 ADD MSTORE PUSH2 0x1576 DUP2 DUP6 DUP8 PUSH2 0x1522 JUMP JUMPDEST SWAP1 POP PUSH2 0x1585 PUSH1 0x20 DUP4 ADD DUP5 PUSH2 0x154E JUMP JUMPDEST SWAP5 SWAP4 POP POP POP POP JUMP INVALID LOG2 PUSH5 0x6970667358 0x22 SLT KECCAK256 DUP9 0xAF PUSH0 PUSH16 0x747AC22C9968F6AD43F2F677D738D9BE JUMPDEST 0xC PUSH14 0xBABE75E3AFD8504F4864736F6C63 NUMBER STOP ADDMOD 0x1F STOP CALLER "
				},
				"gasEstimates": {
					"creation": {
						"codeDepositCost": "1114200",
						"executionCost": "infinite",
						"totalCost": "infinite"
					},
					"external": {
						"adminContract()": "infinite",
						"getMySharedData()": "infinite",
						"shareData(address,string,bytes)": "infinite"
					}
				},
				"methodIdentifiers": {
					"adminContract()": "c05c5e94",
					"getMySharedData()": "7c3fe30e",
					"shareData(address,string,bytes)": "f42691ce"
				}
			},
			"storageLayout": {
				"storage": [
					{
						"astId": 31,
						"contract": "contracts/datasharingcontract.sol:DataSharingContract",
						"label": "sharedDataFor",
						"offset": 0,
						"slot": "0",
						"type": "t_mapping(t_address,t_array(t_struct(SharedData)24_storage)dyn_storage)"
					}
				],
				"types": {
					"t_address": {
						"encoding": "inplace",
						"label": "address",
						"numberOfBytes": "20"
					},
					"t_array(t_struct(SharedData)24_storage)dyn_storage": {
						"base": "t_struct(SharedData)24_storage",
						"encoding": "dynamic_array",
						"label": "struct DataSharingContract.SharedData[]",
						"numberOfBytes": "32"
					},
					"t_bytes_storage": {
						"encoding": "bytes",
						"label": "bytes",
						"numberOfBytes": "32"
					},
					"t_mapping(t_address,t_array(t_struct(SharedData)24_storage)dyn_storage)": {
						"encoding": "mapping",
						"key": "t_address",
						"label": "mapping(address => struct DataSharingContract.SharedData[])",
						"numberOfBytes": "32",
						"value": "t_array(t_struct(SharedData)24_storage)dyn_storage"
					},
					"t_string_storage": {
						"encoding": "bytes",
						"label": "string",
						"numberOfBytes": "32"
					},
					"t_struct(SharedData)24_storage": {
						"encoding": "inplace",
						"label": "struct DataSharingContract.SharedData",
						"members": [
							{
								"astId": 17,
								"contract": "contracts/datasharingcontract.sol:DataSharingContract",
								"label": "cid",
								"offset": 0,
								"slot": "0",
								"type": "t_string_storage"
							},
							{
								"astId": 19,
								"contract": "contracts/datasharingcontract.sol:DataSharingContract",
								"label": "encryptedKey",
								"offset": 0,
								"slot": "1",
								"type": "t_bytes_storage"
							},
							{
								"astId": 21,
								"contract": "contracts/datasharingcontract.sol:DataSharingContract",
								"label": "sender",
								"offset": 0,
								"slot": "2",
								"type": "t_address"
							},
							{
								"astId": 23,
								"contract": "contracts/datasharingcontract.sol:DataSharingContract",
								"label": "timestamp",
								"offset": 0,
								"slot": "3",
								"type": "t_uint256"
							}
						],
						"numberOfBytes": "128"
					},
					"t_uint256": {
						"encoding": "inplace",
						"label": "uint256",
						"numberOfBytes": "32"
					}
				}
			},
			"userdoc": {
				"kind": "user",
				"methods": {
					"getMySharedData()": {
						"notice": "Gibt alle Datenpakete zurück, die für msg.sender freigegeben wurden."
					},
					"shareData(address,string,bytes)": {
						"notice": "Teilt verschlüsselte Daten mit einem Empfänger."
					}
				},
				"version": 1
			}
		}
	}
}