{
	"contracts/admincontract.sol": {
		"AdminContract": {
			"abi": [
				{
					"inputs": [],
					"stateMutability": "nonpayable",
					"type": "constructor"
				},
				{
					"anonymous": false,
					"inputs": [
						{
							"indexed": true,
							"internalType": "address",
							"name": "user",
							"type": "address"
						},
						{
							"indexed": false,
							"internalType": "bytes",
							"name": "publicKey",
							"type": "bytes"
						}
					],
					"name": "UserRegistered",
					"type": "event"
				},
				{
					"inputs": [],
					"name": "admin",
					"outputs": [
						{
							"internalType": "address",
							"name": "",
							"type": "address"
						}
					],
					"stateMutability": "view",
					"type": "function"
				},
				{
					"inputs": [
						{
							"internalType": "address",
							"name": "user",
							"type": "address"
						}
					],
					"name": "getPublicKey",
					"outputs": [
						{
							"internalType": "bytes",
							"name": "",
							"type": "bytes"
						}
					],
					"stateMutability": "view",
					"type": "function"
				},
				{
					"inputs": [
						{
							"internalType": "address",
							"name": "user",
							"type": "address"
						}
					],
					"name": "isRegistered",
					"outputs": [
						{
							"internalType": "bool",
							"name": "",
							"type": "bool"
						}
					],
					"stateMutability": "view",
					"type": "function"
				},
				{
					"inputs": [
						{
							"internalType": "address",
							"name": "user",
							"type": "address"
						},
						{
							"internalType": "bytes",
							"name": "publicKey",
							"type": "bytes"
						}
					],
					"name": "registerUser",
					"outputs": [],
					"stateMutability": "nonpayable",
					"type": "function"
				}
			],
			"devdoc": {
				"kind": "dev",
				"methods": {
					"getPublicKey(address)": {
						"params": {
							"user": "Die Ethereum-Adresse des Nutzers."
						},
						"returns": {
							"_0": "Der gespeicherte Public Key (bytes)."
						}
					},
					"isRegistered(address)": {
						"params": {
							"user": "Die zu prüfende Ethereum-Adresse."
						},
						"returns": {
							"_0": "true, wenn registriert; sonst false."
						}
					},
					"registerUser(address,bytes)": {
						"details": "Nur der Admin darf diese Funktion aufrufen.",
						"params": {
							"publicKey": "Der öffentliche Schlüssel des Nutzers (z.B. EC-Punkt, PEM, etc.)",
							"user": "Die Ethereum-Adresse des Nutzers."
						}
					}
				},
				"version": 1
			},
			"evm": {
				"assembly": "    /* \"contracts/admincontract.sol\":279:2679  contract AdminContract {... */\n  mstore(0x40, 0xa0)\n    /* \"contracts/admincontract.sol\":1157:1208  constructor() {... */\n  callvalue\n  dup1\n  iszero\n  tag_1\n  jumpi\n  revert(0x00, 0x00)\ntag_1:\n  pop\n    /* \"contracts/admincontract.sol\":1190:1200  msg.sender */\n  caller\n    /* \"contracts/admincontract.sol\":1182:1200  admin = msg.sender */\n  0xffffffffffffffffffffffffffffffffffffffff\n  and\n  0x80\n  dup2\n  0xffffffffffffffffffffffffffffffffffffffff\n  and\n  dup2\n  mstore\n  pop\n  pop\n    /* \"contracts/admincontract.sol\":279:2679  contract AdminContract {... */\n  mload(0x80)\n  codecopy(0x00, dataOffset(sub_0), dataSize(sub_0))\n  0x00\n  assignImmutable(\"0x2a80e1ef1d7842f27f2e6be0972bb708b9a135c38860dbe73c27c3486c34f4de\")\n  return(0x00, dataSize(sub_0))\nstop\n\nsub_0: assembly {\n        /* \"contracts/admincontract.sol\":279:2679  contract AdminContract {... */\n      mstore(0x40, 0x80)\n      callvalue\n      dup1\n      iszero\n      tag_1\n      jumpi\n      revert(0x00, 0x00)\n    tag_1:\n      pop\n      jumpi(tag_2, lt(calldatasize, 0x04))\n      shr(0xe0, calldataload(0x00))\n      dup1\n      0x04b43ec0\n      eq\n      tag_3\n      jumpi\n      dup1\n      0x857cdbb8\n      eq\n      tag_4\n      jumpi\n      dup1\n      0xc3c5a547\n      eq\n      tag_5\n      jumpi\n      dup1\n      0xf851a440\n      eq\n      tag_6\n      jumpi\n    tag_2:\n      revert(0x00, 0x00)\n        /* \"contracts/admincontract.sol\":1511:1978  function registerUser(address user, bytes calldata publicKey) external  {... */\n    tag_3:\n      tag_7\n      0x04\n      dup1\n      calldatasize\n      sub\n      dup2\n      add\n      swap1\n      tag_8\n      swap2\n      swap1\n      tag_9\n      jump\t// in\n    tag_8:\n      tag_10\n      jump\t// in\n    tag_7:\n      stop\n        /* \"contracts/admincontract.sol\":2184:2378  function getPublicKey(address user) external view returns (bytes memory) {... */\n    tag_4:\n      tag_11\n      0x04\n      dup1\n      calldatasize\n      sub\n      dup2\n      add\n      swap1\n      tag_12\n      swap2\n      swap1\n      tag_13\n      jump\t// in\n    tag_12:\n      tag_14\n      jump\t// in\n    tag_11:\n      mload(0x40)\n      tag_15\n      swap2\n      swap1\n      tag_16\n      jump\t// in\n    tag_15:\n      mload(0x40)\n      dup1\n      swap2\n      sub\n      swap1\n      return\n        /* \"contracts/admincontract.sol\":2569:2676  function isRegistered(address user) external view returns (bool) {... */\n    tag_5:\n      tag_17\n      0x04\n      dup1\n      calldatasize\n      sub\n      dup2\n      add\n      swap1\n      tag_18\n      swap2\n      swap1\n      tag_13\n      jump\t// in\n    tag_18:\n      tag_19\n      jump\t// in\n    tag_17:\n      mload(0x40)\n      tag_20\n      swap2\n      swap1\n      tag_21\n      jump\t// in\n    tag_20:\n      mload(0x40)\n      dup1\n      swap2\n      sub\n      swap1\n      return\n        /* \"contracts/admincontract.sol\":369:399  address public immutable admin */\n    tag_6:\n      tag_22\n      tag_23\n      jump\t// in\n    tag_22:\n      mload(0x40)\n      tag_24\n      swap2\n      swap1\n      tag_25\n      jump\t// in\n    tag_24:\n      mload(0x40)\n      dup1\n      swap2\n      sub\n      swap1\n      return\n        /* \"contracts/admincontract.sol\":1511:1978  function registerUser(address user, bytes calldata publicKey) external  {... */\n    tag_10:\n        /* \"contracts/admincontract.sol\":1618:1619  0 */\n      0x00\n        /* \"contracts/admincontract.sol\":1602:1620  user != address(0) */\n      0xffffffffffffffffffffffffffffffffffffffff\n      and\n        /* \"contracts/admincontract.sol\":1602:1606  user */\n      dup4\n        /* \"contracts/admincontract.sol\":1602:1620  user != address(0) */\n      0xffffffffffffffffffffffffffffffffffffffff\n      and\n      sub\n        /* \"contracts/admincontract.sol\":1594:1663  require(user != address(0),      \"AdminContract: Ungueltige Adresse\") */\n      tag_27\n      jumpi\n      mload(0x40)\n      0x08c379a000000000000000000000000000000000000000000000000000000000\n      dup2\n      mstore\n      0x04\n      add\n      tag_28\n      swap1\n      tag_29\n      jump\t// in\n    tag_28:\n      mload(0x40)\n      dup1\n      swap2\n      sub\n      swap1\n      revert\n    tag_27:\n        /* \"contracts/admincontract.sol\":1701:1702  0 */\n      0x00\n        /* \"contracts/admincontract.sol\":1682:1691  publicKey */\n      dup3\n      dup3\n        /* \"contracts/admincontract.sol\":1682:1698  publicKey.length */\n      swap1\n      pop\n        /* \"contracts/admincontract.sol\":1682:1702  publicKey.length > 0 */\n      gt\n        /* \"contracts/admincontract.sol\":1674:1756  require(publicKey.length > 0,    \"AdminContract: Public Key darf nicht leer sein\") */\n      tag_30\n      jumpi\n      mload(0x40)\n      0x08c379a000000000000000000000000000000000000000000000000000000000\n      dup2\n      mstore\n      0x04\n      add\n      tag_31\n      swap1\n      tag_32\n      jump\t// in\n    tag_31:\n      mload(0x40)\n      dup1\n      swap2\n      sub\n      swap1\n      revert\n    tag_30:\n        /* \"contracts/admincontract.sol\":1776:1786  registered */\n      0x01\n        /* \"contracts/admincontract.sol\":1776:1792  registered[user] */\n      0x00\n        /* \"contracts/admincontract.sol\":1787:1791  user */\n      dup5\n        /* \"contracts/admincontract.sol\":1776:1792  registered[user] */\n      0xffffffffffffffffffffffffffffffffffffffff\n      and\n      0xffffffffffffffffffffffffffffffffffffffff\n      and\n      dup2\n      mstore\n      0x20\n      add\n      swap1\n      dup2\n      mstore\n      0x20\n      add\n      0x00\n      keccak256\n      0x00\n      swap1\n      sload\n      swap1\n      0x0100\n      exp\n      swap1\n      div\n      0xff\n      and\n        /* \"contracts/admincontract.sol\":1775:1792  !registered[user] */\n      iszero\n        /* \"contracts/admincontract.sol\":1767:1844  require(!registered[user],       \"AdminContract: Nutzer bereits registriert\") */\n      tag_33\n      jumpi\n      mload(0x40)\n      0x08c379a000000000000000000000000000000000000000000000000000000000\n      dup2\n      mstore\n      0x04\n      add\n      tag_34\n      swap1\n      tag_35\n      jump\t// in\n    tag_34:\n      mload(0x40)\n      dup1\n      swap2\n      sub\n      swap1\n      revert\n    tag_33:\n        /* \"contracts/admincontract.sol\":1877:1881  true */\n      0x01\n        /* \"contracts/admincontract.sol\":1857:1867  registered */\n      dup1\n        /* \"contracts/admincontract.sol\":1857:1873  registered[user] */\n      0x00\n        /* \"contracts/admincontract.sol\":1868:1872  user */\n      dup6\n        /* \"contracts/admincontract.sol\":1857:1873  registered[user] */\n      0xffffffffffffffffffffffffffffffffffffffff\n      and\n      0xffffffffffffffffffffffffffffffffffffffff\n      and\n      dup2\n      mstore\n      0x20\n      add\n      swap1\n      dup2\n      mstore\n      0x20\n      add\n      0x00\n      keccak256\n      0x00\n        /* \"contracts/admincontract.sol\":1857:1881  registered[user]  = true */\n      0x0100\n      exp\n      dup2\n      sload\n      dup2\n      0xff\n      mul\n      not\n      and\n      swap1\n      dup4\n      iszero\n      iszero\n      mul\n      or\n      swap1\n      sstore\n      pop\n        /* \"contracts/admincontract.sol\":1912:1921  publicKey */\n      dup2\n      dup2\n        /* \"contracts/admincontract.sol\":1892:1902  publicKeys */\n      0x00\n        /* \"contracts/admincontract.sol\":1892:1908  publicKeys[user] */\n      0x00\n        /* \"contracts/admincontract.sol\":1903:1907  user */\n      dup7\n        /* \"contracts/admincontract.sol\":1892:1908  publicKeys[user] */\n      0xffffffffffffffffffffffffffffffffffffffff\n      and\n      0xffffffffffffffffffffffffffffffffffffffff\n      and\n      dup2\n      mstore\n      0x20\n      add\n      swap1\n      dup2\n      mstore\n      0x20\n      add\n      0x00\n      keccak256\n        /* \"contracts/admincontract.sol\":1892:1921  publicKeys[user]  = publicKey */\n      swap2\n      dup3\n      tag_36\n      swap3\n      swap2\n      swap1\n      tag_37\n      jump\t// in\n    tag_36:\n      pop\n        /* \"contracts/admincontract.sol\":1954:1958  user */\n      dup3\n        /* \"contracts/admincontract.sol\":1939:1970  UserRegistered(user, publicKey) */\n      0xffffffffffffffffffffffffffffffffffffffff\n      and\n      0xb4e474a799db1c21852b730a8ac43394df2133bba1b219242c78954109a980a1\n        /* \"contracts/admincontract.sol\":1960:1969  publicKey */\n      dup4\n      dup4\n        /* \"contracts/admincontract.sol\":1939:1970  UserRegistered(user, publicKey) */\n      mload(0x40)\n      tag_38\n      swap3\n      swap2\n      swap1\n      tag_39\n      jump\t// in\n    tag_38:\n      mload(0x40)\n      dup1\n      swap2\n      sub\n      swap1\n      log2\n        /* \"contracts/admincontract.sol\":1511:1978  function registerUser(address user, bytes calldata publicKey) external  {... */\n      pop\n      pop\n      pop\n      jump\t// out\n        /* \"contracts/admincontract.sol\":2184:2378  function getPublicKey(address user) external view returns (bytes memory) {... */\n    tag_14:\n        /* \"contracts/admincontract.sol\":2243:2255  bytes memory */\n      0x60\n        /* \"contracts/admincontract.sol\":2276:2286  registered */\n      0x01\n        /* \"contracts/admincontract.sol\":2276:2292  registered[user] */\n      0x00\n        /* \"contracts/admincontract.sol\":2287:2291  user */\n      dup4\n        /* \"contracts/admincontract.sol\":2276:2292  registered[user] */\n      0xffffffffffffffffffffffffffffffffffffffff\n      and\n      0xffffffffffffffffffffffffffffffffffffffff\n      and\n      dup2\n      mstore\n      0x20\n      add\n      swap1\n      dup2\n      mstore\n      0x20\n      add\n      0x00\n      keccak256\n      0x00\n      swap1\n      sload\n      swap1\n      0x0100\n      exp\n      swap1\n      div\n      0xff\n      and\n        /* \"contracts/admincontract.sol\":2268:2336  require(registered[user], \"AdminContract: Nutzer nicht registriert\") */\n      tag_41\n      jumpi\n      mload(0x40)\n      0x08c379a000000000000000000000000000000000000000000000000000000000\n      dup2\n      mstore\n      0x04\n      add\n      tag_42\n      swap1\n      tag_43\n      jump\t// in\n    tag_42:\n      mload(0x40)\n      dup1\n      swap2\n      sub\n      swap1\n      revert\n    tag_41:\n        /* \"contracts/admincontract.sol\":2354:2364  publicKeys */\n      0x00\n        /* \"contracts/admincontract.sol\":2354:2370  publicKeys[user] */\n      0x00\n        /* \"contracts/admincontract.sol\":2365:2369  user */\n      dup4\n        /* \"contracts/admincontract.sol\":2354:2370  publicKeys[user] */\n      0xffffffffffffffffffffffffffffffffffffffff\n      and\n      0xffffffffffffffffffffffffffffffffffffffff\n      and\n      dup2\n      mstore\n      0x20\n      add\n      swap1\n      dup2\n      mstore\n      0x20\n      add\n      0x00\n      keccak256\n        /* \"contracts/admincontract.sol\":2347:2370  return publicKeys[user] */\n      dup1\n      sload\n      tag_44\n      swap1\n      tag_45\n      jump\t// in\n    tag_44:\n      dup1\n      0x1f\n      add\n      0x20\n      dup1\n      swap2\n      div\n      mul\n      0x20\n      add\n      mload(0x40)\n      swap1\n      dup2\n      add\n      0x40\n      mstore\n      dup1\n      swap3\n      swap2\n      swap1\n      dup2\n      dup2\n      mstore\n      0x20\n      add\n      dup3\n      dup1\n      sload\n      tag_46\n      swap1\n      tag_45\n      jump\t// in\n    tag_46:\n      dup1\n      iszero\n      tag_47\n      jumpi\n      dup1\n      0x1f\n      lt\n      tag_48\n      jumpi\n      0x0100\n      dup1\n      dup4\n      sload\n      div\n      mul\n      dup4\n      mstore\n      swap2\n      0x20\n      add\n      swap2\n      jump(tag_47)\n    tag_48:\n      dup3\n      add\n      swap2\n      swap1\n      0x00\n      mstore\n      keccak256(0x00, 0x20)\n      swap1\n    tag_49:\n      dup2\n      sload\n      dup2\n      mstore\n      swap1\n      0x01\n      add\n      swap1\n      0x20\n      add\n      dup1\n      dup4\n      gt\n      tag_49\n      jumpi\n      dup3\n      swap1\n      sub\n      0x1f\n      and\n      dup3\n      add\n      swap2\n    tag_47:\n      pop\n      pop\n      pop\n      pop\n      pop\n      swap1\n      pop\n        /* \"contracts/admincontract.sol\":2184:2378  function getPublicKey(address user) external view returns (bytes memory) {... */\n      swap2\n      swap1\n      pop\n      jump\t// out\n        /* \"contracts/admincontract.sol\":2569:2676  function isRegistered(address user) external view returns (bool) {... */\n    tag_19:\n        /* \"contracts/admincontract.sol\":2628:2632  bool */\n      0x00\n        /* \"contracts/admincontract.sol\":2652:2662  registered */\n      0x01\n        /* \"contracts/admincontract.sol\":2652:2668  registered[user] */\n      0x00\n        /* \"contracts/admincontract.sol\":2663:2667  user */\n      dup4\n        /* \"contracts/admincontract.sol\":2652:2668  registered[user] */\n      0xffffffffffffffffffffffffffffffffffffffff\n      and\n      0xffffffffffffffffffffffffffffffffffffffff\n      and\n      dup2\n      mstore\n      0x20\n      add\n      swap1\n      dup2\n      mstore\n      0x20\n      add\n      0x00\n      keccak256\n      0x00\n      swap1\n      sload\n      swap1\n      0x0100\n      exp\n      swap1\n      div\n      0xff\n      and\n        /* \"contracts/admincontract.sol\":2645:2668  return registered[user] */\n      swap1\n      pop\n        /* \"contracts/admincontract.sol\":2569:2676  function isRegistered(address user) external view returns (bool) {... */\n      swap2\n      swap1\n      pop\n      jump\t// out\n        /* \"contracts/admincontract.sol\":369:399  address public immutable admin */\n    tag_23:\n      immutable(\"0x2a80e1ef1d7842f27f2e6be0972bb708b9a135c38860dbe73c27c3486c34f4de\")\n      dup2\n      jump\t// out\n        /* \"#utility.yul\":88:205   */\n    tag_52:\n        /* \"#utility.yul\":197:198   */\n      0x00\n        /* \"#utility.yul\":194:195   */\n      0x00\n        /* \"#utility.yul\":187:199   */\n      revert\n        /* \"#utility.yul\":211:328   */\n    tag_53:\n        /* \"#utility.yul\":320:321   */\n      0x00\n        /* \"#utility.yul\":317:318   */\n      0x00\n        /* \"#utility.yul\":310:322   */\n      revert\n        /* \"#utility.yul\":334:460   */\n    tag_54:\n        /* \"#utility.yul\":371:378   */\n      0x00\n        /* \"#utility.yul\":411:453   */\n      0xffffffffffffffffffffffffffffffffffffffff\n        /* \"#utility.yul\":404:409   */\n      dup3\n        /* \"#utility.yul\":400:454   */\n      and\n        /* \"#utility.yul\":389:454   */\n      swap1\n      pop\n        /* \"#utility.yul\":334:460   */\n      swap2\n      swap1\n      pop\n      jump\t// out\n        /* \"#utility.yul\":466:562   */\n    tag_55:\n        /* \"#utility.yul\":503:510   */\n      0x00\n        /* \"#utility.yul\":532:556   */\n      tag_106\n        /* \"#utility.yul\":550:555   */\n      dup3\n        /* \"#utility.yul\":532:556   */\n      tag_54\n      jump\t// in\n    tag_106:\n        /* \"#utility.yul\":521:556   */\n      swap1\n      pop\n        /* \"#utility.yul\":466:562   */\n      swap2\n      swap1\n      pop\n      jump\t// out\n        /* \"#utility.yul\":568:690   */\n    tag_56:\n        /* \"#utility.yul\":641:665   */\n      tag_108\n        /* \"#utility.yul\":659:664   */\n      dup2\n        /* \"#utility.yul\":641:665   */\n      tag_55\n      jump\t// in\n    tag_108:\n        /* \"#utility.yul\":634:639   */\n      dup2\n        /* \"#utility.yul\":631:666   */\n      eq\n        /* \"#utility.yul\":621:684   */\n      tag_109\n      jumpi\n        /* \"#utility.yul\":680:681   */\n      0x00\n        /* \"#utility.yul\":677:678   */\n      0x00\n        /* \"#utility.yul\":670:682   */\n      revert\n        /* \"#utility.yul\":621:684   */\n    tag_109:\n        /* \"#utility.yul\":568:690   */\n      pop\n      jump\t// out\n        /* \"#utility.yul\":696:835   */\n    tag_57:\n        /* \"#utility.yul\":742:747   */\n      0x00\n        /* \"#utility.yul\":780:786   */\n      dup2\n        /* \"#utility.yul\":767:787   */\n      calldataload\n        /* \"#utility.yul\":758:787   */\n      swap1\n      pop\n        /* \"#utility.yul\":796:829   */\n      tag_111\n        /* \"#utility.yul\":823:828   */\n      dup2\n        /* \"#utility.yul\":796:829   */\n      tag_56\n      jump\t// in\n    tag_111:\n        /* \"#utility.yul\":696:835   */\n      swap3\n      swap2\n      pop\n      pop\n      jump\t// out\n        /* \"#utility.yul\":841:958   */\n    tag_58:\n        /* \"#utility.yul\":950:951   */\n      0x00\n        /* \"#utility.yul\":947:948   */\n      0x00\n        /* \"#utility.yul\":940:952   */\n      revert\n        /* \"#utility.yul\":964:1081   */\n    tag_59:\n        /* \"#utility.yul\":1073:1074   */\n      0x00\n        /* \"#utility.yul\":1070:1071   */\n      0x00\n        /* \"#utility.yul\":1063:1075   */\n      revert\n        /* \"#utility.yul\":1087:1204   */\n    tag_60:\n        /* \"#utility.yul\":1196:1197   */\n      0x00\n        /* \"#utility.yul\":1193:1194   */\n      0x00\n        /* \"#utility.yul\":1186:1198   */\n      revert\n        /* \"#utility.yul\":1223:1775   */\n    tag_61:\n        /* \"#utility.yul\":1280:1288   */\n      0x00\n        /* \"#utility.yul\":1290:1296   */\n      0x00\n        /* \"#utility.yul\":1340:1343   */\n      dup4\n        /* \"#utility.yul\":1333:1337   */\n      0x1f\n        /* \"#utility.yul\":1325:1331   */\n      dup5\n        /* \"#utility.yul\":1321:1338   */\n      add\n        /* \"#utility.yul\":1317:1344   */\n      slt\n        /* \"#utility.yul\":1307:1429   */\n      tag_116\n      jumpi\n        /* \"#utility.yul\":1348:1427   */\n      tag_117\n      tag_58\n      jump\t// in\n    tag_117:\n        /* \"#utility.yul\":1307:1429   */\n    tag_116:\n        /* \"#utility.yul\":1461:1467   */\n      dup3\n        /* \"#utility.yul\":1448:1468   */\n      calldataload\n        /* \"#utility.yul\":1438:1468   */\n      swap1\n      pop\n        /* \"#utility.yul\":1491:1509   */\n      0xffffffffffffffff\n        /* \"#utility.yul\":1483:1489   */\n      dup2\n        /* \"#utility.yul\":1480:1510   */\n      gt\n        /* \"#utility.yul\":1477:1594   */\n      iszero\n      tag_118\n      jumpi\n        /* \"#utility.yul\":1513:1592   */\n      tag_119\n      tag_59\n      jump\t// in\n    tag_119:\n        /* \"#utility.yul\":1477:1594   */\n    tag_118:\n        /* \"#utility.yul\":1627:1631   */\n      0x20\n        /* \"#utility.yul\":1619:1625   */\n      dup4\n        /* \"#utility.yul\":1615:1632   */\n      add\n        /* \"#utility.yul\":1603:1632   */\n      swap2\n      pop\n        /* \"#utility.yul\":1681:1684   */\n      dup4\n        /* \"#utility.yul\":1673:1677   */\n      0x01\n        /* \"#utility.yul\":1665:1671   */\n      dup3\n        /* \"#utility.yul\":1661:1678   */\n      mul\n        /* \"#utility.yul\":1651:1659   */\n      dup4\n        /* \"#utility.yul\":1647:1679   */\n      add\n        /* \"#utility.yul\":1644:1685   */\n      gt\n        /* \"#utility.yul\":1641:1769   */\n      iszero\n      tag_120\n      jumpi\n        /* \"#utility.yul\":1688:1767   */\n      tag_121\n      tag_60\n      jump\t// in\n    tag_121:\n        /* \"#utility.yul\":1641:1769   */\n    tag_120:\n        /* \"#utility.yul\":1223:1775   */\n      swap3\n      pop\n      swap3\n      swap1\n      pop\n      jump\t// out\n        /* \"#utility.yul\":1781:2453   */\n    tag_9:\n        /* \"#utility.yul\":1860:1866   */\n      0x00\n        /* \"#utility.yul\":1868:1874   */\n      0x00\n        /* \"#utility.yul\":1876:1882   */\n      0x00\n        /* \"#utility.yul\":1925:1927   */\n      0x40\n        /* \"#utility.yul\":1913:1922   */\n      dup5\n        /* \"#utility.yul\":1904:1911   */\n      dup7\n        /* \"#utility.yul\":1900:1923   */\n      sub\n        /* \"#utility.yul\":1896:1928   */\n      slt\n        /* \"#utility.yul\":1893:2012   */\n      iszero\n      tag_123\n      jumpi\n        /* \"#utility.yul\":1931:2010   */\n      tag_124\n      tag_52\n      jump\t// in\n    tag_124:\n        /* \"#utility.yul\":1893:2012   */\n    tag_123:\n        /* \"#utility.yul\":2051:2052   */\n      0x00\n        /* \"#utility.yul\":2076:2129   */\n      tag_125\n        /* \"#utility.yul\":2121:2128   */\n      dup7\n        /* \"#utility.yul\":2112:2118   */\n      dup3\n        /* \"#utility.yul\":2101:2110   */\n      dup8\n        /* \"#utility.yul\":2097:2119   */\n      add\n        /* \"#utility.yul\":2076:2129   */\n      tag_57\n      jump\t// in\n    tag_125:\n        /* \"#utility.yul\":2066:2129   */\n      swap4\n      pop\n        /* \"#utility.yul\":2022:2139   */\n      pop\n        /* \"#utility.yul\":2206:2208   */\n      0x20\n        /* \"#utility.yul\":2195:2204   */\n      dup5\n        /* \"#utility.yul\":2191:2209   */\n      add\n        /* \"#utility.yul\":2178:2210   */\n      calldataload\n        /* \"#utility.yul\":2237:2255   */\n      0xffffffffffffffff\n        /* \"#utility.yul\":2229:2235   */\n      dup2\n        /* \"#utility.yul\":2226:2256   */\n      gt\n        /* \"#utility.yul\":2223:2340   */\n      iszero\n      tag_126\n      jumpi\n        /* \"#utility.yul\":2259:2338   */\n      tag_127\n      tag_53\n      jump\t// in\n    tag_127:\n        /* \"#utility.yul\":2223:2340   */\n    tag_126:\n        /* \"#utility.yul\":2372:2436   */\n      tag_128\n        /* \"#utility.yul\":2428:2435   */\n      dup7\n        /* \"#utility.yul\":2419:2425   */\n      dup3\n        /* \"#utility.yul\":2408:2417   */\n      dup8\n        /* \"#utility.yul\":2404:2426   */\n      add\n        /* \"#utility.yul\":2372:2436   */\n      tag_61\n      jump\t// in\n    tag_128:\n        /* \"#utility.yul\":2354:2436   */\n      swap3\n      pop\n      swap3\n      pop\n        /* \"#utility.yul\":2149:2446   */\n      pop\n        /* \"#utility.yul\":1781:2453   */\n      swap3\n      pop\n      swap3\n      pop\n      swap3\n      jump\t// out\n        /* \"#utility.yul\":2459:2788   */\n    tag_13:\n        /* \"#utility.yul\":2518:2524   */\n      0x00\n        /* \"#utility.yul\":2567:2569   */\n      0x20\n        /* \"#utility.yul\":2555:2564   */\n      dup3\n        /* \"#utility.yul\":2546:2553   */\n      dup5\n        /* \"#utility.yul\":2542:2565   */\n      sub\n        /* \"#utility.yul\":2538:2570   */\n      slt\n        /* \"#utility.yul\":2535:2654   */\n      iszero\n      tag_130\n      jumpi\n        /* \"#utility.yul\":2573:2652   */\n      tag_131\n      tag_52\n      jump\t// in\n    tag_131:\n        /* \"#utility.yul\":2535:2654   */\n    tag_130:\n        /* \"#utility.yul\":2693:2694   */\n      0x00\n        /* \"#utility.yul\":2718:2771   */\n      tag_132\n        /* \"#utility.yul\":2763:2770   */\n      dup5\n        /* \"#utility.yul\":2754:2760   */\n      dup3\n        /* \"#utility.yul\":2743:2752   */\n      dup6\n        /* \"#utility.yul\":2739:2761   */\n      add\n        /* \"#utility.yul\":2718:2771   */\n      tag_57\n      jump\t// in\n    tag_132:\n        /* \"#utility.yul\":2708:2771   */\n      swap2\n      pop\n        /* \"#utility.yul\":2664:2781   */\n      pop\n        /* \"#utility.yul\":2459:2788   */\n      swap3\n      swap2\n      pop\n      pop\n      jump\t// out\n        /* \"#utility.yul\":2794:2892   */\n    tag_62:\n        /* \"#utility.yul\":2845:2851   */\n      0x00\n        /* \"#utility.yul\":2879:2884   */\n      dup2\n        /* \"#utility.yul\":2873:2885   */\n      mload\n        /* \"#utility.yul\":2863:2885   */\n      swap1\n      pop\n        /* \"#utility.yul\":2794:2892   */\n      swap2\n      swap1\n      pop\n      jump\t// out\n        /* \"#utility.yul\":2898:3066   */\n    tag_63:\n        /* \"#utility.yul\":2981:2992   */\n      0x00\n        /* \"#utility.yul\":3015:3021   */\n      dup3\n        /* \"#utility.yul\":3010:3013   */\n      dup3\n        /* \"#utility.yul\":3003:3022   */\n      mstore\n        /* \"#utility.yul\":3055:3059   */\n      0x20\n        /* \"#utility.yul\":3050:3053   */\n      dup3\n        /* \"#utility.yul\":3046:3060   */\n      add\n        /* \"#utility.yul\":3031:3060   */\n      swap1\n      pop\n        /* \"#utility.yul\":2898:3066   */\n      swap3\n      swap2\n      pop\n      pop\n      jump\t// out\n        /* \"#utility.yul\":3072:3211   */\n    tag_64:\n        /* \"#utility.yul\":3161:3167   */\n      dup3\n        /* \"#utility.yul\":3156:3159   */\n      dup2\n        /* \"#utility.yul\":3151:3154   */\n      dup4\n        /* \"#utility.yul\":3145:3168   */\n      mcopy\n        /* \"#utility.yul\":3202:3203   */\n      0x00\n        /* \"#utility.yul\":3193:3199   */\n      dup4\n        /* \"#utility.yul\":3188:3191   */\n      dup4\n        /* \"#utility.yul\":3184:3200   */\n      add\n        /* \"#utility.yul\":3177:3204   */\n      mstore\n        /* \"#utility.yul\":3072:3211   */\n      pop\n      pop\n      pop\n      jump\t// out\n        /* \"#utility.yul\":3217:3319   */\n    tag_65:\n        /* \"#utility.yul\":3258:3264   */\n      0x00\n        /* \"#utility.yul\":3309:3311   */\n      0x1f\n        /* \"#utility.yul\":3305:3312   */\n      not\n        /* \"#utility.yul\":3300:3302   */\n      0x1f\n        /* \"#utility.yul\":3293:3298   */\n      dup4\n        /* \"#utility.yul\":3289:3303   */\n      add\n        /* \"#utility.yul\":3285:3313   */\n      and\n        /* \"#utility.yul\":3275:3313   */\n      swap1\n      pop\n        /* \"#utility.yul\":3217:3319   */\n      swap2\n      swap1\n      pop\n      jump\t// out\n        /* \"#utility.yul\":3325:3698   */\n    tag_66:\n        /* \"#utility.yul\":3411:3414   */\n      0x00\n        /* \"#utility.yul\":3439:3477   */\n      tag_138\n        /* \"#utility.yul\":3471:3476   */\n      dup3\n        /* \"#utility.yul\":3439:3477   */\n      tag_62\n      jump\t// in\n    tag_138:\n        /* \"#utility.yul\":3493:3563   */\n      tag_139\n        /* \"#utility.yul\":3556:3562   */\n      dup2\n        /* \"#utility.yul\":3551:3554   */\n      dup6\n        /* \"#utility.yul\":3493:3563   */\n      tag_63\n      jump\t// in\n    tag_139:\n        /* \"#utility.yul\":3486:3563   */\n      swap4\n      pop\n        /* \"#utility.yul\":3572:3637   */\n      tag_140\n        /* \"#utility.yul\":3630:3636   */\n      dup2\n        /* \"#utility.yul\":3625:3628   */\n      dup6\n        /* \"#utility.yul\":3618:3622   */\n      0x20\n        /* \"#utility.yul\":3611:3616   */\n      dup7\n        /* \"#utility.yul\":3607:3623   */\n      add\n        /* \"#utility.yul\":3572:3637   */\n      tag_64\n      jump\t// in\n    tag_140:\n        /* \"#utility.yul\":3662:3691   */\n      tag_141\n        /* \"#utility.yul\":3684:3690   */\n      dup2\n        /* \"#utility.yul\":3662:3691   */\n      tag_65\n      jump\t// in\n    tag_141:\n        /* \"#utility.yul\":3657:3660   */\n      dup5\n        /* \"#utility.yul\":3653:3692   */\n      add\n        /* \"#utility.yul\":3646:3692   */\n      swap2\n      pop\n        /* \"#utility.yul\":3415:3698   */\n      pop\n        /* \"#utility.yul\":3325:3698   */\n      swap3\n      swap2\n      pop\n      pop\n      jump\t// out\n        /* \"#utility.yul\":3704:4013   */\n    tag_16:\n        /* \"#utility.yul\":3815:3819   */\n      0x00\n        /* \"#utility.yul\":3853:3855   */\n      0x20\n        /* \"#utility.yul\":3842:3851   */\n      dup3\n        /* \"#utility.yul\":3838:3856   */\n      add\n        /* \"#utility.yul\":3830:3856   */\n      swap1\n      pop\n        /* \"#utility.yul\":3902:3911   */\n      dup2\n        /* \"#utility.yul\":3896:3900   */\n      dup2\n        /* \"#utility.yul\":3892:3912   */\n      sub\n        /* \"#utility.yul\":3888:3889   */\n      0x00\n        /* \"#utility.yul\":3877:3886   */\n      dup4\n        /* \"#utility.yul\":3873:3890   */\n      add\n        /* \"#utility.yul\":3866:3913   */\n      mstore\n        /* \"#utility.yul\":3930:4006   */\n      tag_143\n        /* \"#utility.yul\":4001:4005   */\n      dup2\n        /* \"#utility.yul\":3992:3998   */\n      dup5\n        /* \"#utility.yul\":3930:4006   */\n      tag_66\n      jump\t// in\n    tag_143:\n        /* \"#utility.yul\":3922:4006   */\n      swap1\n      pop\n        /* \"#utility.yul\":3704:4013   */\n      swap3\n      swap2\n      pop\n      pop\n      jump\t// out\n        /* \"#utility.yul\":4019:4109   */\n    tag_67:\n        /* \"#utility.yul\":4053:4060   */\n      0x00\n        /* \"#utility.yul\":4096:4101   */\n      dup2\n        /* \"#utility.yul\":4089:4102   */\n      iszero\n        /* \"#utility.yul\":4082:4103   */\n      iszero\n        /* \"#utility.yul\":4071:4103   */\n      swap1\n      pop\n        /* \"#utility.yul\":4019:4109   */\n      swap2\n      swap1\n      pop\n      jump\t// out\n        /* \"#utility.yul\":4115:4224   */\n    tag_68:\n        /* \"#utility.yul\":4196:4217   */\n      tag_146\n        /* \"#utility.yul\":4211:4216   */\n      dup2\n        /* \"#utility.yul\":4196:4217   */\n      tag_67\n      jump\t// in\n    tag_146:\n        /* \"#utility.yul\":4191:4194   */\n      dup3\n        /* \"#utility.yul\":4184:4218   */\n      mstore\n        /* \"#utility.yul\":4115:4224   */\n      pop\n      pop\n      jump\t// out\n        /* \"#utility.yul\":4230:4440   */\n    tag_21:\n        /* \"#utility.yul\":4317:4321   */\n      0x00\n        /* \"#utility.yul\":4355:4357   */\n      0x20\n        /* \"#utility.yul\":4344:4353   */\n      dup3\n        /* \"#utility.yul\":4340:4358   */\n      add\n        /* \"#utility.yul\":4332:4358   */\n      swap1\n      pop\n        /* \"#utility.yul\":4368:4433   */\n      tag_148\n        /* \"#utility.yul\":4430:4431   */\n      0x00\n        /* \"#utility.yul\":4419:4428   */\n      dup4\n        /* \"#utility.yul\":4415:4432   */\n      add\n        /* \"#utility.yul\":4406:4412   */\n      dup5\n        /* \"#utility.yul\":4368:4433   */\n      tag_68\n      jump\t// in\n    tag_148:\n        /* \"#utility.yul\":4230:4440   */\n      swap3\n      swap2\n      pop\n      pop\n      jump\t// out\n        /* \"#utility.yul\":4446:4564   */\n    tag_69:\n        /* \"#utility.yul\":4533:4557   */\n      tag_150\n        /* \"#utility.yul\":4551:4556   */\n      dup2\n        /* \"#utility.yul\":4533:4557   */\n      tag_55\n      jump\t// in\n    tag_150:\n        /* \"#utility.yul\":4528:4531   */\n      dup3\n        /* \"#utility.yul\":4521:4558   */\n      mstore\n        /* \"#utility.yul\":4446:4564   */\n      pop\n      pop\n      jump\t// out\n        /* \"#utility.yul\":4570:4792   */\n    tag_25:\n        /* \"#utility.yul\":4663:4667   */\n      0x00\n        /* \"#utility.yul\":4701:4703   */\n      0x20\n        /* \"#utility.yul\":4690:4699   */\n      dup3\n        /* \"#utility.yul\":4686:4704   */\n      add\n        /* \"#utility.yul\":4678:4704   */\n      swap1\n      pop\n        /* \"#utility.yul\":4714:4785   */\n      tag_152\n        /* \"#utility.yul\":4782:4783   */\n      0x00\n        /* \"#utility.yul\":4771:4780   */\n      dup4\n        /* \"#utility.yul\":4767:4784   */\n      add\n        /* \"#utility.yul\":4758:4764   */\n      dup5\n        /* \"#utility.yul\":4714:4785   */\n      tag_69\n      jump\t// in\n    tag_152:\n        /* \"#utility.yul\":4570:4792   */\n      swap3\n      swap2\n      pop\n      pop\n      jump\t// out\n        /* \"#utility.yul\":4798:4967   */\n    tag_70:\n        /* \"#utility.yul\":4882:4893   */\n      0x00\n        /* \"#utility.yul\":4916:4922   */\n      dup3\n        /* \"#utility.yul\":4911:4914   */\n      dup3\n        /* \"#utility.yul\":4904:4923   */\n      mstore\n        /* \"#utility.yul\":4956:4960   */\n      0x20\n        /* \"#utility.yul\":4951:4954   */\n      dup3\n        /* \"#utility.yul\":4947:4961   */\n      add\n        /* \"#utility.yul\":4932:4961   */\n      swap1\n      pop\n        /* \"#utility.yul\":4798:4967   */\n      swap3\n      swap2\n      pop\n      pop\n      jump\t// out\n        /* \"#utility.yul\":4973:5193   */\n    tag_71:\n        /* \"#utility.yul\":5113:5147   */\n      0x41646d696e436f6e74726163743a20556e6775656c7469676520416472657373\n        /* \"#utility.yul\":5109:5110   */\n      0x00\n        /* \"#utility.yul\":5101:5107   */\n      dup3\n        /* \"#utility.yul\":5097:5111   */\n      add\n        /* \"#utility.yul\":5090:5148   */\n      mstore\n        /* \"#utility.yul\":5182:5185   */\n      0x6500000000000000000000000000000000000000000000000000000000000000\n        /* \"#utility.yul\":5177:5179   */\n      0x20\n        /* \"#utility.yul\":5169:5175   */\n      dup3\n        /* \"#utility.yul\":5165:5180   */\n      add\n        /* \"#utility.yul\":5158:5186   */\n      mstore\n        /* \"#utility.yul\":4973:5193   */\n      pop\n      jump\t// out\n        /* \"#utility.yul\":5199:5565   */\n    tag_72:\n        /* \"#utility.yul\":5341:5344   */\n      0x00\n        /* \"#utility.yul\":5362:5429   */\n      tag_156\n        /* \"#utility.yul\":5426:5428   */\n      0x21\n        /* \"#utility.yul\":5421:5424   */\n      dup4\n        /* \"#utility.yul\":5362:5429   */\n      tag_70\n      jump\t// in\n    tag_156:\n        /* \"#utility.yul\":5355:5429   */\n      swap2\n      pop\n        /* \"#utility.yul\":5438:5531   */\n      tag_157\n        /* \"#utility.yul\":5527:5530   */\n      dup3\n        /* \"#utility.yul\":5438:5531   */\n      tag_71\n      jump\t// in\n    tag_157:\n        /* \"#utility.yul\":5556:5558   */\n      0x40\n        /* \"#utility.yul\":5551:5554   */\n      dup3\n        /* \"#utility.yul\":5547:5559   */\n      add\n        /* \"#utility.yul\":5540:5559   */\n      swap1\n      pop\n        /* \"#utility.yul\":5199:5565   */\n      swap2\n      swap1\n      pop\n      jump\t// out\n        /* \"#utility.yul\":5571:5990   */\n    tag_29:\n        /* \"#utility.yul\":5737:5741   */\n      0x00\n        /* \"#utility.yul\":5775:5777   */\n      0x20\n        /* \"#utility.yul\":5764:5773   */\n      dup3\n        /* \"#utility.yul\":5760:5778   */\n      add\n        /* \"#utility.yul\":5752:5778   */\n      swap1\n      pop\n        /* \"#utility.yul\":5824:5833   */\n      dup2\n        /* \"#utility.yul\":5818:5822   */\n      dup2\n        /* \"#utility.yul\":5814:5834   */\n      sub\n        /* \"#utility.yul\":5810:5811   */\n      0x00\n        /* \"#utility.yul\":5799:5808   */\n      dup4\n        /* \"#utility.yul\":5795:5812   */\n      add\n        /* \"#utility.yul\":5788:5835   */\n      mstore\n        /* \"#utility.yul\":5852:5983   */\n      tag_159\n        /* \"#utility.yul\":5978:5982   */\n      dup2\n        /* \"#utility.yul\":5852:5983   */\n      tag_72\n      jump\t// in\n    tag_159:\n        /* \"#utility.yul\":5844:5983   */\n      swap1\n      pop\n        /* \"#utility.yul\":5571:5990   */\n      swap2\n      swap1\n      pop\n      jump\t// out\n        /* \"#utility.yul\":5996:6229   */\n    tag_73:\n        /* \"#utility.yul\":6136:6170   */\n      0x41646d696e436f6e74726163743a205075626c6963204b65792064617266206e\n        /* \"#utility.yul\":6132:6133   */\n      0x00\n        /* \"#utility.yul\":6124:6130   */\n      dup3\n        /* \"#utility.yul\":6120:6134   */\n      add\n        /* \"#utility.yul\":6113:6171   */\n      mstore\n        /* \"#utility.yul\":6205:6221   */\n      0x69636874206c656572207365696e000000000000000000000000000000000000\n        /* \"#utility.yul\":6200:6202   */\n      0x20\n        /* \"#utility.yul\":6192:6198   */\n      dup3\n        /* \"#utility.yul\":6188:6203   */\n      add\n        /* \"#utility.yul\":6181:6222   */\n      mstore\n        /* \"#utility.yul\":5996:6229   */\n      pop\n      jump\t// out\n        /* \"#utility.yul\":6235:6601   */\n    tag_74:\n        /* \"#utility.yul\":6377:6380   */\n      0x00\n        /* \"#utility.yul\":6398:6465   */\n      tag_162\n        /* \"#utility.yul\":6462:6464   */\n      0x2e\n        /* \"#utility.yul\":6457:6460   */\n      dup4\n        /* \"#utility.yul\":6398:6465   */\n      tag_70\n      jump\t// in\n    tag_162:\n        /* \"#utility.yul\":6391:6465   */\n      swap2\n      pop\n        /* \"#utility.yul\":6474:6567   */\n      tag_163\n        /* \"#utility.yul\":6563:6566   */\n      dup3\n        /* \"#utility.yul\":6474:6567   */\n      tag_73\n      jump\t// in\n    tag_163:\n        /* \"#utility.yul\":6592:6594   */\n      0x40\n        /* \"#utility.yul\":6587:6590   */\n      dup3\n        /* \"#utility.yul\":6583:6595   */\n      add\n        /* \"#utility.yul\":6576:6595   */\n      swap1\n      pop\n        /* \"#utility.yul\":6235:6601   */\n      swap2\n      swap1\n      pop\n      jump\t// out\n        /* \"#utility.yul\":6607:7026   */\n    tag_32:\n        /* \"#utility.yul\":6773:6777   */\n      0x00\n        /* \"#utility.yul\":6811:6813   */\n      0x20\n        /* \"#utility.yul\":6800:6809   */\n      dup3\n        /* \"#utility.yul\":6796:6814   */\n      add\n        /* \"#utility.yul\":6788:6814   */\n      swap1\n      pop\n        /* \"#utility.yul\":6860:6869   */\n      dup2\n        /* \"#utility.yul\":6854:6858   */\n      dup2\n        /* \"#utility.yul\":6850:6870   */\n      sub\n        /* \"#utility.yul\":6846:6847   */\n      0x00\n        /* \"#utility.yul\":6835:6844   */\n      dup4\n        /* \"#utility.yul\":6831:6848   */\n      add\n        /* \"#utility.yul\":6824:6871   */\n      mstore\n        /* \"#utility.yul\":6888:7019   */\n      tag_165\n        /* \"#utility.yul\":7014:7018   */\n      dup2\n        /* \"#utility.yul\":6888:7019   */\n      tag_74\n      jump\t// in\n    tag_165:\n        /* \"#utility.yul\":6880:7019   */\n      swap1\n      pop\n        /* \"#utility.yul\":6607:7026   */\n      swap2\n      swap1\n      pop\n      jump\t// out\n        /* \"#utility.yul\":7032:7260   */\n    tag_75:\n        /* \"#utility.yul\":7172:7206   */\n      0x41646d696e436f6e74726163743a204e75747a65722062657265697473207265\n        /* \"#utility.yul\":7168:7169   */\n      0x00\n        /* \"#utility.yul\":7160:7166   */\n      dup3\n        /* \"#utility.yul\":7156:7170   */\n      add\n        /* \"#utility.yul\":7149:7207   */\n      mstore\n        /* \"#utility.yul\":7241:7252   */\n      0x6769737472696572740000000000000000000000000000000000000000000000\n        /* \"#utility.yul\":7236:7238   */\n      0x20\n        /* \"#utility.yul\":7228:7234   */\n      dup3\n        /* \"#utility.yul\":7224:7239   */\n      add\n        /* \"#utility.yul\":7217:7253   */\n      mstore\n        /* \"#utility.yul\":7032:7260   */\n      pop\n      jump\t// out\n        /* \"#utility.yul\":7266:7632   */\n    tag_76:\n        /* \"#utility.yul\":7408:7411   */\n      0x00\n        /* \"#utility.yul\":7429:7496   */\n      tag_168\n        /* \"#utility.yul\":7493:7495   */\n      0x29\n        /* \"#utility.yul\":7488:7491   */\n      dup4\n        /* \"#utility.yul\":7429:7496   */\n      tag_70\n      jump\t// in\n    tag_168:\n        /* \"#utility.yul\":7422:7496   */\n      swap2\n      pop\n        /* \"#utility.yul\":7505:7598   */\n      tag_169\n        /* \"#utility.yul\":7594:7597   */\n      dup3\n        /* \"#utility.yul\":7505:7598   */\n      tag_75\n      jump\t// in\n    tag_169:\n        /* \"#utility.yul\":7623:7625   */\n      0x40\n        /* \"#utility.yul\":7618:7621   */\n      dup3\n        /* \"#utility.yul\":7614:7626   */\n      add\n        /* \"#utility.yul\":7607:7626   */\n      swap1\n      pop\n        /* \"#utility.yul\":7266:7632   */\n      swap2\n      swap1\n      pop\n      jump\t// out\n        /* \"#utility.yul\":7638:8057   */\n    tag_35:\n        /* \"#utility.yul\":7804:7808   */\n      0x00\n        /* \"#utility.yul\":7842:7844   */\n      0x20\n        /* \"#utility.yul\":7831:7840   */\n      dup3\n        /* \"#utility.yul\":7827:7845   */\n      add\n        /* \"#utility.yul\":7819:7845   */\n      swap1\n      pop\n        /* \"#utility.yul\":7891:7900   */\n      dup2\n        /* \"#utility.yul\":7885:7889   */\n      dup2\n        /* \"#utility.yul\":7881:7901   */\n      sub\n        /* \"#utility.yul\":7877:7878   */\n      0x00\n        /* \"#utility.yul\":7866:7875   */\n      dup4\n        /* \"#utility.yul\":7862:7879   */\n      add\n        /* \"#utility.yul\":7855:7902   */\n      mstore\n        /* \"#utility.yul\":7919:8050   */\n      tag_171\n        /* \"#utility.yul\":8045:8049   */\n      dup2\n        /* \"#utility.yul\":7919:8050   */\n      tag_76\n      jump\t// in\n    tag_171:\n        /* \"#utility.yul\":7911:8050   */\n      swap1\n      pop\n        /* \"#utility.yul\":7638:8057   */\n      swap2\n      swap1\n      pop\n      jump\t// out\n        /* \"#utility.yul\":8063:8159   */\n    tag_77:\n        /* \"#utility.yul\":8121:8127   */\n      0x00\n        /* \"#utility.yul\":8149:8152   */\n      dup3\n        /* \"#utility.yul\":8139:8152   */\n      swap1\n      pop\n        /* \"#utility.yul\":8063:8159   */\n      swap3\n      swap2\n      pop\n      pop\n      jump\t// out\n        /* \"#utility.yul\":8165:8345   */\n    tag_78:\n        /* \"#utility.yul\":8213:8290   */\n      0x4e487b7100000000000000000000000000000000000000000000000000000000\n        /* \"#utility.yul\":8210:8211   */\n      0x00\n        /* \"#utility.yul\":8203:8291   */\n      mstore\n        /* \"#utility.yul\":8310:8314   */\n      0x41\n        /* \"#utility.yul\":8307:8308   */\n      0x04\n        /* \"#utility.yul\":8300:8315   */\n      mstore\n        /* \"#utility.yul\":8334:8338   */\n      0x24\n        /* \"#utility.yul\":8331:8332   */\n      0x00\n        /* \"#utility.yul\":8324:8339   */\n      revert\n        /* \"#utility.yul\":8351:8531   */\n    tag_79:\n        /* \"#utility.yul\":8399:8476   */\n      0x4e487b7100000000000000000000000000000000000000000000000000000000\n        /* \"#utility.yul\":8396:8397   */\n      0x00\n        /* \"#utility.yul\":8389:8477   */\n      mstore\n        /* \"#utility.yul\":8496:8500   */\n      0x22\n        /* \"#utility.yul\":8493:8494   */\n      0x04\n        /* \"#utility.yul\":8486:8501   */\n      mstore\n        /* \"#utility.yul\":8520:8524   */\n      0x24\n        /* \"#utility.yul\":8517:8518   */\n      0x00\n        /* \"#utility.yul\":8510:8525   */\n      revert\n        /* \"#utility.yul\":8537:8857   */\n    tag_45:\n        /* \"#utility.yul\":8581:8587   */\n      0x00\n        /* \"#utility.yul\":8618:8619   */\n      0x02\n        /* \"#utility.yul\":8612:8616   */\n      dup3\n        /* \"#utility.yul\":8608:8620   */\n      div\n        /* \"#utility.yul\":8598:8620   */\n      swap1\n      pop\n        /* \"#utility.yul\":8665:8666   */\n      0x01\n        /* \"#utility.yul\":8659:8663   */\n      dup3\n        /* \"#utility.yul\":8655:8667   */\n      and\n        /* \"#utility.yul\":8686:8704   */\n      dup1\n        /* \"#utility.yul\":8676:8757   */\n      tag_176\n      jumpi\n        /* \"#utility.yul\":8742:8746   */\n      0x7f\n        /* \"#utility.yul\":8734:8740   */\n      dup3\n        /* \"#utility.yul\":8730:8747   */\n      and\n        /* \"#utility.yul\":8720:8747   */\n      swap2\n      pop\n        /* \"#utility.yul\":8676:8757   */\n    tag_176:\n        /* \"#utility.yul\":8804:8806   */\n      0x20\n        /* \"#utility.yul\":8796:8802   */\n      dup3\n        /* \"#utility.yul\":8793:8807   */\n      lt\n        /* \"#utility.yul\":8773:8791   */\n      dup2\n        /* \"#utility.yul\":8770:8808   */\n      sub\n        /* \"#utility.yul\":8767:8851   */\n      tag_177\n      jumpi\n        /* \"#utility.yul\":8823:8841   */\n      tag_178\n      tag_79\n      jump\t// in\n    tag_178:\n        /* \"#utility.yul\":8767:8851   */\n    tag_177:\n        /* \"#utility.yul\":8588:8857   */\n      pop\n        /* \"#utility.yul\":8537:8857   */\n      swap2\n      swap1\n      pop\n      jump\t// out\n        /* \"#utility.yul\":8863:9003   */\n    tag_80:\n        /* \"#utility.yul\":8911:8915   */\n      0x00\n        /* \"#utility.yul\":8934:8937   */\n      dup2\n        /* \"#utility.yul\":8926:8937   */\n      swap1\n      pop\n        /* \"#utility.yul\":8957:8960   */\n      dup2\n        /* \"#utility.yul\":8954:8955   */\n      0x00\n        /* \"#utility.yul\":8947:8961   */\n      mstore\n        /* \"#utility.yul\":8991:8995   */\n      0x20\n        /* \"#utility.yul\":8988:8989   */\n      0x00\n        /* \"#utility.yul\":8978:8996   */\n      keccak256\n        /* \"#utility.yul\":8970:8996   */\n      swap1\n      pop\n        /* \"#utility.yul\":8863:9003   */\n      swap2\n      swap1\n      pop\n      jump\t// out\n        /* \"#utility.yul\":9009:9102   */\n    tag_81:\n        /* \"#utility.yul\":9046:9052   */\n      0x00\n        /* \"#utility.yul\":9093:9095   */\n      0x20\n        /* \"#utility.yul\":9088:9090   */\n      0x1f\n        /* \"#utility.yul\":9081:9086   */\n      dup4\n        /* \"#utility.yul\":9077:9091   */\n      add\n        /* \"#utility.yul\":9073:9096   */\n      div\n        /* \"#utility.yul\":9063:9096   */\n      swap1\n      pop\n        /* \"#utility.yul\":9009:9102   */\n      swap2\n      swap1\n      pop\n      jump\t// out\n        /* \"#utility.yul\":9108:9215   */\n    tag_82:\n        /* \"#utility.yul\":9152:9160   */\n      0x00\n        /* \"#utility.yul\":9202:9207   */\n      dup3\n        /* \"#utility.yul\":9196:9200   */\n      dup3\n        /* \"#utility.yul\":9192:9208   */\n      shl\n        /* \"#utility.yul\":9171:9208   */\n      swap1\n      pop\n        /* \"#utility.yul\":9108:9215   */\n      swap3\n      swap2\n      pop\n      pop\n      jump\t// out\n        /* \"#utility.yul\":9221:9614   */\n    tag_83:\n        /* \"#utility.yul\":9290:9296   */\n      0x00\n        /* \"#utility.yul\":9340:9341   */\n      0x08\n        /* \"#utility.yul\":9328:9338   */\n      dup4\n        /* \"#utility.yul\":9324:9342   */\n      mul\n        /* \"#utility.yul\":9363:9460   */\n      tag_183\n        /* \"#utility.yul\":9393:9459   */\n      0xffffffffffffffffffffffffffffffffffffffffffffffffffffffffffffffff\n        /* \"#utility.yul\":9382:9391   */\n      dup3\n        /* \"#utility.yul\":9363:9460   */\n      tag_82\n      jump\t// in\n    tag_183:\n        /* \"#utility.yul\":9481:9520   */\n      tag_184\n        /* \"#utility.yul\":9511:9519   */\n      dup7\n        /* \"#utility.yul\":9500:9509   */\n      dup4\n        /* \"#utility.yul\":9481:9520   */\n      tag_82\n      jump\t// in\n    tag_184:\n        /* \"#utility.yul\":9469:9520   */\n      swap6\n      pop\n        /* \"#utility.yul\":9553:9557   */\n      dup1\n        /* \"#utility.yul\":9549:9558   */\n      not\n        /* \"#utility.yul\":9542:9547   */\n      dup5\n        /* \"#utility.yul\":9538:9559   */\n      and\n        /* \"#utility.yul\":9529:9559   */\n      swap4\n      pop\n        /* \"#utility.yul\":9602:9606   */\n      dup1\n        /* \"#utility.yul\":9592:9600   */\n      dup7\n        /* \"#utility.yul\":9588:9607   */\n      and\n        /* \"#utility.yul\":9581:9586   */\n      dup5\n        /* \"#utility.yul\":9578:9608   */\n      or\n        /* \"#utility.yul\":9568:9608   */\n      swap3\n      pop\n        /* \"#utility.yul\":9297:9614   */\n      pop\n      pop\n        /* \"#utility.yul\":9221:9614   */\n      swap4\n      swap3\n      pop\n      pop\n      pop\n      jump\t// out\n        /* \"#utility.yul\":9620:9697   */\n    tag_84:\n        /* \"#utility.yul\":9657:9664   */\n      0x00\n        /* \"#utility.yul\":9686:9691   */\n      dup2\n        /* \"#utility.yul\":9675:9691   */\n      swap1\n      pop\n        /* \"#utility.yul\":9620:9697   */\n      swap2\n      swap1\n      pop\n      jump\t// out\n        /* \"#utility.yul\":9703:9763   */\n    tag_85:\n        /* \"#utility.yul\":9731:9734   */\n      0x00\n        /* \"#utility.yul\":9752:9757   */\n      dup2\n        /* \"#utility.yul\":9745:9757   */\n      swap1\n      pop\n        /* \"#utility.yul\":9703:9763   */\n      swap2\n      swap1\n      pop\n      jump\t// out\n        /* \"#utility.yul\":9769:9911   */\n    tag_86:\n        /* \"#utility.yul\":9819:9828   */\n      0x00\n        /* \"#utility.yul\":9852:9905   */\n      tag_188\n        /* \"#utility.yul\":9870:9904   */\n      tag_189\n        /* \"#utility.yul\":9879:9903   */\n      tag_190\n        /* \"#utility.yul\":9897:9902   */\n      dup5\n        /* \"#utility.yul\":9879:9903   */\n      tag_84\n      jump\t// in\n    tag_190:\n        /* \"#utility.yul\":9870:9904   */\n      tag_85\n      jump\t// in\n    tag_189:\n        /* \"#utility.yul\":9852:9905   */\n      tag_84\n      jump\t// in\n    tag_188:\n        /* \"#utility.yul\":9839:9905   */\n      swap1\n      pop\n        /* \"#utility.yul\":9769:9911   */\n      swap2\n      swap1\n      pop\n      jump\t// out\n        /* \"#utility.yul\":9917:9992   */\n    tag_87:\n        /* \"#utility.yul\":9960:9963   */\n      0x00\n        /* \"#utility.yul\":9981:9986   */\n      dup2\n        /* \"#utility.yul\":9974:9986   */\n      swap1\n      pop\n        /* \"#utility.yul\":9917:9992   */\n      swap2\n      swap1\n      pop\n      jump\t// out\n        /* \"#utility.yul\":9998:10267   */\n    tag_88:\n        /* \"#utility.yul\":10108:10147   */\n      tag_193\n        /* \"#utility.yul\":10139:10146   */\n      dup4\n        /* \"#utility.yul\":10108:10147   */\n      tag_86\n      jump\t// in\n    tag_193:\n        /* \"#utility.yul\":10169:10260   */\n      tag_194\n        /* \"#utility.yul\":10218:10259   */\n      tag_195\n        /* \"#utility.yul\":10242:10258   */\n      dup3\n        /* \"#utility.yul\":10218:10259   */\n      tag_87\n      jump\t// in\n    tag_195:\n        /* \"#utility.yul\":10210:10216   */\n      dup5\n        /* \"#utility.yul\":10203:10207   */\n      dup5\n        /* \"#utility.yul\":10197:10208   */\n      sload\n        /* \"#utility.yul\":10169:10260   */\n      tag_83\n      jump\t// in\n    tag_194:\n        /* \"#utility.yul\":10163:10167   */\n      dup3\n        /* \"#utility.yul\":10156:10261   */\n      sstore\n        /* \"#utility.yul\":10074:10267   */\n      pop\n        /* \"#utility.yul\":9998:10267   */\n      pop\n      pop\n      pop\n      jump\t// out\n        /* \"#utility.yul\":10273:10346   */\n    tag_89:\n        /* \"#utility.yul\":10318:10321   */\n      0x00\n        /* \"#utility.yul\":10339:10340   */\n      0x00\n        /* \"#utility.yul\":10332:10340   */\n      swap1\n      pop\n        /* \"#utility.yul\":10273:10346   */\n      swap1\n      jump\t// out\n        /* \"#utility.yul\":10352:10541   */\n    tag_90:\n        /* \"#utility.yul\":10429:10461   */\n      tag_198\n      tag_89\n      jump\t// in\n    tag_198:\n        /* \"#utility.yul\":10470:10535   */\n      tag_199\n        /* \"#utility.yul\":10528:10534   */\n      dup2\n        /* \"#utility.yul\":10520:10526   */\n      dup5\n        /* \"#utility.yul\":10514:10518   */\n      dup5\n        /* \"#utility.yul\":10470:10535   */\n      tag_88\n      jump\t// in\n    tag_199:\n        /* \"#utility.yul\":10405:10541   */\n      pop\n        /* \"#utility.yul\":10352:10541   */\n      pop\n      pop\n      jump\t// out\n        /* \"#utility.yul\":10547:10733   */\n    tag_91:\n        /* \"#utility.yul\":10607:10727   */\n    tag_201:\n        /* \"#utility.yul\":10624:10627   */\n      dup2\n        /* \"#utility.yul\":10617:10622   */\n      dup2\n        /* \"#utility.yul\":10614:10628   */\n      lt\n        /* \"#utility.yul\":10607:10727   */\n      iszero\n      tag_203\n      jumpi\n        /* \"#utility.yul\":10678:10717   */\n      tag_204\n        /* \"#utility.yul\":10715:10716   */\n      0x00\n        /* \"#utility.yul\":10708:10713   */\n      dup3\n        /* \"#utility.yul\":10678:10717   */\n      tag_90\n      jump\t// in\n    tag_204:\n        /* \"#utility.yul\":10651:10652   */\n      0x01\n        /* \"#utility.yul\":10644:10649   */\n      dup2\n        /* \"#utility.yul\":10640:10653   */\n      add\n        /* \"#utility.yul\":10631:10653   */\n      swap1\n      pop\n        /* \"#utility.yul\":10607:10727   */\n      jump(tag_201)\n    tag_203:\n        /* \"#utility.yul\":10547:10733   */\n      pop\n      pop\n      jump\t// out\n        /* \"#utility.yul\":10739:11280   */\n    tag_92:\n        /* \"#utility.yul\":10839:10841   */\n      0x1f\n        /* \"#utility.yul\":10834:10837   */\n      dup3\n        /* \"#utility.yul\":10831:10842   */\n      gt\n        /* \"#utility.yul\":10828:11273   */\n      iszero\n      tag_206\n      jumpi\n        /* \"#utility.yul\":10873:10910   */\n      tag_207\n        /* \"#utility.yul\":10904:10909   */\n      dup2\n        /* \"#utility.yul\":10873:10910   */\n      tag_80\n      jump\t// in\n    tag_207:\n        /* \"#utility.yul\":10956:10985   */\n      tag_208\n        /* \"#utility.yul\":10974:10984   */\n      dup5\n        /* \"#utility.yul\":10956:10985   */\n      tag_81\n      jump\t// in\n    tag_208:\n        /* \"#utility.yul\":10946:10954   */\n      dup2\n        /* \"#utility.yul\":10942:10986   */\n      add\n        /* \"#utility.yul\":11139:11141   */\n      0x20\n        /* \"#utility.yul\":11127:11137   */\n      dup6\n        /* \"#utility.yul\":11124:11142   */\n      lt\n        /* \"#utility.yul\":11121:11170   */\n      iszero\n      tag_209\n      jumpi\n        /* \"#utility.yul\":11160:11168   */\n      dup2\n        /* \"#utility.yul\":11145:11168   */\n      swap1\n      pop\n        /* \"#utility.yul\":11121:11170   */\n    tag_209:\n        /* \"#utility.yul\":11183:11263   */\n      tag_210\n        /* \"#utility.yul\":11239:11261   */\n      tag_211\n        /* \"#utility.yul\":11257:11260   */\n      dup6\n        /* \"#utility.yul\":11239:11261   */\n      tag_81\n      jump\t// in\n    tag_211:\n        /* \"#utility.yul\":11229:11237   */\n      dup4\n        /* \"#utility.yul\":11225:11262   */\n      add\n        /* \"#utility.yul\":11212:11223   */\n      dup3\n        /* \"#utility.yul\":11183:11263   */\n      tag_91\n      jump\t// in\n    tag_210:\n        /* \"#utility.yul\":10843:11273   */\n      pop\n      pop\n        /* \"#utility.yul\":10828:11273   */\n    tag_206:\n        /* \"#utility.yul\":10739:11280   */\n      pop\n      pop\n      pop\n      jump\t// out\n        /* \"#utility.yul\":11286:11403   */\n    tag_93:\n        /* \"#utility.yul\":11340:11348   */\n      0x00\n        /* \"#utility.yul\":11390:11395   */\n      dup3\n        /* \"#utility.yul\":11384:11388   */\n      dup3\n        /* \"#utility.yul\":11380:11396   */\n      shr\n        /* \"#utility.yul\":11359:11396   */\n      swap1\n      pop\n        /* \"#utility.yul\":11286:11403   */\n      swap3\n      swap2\n      pop\n      pop\n      jump\t// out\n        /* \"#utility.yul\":11409:11578   */\n    tag_94:\n        /* \"#utility.yul\":11453:11459   */\n      0x00\n        /* \"#utility.yul\":11486:11537   */\n      tag_214\n        /* \"#utility.yul\":11534:11535   */\n      0x00\n        /* \"#utility.yul\":11530:11536   */\n      not\n        /* \"#utility.yul\":11522:11527   */\n      dup5\n        /* \"#utility.yul\":11519:11520   */\n      0x08\n        /* \"#utility.yul\":11515:11528   */\n      mul\n        /* \"#utility.yul\":11486:11537   */\n      tag_93\n      jump\t// in\n    tag_214:\n        /* \"#utility.yul\":11482:11538   */\n      not\n        /* \"#utility.yul\":11567:11571   */\n      dup1\n        /* \"#utility.yul\":11561:11565   */\n      dup4\n        /* \"#utility.yul\":11557:11572   */\n      and\n        /* \"#utility.yul\":11547:11572   */\n      swap2\n      pop\n        /* \"#utility.yul\":11460:11578   */\n      pop\n        /* \"#utility.yul\":11409:11578   */\n      swap3\n      swap2\n      pop\n      pop\n      jump\t// out\n        /* \"#utility.yul\":11583:11878   */\n    tag_95:\n        /* \"#utility.yul\":11659:11663   */\n      0x00\n        /* \"#utility.yul\":11805:11834   */\n      tag_216\n        /* \"#utility.yul\":11830:11833   */\n      dup4\n        /* \"#utility.yul\":11824:11828   */\n      dup4\n        /* \"#utility.yul\":11805:11834   */\n      tag_94\n      jump\t// in\n    tag_216:\n        /* \"#utility.yul\":11797:11834   */\n      swap2\n      pop\n        /* \"#utility.yul\":11867:11870   */\n      dup3\n        /* \"#utility.yul\":11864:11865   */\n      0x02\n        /* \"#utility.yul\":11860:11871   */\n      mul\n        /* \"#utility.yul\":11854:11858   */\n      dup3\n        /* \"#utility.yul\":11851:11872   */\n      or\n        /* \"#utility.yul\":11843:11872   */\n      swap1\n      pop\n        /* \"#utility.yul\":11583:11878   */\n      swap3\n      swap2\n      pop\n      pop\n      jump\t// out\n        /* \"#utility.yul\":11883:13281   */\n    tag_37:\n        /* \"#utility.yul\":12005:12048   */\n      tag_218\n        /* \"#utility.yul\":12044:12047   */\n      dup4\n        /* \"#utility.yul\":12039:12042   */\n      dup4\n        /* \"#utility.yul\":12005:12048   */\n      tag_77\n      jump\t// in\n    tag_218:\n        /* \"#utility.yul\":12113:12131   */\n      0xffffffffffffffff\n        /* \"#utility.yul\":12105:12111   */\n      dup2\n        /* \"#utility.yul\":12102:12132   */\n      gt\n        /* \"#utility.yul\":12099:12155   */\n      iszero\n      tag_219\n      jumpi\n        /* \"#utility.yul\":12135:12153   */\n      tag_220\n      tag_78\n      jump\t// in\n    tag_220:\n        /* \"#utility.yul\":12099:12155   */\n    tag_219:\n        /* \"#utility.yul\":12179:12217   */\n      tag_221\n        /* \"#utility.yul\":12211:12215   */\n      dup3\n        /* \"#utility.yul\":12205:12216   */\n      sload\n        /* \"#utility.yul\":12179:12217   */\n      tag_45\n      jump\t// in\n    tag_221:\n        /* \"#utility.yul\":12264:12330   */\n      tag_222\n        /* \"#utility.yul\":12323:12329   */\n      dup3\n        /* \"#utility.yul\":12315:12321   */\n      dup3\n        /* \"#utility.yul\":12309:12313   */\n      dup6\n        /* \"#utility.yul\":12264:12330   */\n      tag_92\n      jump\t// in\n    tag_222:\n        /* \"#utility.yul\":12357:12358   */\n      0x00\n        /* \"#utility.yul\":12386:12388   */\n      0x1f\n        /* \"#utility.yul\":12378:12384   */\n      dup4\n        /* \"#utility.yul\":12375:12389   */\n      gt\n        /* \"#utility.yul\":12403:12404   */\n      0x01\n        /* \"#utility.yul\":12398:13029   */\n      dup2\n      eq\n      tag_224\n      jumpi\n        /* \"#utility.yul\":13073:13074   */\n      0x00\n        /* \"#utility.yul\":13090:13096   */\n      dup5\n        /* \"#utility.yul\":13087:13171   */\n      iszero\n      tag_225\n      jumpi\n        /* \"#utility.yul\":13146:13155   */\n      dup3\n        /* \"#utility.yul\":13141:13144   */\n      dup8\n        /* \"#utility.yul\":13137:13156   */\n      add\n        /* \"#utility.yul\":13124:13157   */\n      calldataload\n        /* \"#utility.yul\":13115:13157   */\n      swap1\n      pop\n        /* \"#utility.yul\":13087:13171   */\n    tag_225:\n        /* \"#utility.yul\":13197:13264   */\n      tag_226\n        /* \"#utility.yul\":13257:13263   */\n      dup6\n        /* \"#utility.yul\":13250:13255   */\n      dup3\n        /* \"#utility.yul\":13197:13264   */\n      tag_95\n      jump\t// in\n    tag_226:\n        /* \"#utility.yul\":13191:13195   */\n      dup7\n        /* \"#utility.yul\":13184:13265   */\n      sstore\n        /* \"#utility.yul\":13046:13275   */\n      pop\n        /* \"#utility.yul\":12368:13275   */\n      jump(tag_223)\n        /* \"#utility.yul\":12398:13029   */\n    tag_224:\n        /* \"#utility.yul\":12450:12454   */\n      0x1f\n        /* \"#utility.yul\":12446:12455   */\n      not\n        /* \"#utility.yul\":12438:12444   */\n      dup5\n        /* \"#utility.yul\":12434:12456   */\n      and\n        /* \"#utility.yul\":12484:12520   */\n      tag_227\n        /* \"#utility.yul\":12515:12519   */\n      dup7\n        /* \"#utility.yul\":12484:12520   */\n      tag_80\n      jump\t// in\n    tag_227:\n        /* \"#utility.yul\":12542:12543   */\n      0x00\n        /* \"#utility.yul\":12556:12771   */\n    tag_228:\n        /* \"#utility.yul\":12570:12577   */\n      dup3\n        /* \"#utility.yul\":12567:12568   */\n      dup2\n        /* \"#utility.yul\":12564:12578   */\n      lt\n        /* \"#utility.yul\":12556:12771   */\n      iszero\n      tag_230\n      jumpi\n        /* \"#utility.yul\":12656:12665   */\n      dup5\n        /* \"#utility.yul\":12651:12654   */\n      dup10\n        /* \"#utility.yul\":12647:12666   */\n      add\n        /* \"#utility.yul\":12634:12667   */\n      calldataload\n        /* \"#utility.yul\":12626:12632   */\n      dup3\n        /* \"#utility.yul\":12619:12668   */\n      sstore\n        /* \"#utility.yul\":12707:12708   */\n      0x01\n        /* \"#utility.yul\":12699:12705   */\n      dup3\n        /* \"#utility.yul\":12695:12709   */\n      add\n        /* \"#utility.yul\":12685:12709   */\n      swap2\n      pop\n        /* \"#utility.yul\":12754:12756   */\n      0x20\n        /* \"#utility.yul\":12743:12752   */\n      dup6\n        /* \"#utility.yul\":12739:12757   */\n      add\n        /* \"#utility.yul\":12726:12757   */\n      swap5\n      pop\n        /* \"#utility.yul\":12593:12597   */\n      0x20\n        /* \"#utility.yul\":12590:12591   */\n      dup2\n        /* \"#utility.yul\":12586:12598   */\n      add\n        /* \"#utility.yul\":12581:12598   */\n      swap1\n      pop\n        /* \"#utility.yul\":12556:12771   */\n      jump(tag_228)\n    tag_230:\n        /* \"#utility.yul\":12799:12805   */\n      dup7\n        /* \"#utility.yul\":12790:12797   */\n      dup4\n        /* \"#utility.yul\":12787:12806   */\n      lt\n        /* \"#utility.yul\":12784:12970   */\n      iszero\n      tag_231\n      jumpi\n        /* \"#utility.yul\":12864:12873   */\n      dup5\n        /* \"#utility.yul\":12859:12862   */\n      dup10\n        /* \"#utility.yul\":12855:12874   */\n      add\n        /* \"#utility.yul\":12842:12875   */\n      calldataload\n        /* \"#utility.yul\":12907:12955   */\n      tag_232\n        /* \"#utility.yul\":12949:12953   */\n      0x1f\n        /* \"#utility.yul\":12941:12947   */\n      dup10\n        /* \"#utility.yul\":12937:12954   */\n      and\n        /* \"#utility.yul\":12926:12935   */\n      dup3\n        /* \"#utility.yul\":12907:12955   */\n      tag_94\n      jump\t// in\n    tag_232:\n        /* \"#utility.yul\":12899:12905   */\n      dup4\n        /* \"#utility.yul\":12892:12956   */\n      sstore\n        /* \"#utility.yul\":12807:12970   */\n      pop\n        /* \"#utility.yul\":12784:12970   */\n    tag_231:\n        /* \"#utility.yul\":13016:13017   */\n      0x01\n        /* \"#utility.yul\":13012:13013   */\n      0x02\n        /* \"#utility.yul\":13004:13010   */\n      dup9\n        /* \"#utility.yul\":13000:13014   */\n      mul\n        /* \"#utility.yul\":12996:13018   */\n      add\n        /* \"#utility.yul\":12990:12994   */\n      dup9\n        /* \"#utility.yul\":12983:13019   */\n      sstore\n        /* \"#utility.yul\":12405:13029   */\n      pop\n      pop\n      pop\n        /* \"#utility.yul\":12368:13275   */\n    tag_223:\n      pop\n        /* \"#utility.yul\":11980:13281   */\n      pop\n      pop\n      pop\n        /* \"#utility.yul\":11883:13281   */\n      pop\n      pop\n      pop\n      jump\t// out\n        /* \"#utility.yul\":13287:13435   */\n    tag_96:\n        /* \"#utility.yul\":13385:13391   */\n      dup3\n        /* \"#utility.yul\":13380:13383   */\n      dup2\n        /* \"#utility.yul\":13375:13378   */\n      dup4\n        /* \"#utility.yul\":13362:13392   */\n      calldatacopy\n        /* \"#utility.yul\":13426:13427   */\n      0x00\n        /* \"#utility.yul\":13417:13423   */\n      dup4\n        /* \"#utility.yul\":13412:13415   */\n      dup4\n        /* \"#utility.yul\":13408:13424   */\n      add\n        /* \"#utility.yul\":13401:13428   */\n      mstore\n        /* \"#utility.yul\":13287:13435   */\n      pop\n      pop\n      pop\n      jump\t// out\n        /* \"#utility.yul\":13463:13777   */\n    tag_97:\n        /* \"#utility.yul\":13559:13562   */\n      0x00\n        /* \"#utility.yul\":13580:13650   */\n      tag_235\n        /* \"#utility.yul\":13643:13649   */\n      dup4\n        /* \"#utility.yul\":13638:13641   */\n      dup6\n        /* \"#utility.yul\":13580:13650   */\n      tag_63\n      jump\t// in\n    tag_235:\n        /* \"#utility.yul\":13573:13650   */\n      swap4\n      pop\n        /* \"#utility.yul\":13660:13716   */\n      tag_236\n        /* \"#utility.yul\":13709:13715   */\n      dup4\n        /* \"#utility.yul\":13704:13707   */\n      dup6\n        /* \"#utility.yul\":13697:13702   */\n      dup5\n        /* \"#utility.yul\":13660:13716   */\n      tag_96\n      jump\t// in\n    tag_236:\n        /* \"#utility.yul\":13741:13770   */\n      tag_237\n        /* \"#utility.yul\":13763:13769   */\n      dup4\n        /* \"#utility.yul\":13741:13770   */\n      tag_65\n      jump\t// in\n    tag_237:\n        /* \"#utility.yul\":13736:13739   */\n      dup5\n        /* \"#utility.yul\":13732:13771   */\n      add\n        /* \"#utility.yul\":13725:13771   */\n      swap1\n      pop\n        /* \"#utility.yul\":13463:13777   */\n      swap4\n      swap3\n      pop\n      pop\n      pop\n      jump\t// out\n        /* \"#utility.yul\":13783:14112   */\n    tag_39:\n        /* \"#utility.yul\":13904:13908   */\n      0x00\n        /* \"#utility.yul\":13942:13944   */\n      0x20\n        /* \"#utility.yul\":13931:13940   */\n      dup3\n        /* \"#utility.yul\":13927:13945   */\n      add\n        /* \"#utility.yul\":13919:13945   */\n      swap1\n      pop\n        /* \"#utility.yul\":13991:14000   */\n      dup2\n        /* \"#utility.yul\":13985:13989   */\n      dup2\n        /* \"#utility.yul\":13981:14001   */\n      sub\n        /* \"#utility.yul\":13977:13978   */\n      0x00\n        /* \"#utility.yul\":13966:13975   */\n      dup4\n        /* \"#utility.yul\":13962:13979   */\n      add\n        /* \"#utility.yul\":13955:14002   */\n      mstore\n        /* \"#utility.yul\":14019:14105   */\n      tag_239\n        /* \"#utility.yul\":14100:14104   */\n      dup2\n        /* \"#utility.yul\":14091:14097   */\n      dup5\n        /* \"#utility.yul\":14083:14089   */\n      dup7\n        /* \"#utility.yul\":14019:14105   */\n      tag_97\n      jump\t// in\n    tag_239:\n        /* \"#utility.yul\":14011:14105   */\n      swap1\n      pop\n        /* \"#utility.yul\":13783:14112   */\n      swap4\n      swap3\n      pop\n      pop\n      pop\n      jump\t// out\n        /* \"#utility.yul\":14118:14344   */\n    tag_98:\n        /* \"#utility.yul\":14258:14292   */\n      0x41646d696e436f6e74726163743a204e75747a6572206e696368742072656769\n        /* \"#utility.yul\":14254:14255   */\n      0x00\n        /* \"#utility.yul\":14246:14252   */\n      dup3\n        /* \"#utility.yul\":14242:14256   */\n      add\n        /* \"#utility.yul\":14235:14293   */\n      mstore\n        /* \"#utility.yul\":14327:14336   */\n      0x7374726965727400000000000000000000000000000000000000000000000000\n        /* \"#utility.yul\":14322:14324   */\n      0x20\n        /* \"#utility.yul\":14314:14320   */\n      dup3\n        /* \"#utility.yul\":14310:14325   */\n      add\n        /* \"#utility.yul\":14303:14337   */\n      mstore\n        /* \"#utility.yul\":14118:14344   */\n      pop\n      jump\t// out\n        /* \"#utility.yul\":14350:14716   */\n    tag_99:\n        /* \"#utility.yul\":14492:14495   */\n      0x00\n        /* \"#utility.yul\":14513:14580   */\n      tag_242\n        /* \"#utility.yul\":14577:14579   */\n      0x27\n        /* \"#utility.yul\":14572:14575   */\n      dup4\n        /* \"#utility.yul\":14513:14580   */\n      tag_70\n      jump\t// in\n    tag_242:\n        /* \"#utility.yul\":14506:14580   */\n      swap2\n      pop\n        /* \"#utility.yul\":14589:14682   */\n      tag_243\n        /* \"#utility.yul\":14678:14681   */\n      dup3\n        /* \"#utility.yul\":14589:14682   */\n      tag_98\n      jump\t// in\n    tag_243:\n        /* \"#utility.yul\":14707:14709   */\n      0x40\n        /* \"#utility.yul\":14702:14705   */\n      dup3\n        /* \"#utility.yul\":14698:14710   */\n      add\n        /* \"#utility.yul\":14691:14710   */\n      swap1\n      pop\n        /* \"#utility.yul\":14350:14716   */\n      swap2\n      swap1\n      pop\n      jump\t// out\n        /* \"#utility.yul\":14722:15141   */\n    tag_43:\n        /* \"#utility.yul\":14888:14892   */\n      0x00\n        /* \"#utility.yul\":14926:14928   */\n      0x20\n        /* \"#utility.yul\":14915:14924   */\n      dup3\n        /* \"#utility.yul\":14911:14929   */\n      add\n        /* \"#utility.yul\":14903:14929   */\n      swap1\n      pop\n        /* \"#utility.yul\":14975:14984   */\n      dup2\n        /* \"#utility.yul\":14969:14973   */\n      dup2\n        /* \"#utility.yul\":14965:14985   */\n      sub\n        /* \"#utility.yul\":14961:14962   */\n      0x00\n        /* \"#utility.yul\":14950:14959   */\n      dup4\n        /* \"#utility.yul\":14946:14963   */\n      add\n        /* \"#utility.yul\":14939:14986   */\n      mstore\n        /* \"#utility.yul\":15003:15134   */\n      tag_245\n        /* \"#utility.yul\":15129:15133   */\n      dup2\n        /* \"#utility.yul\":15003:15134   */\n      tag_99\n      jump\t// in\n    tag_245:\n        /* \"#utility.yul\":14995:15134   */\n      swap1\n      pop\n        /* \"#utility.yul\":14722:15141   */\n      swap2\n      swap1\n      pop\n      jump\t// out\n\n    auxdata: 0xa2646970667358221220d8a96e4387b203ffdefd4c418717389f9b47329792b55512292eaf07b528b1ab64736f6c634300081f0033\n}\n",
				"bytecode": {
					"linkReferences": {},
					"object": "60a0604052348015600e575f5ffd5b503373ffffffffffffffffffffffffffffffffffffffff1660808173ffffffffffffffffffffffffffffffffffffffff1681525050608051610cff61005b5f395f6104c30152610cff5ff3fe608060405234801561000f575f5ffd5b506004361061004a575f3560e01c806304b43ec01461004e578063857cdbb81461006a578063c3c5a5471461009a578063f851a440146100ca575b5f5ffd5b610068600480360381019061006391906105a8565b6100e8565b005b610084600480360381019061007f9190610605565b61031a565b60405161009191906106a0565b60405180910390f35b6100b460048036038101906100af9190610605565b61046f565b6040516100c191906106da565b60405180910390f35b6100d26104c1565b6040516100df9190610702565b60405180910390f35b5f73ffffffffffffffffffffffffffffffffffffffff168373ffffffffffffffffffffffffffffffffffffffff1603610156576040517f08c379a000000000000000000000000000000000000000000000000000000000815260040161014d9061079b565b60405180910390fd5b5f828290501161019b576040517f08c379a000000000000000000000000000000000000000000000000000000000815260040161019290610829565b60405180910390fd5b60015f8473ffffffffffffffffffffffffffffffffffffffff1673ffffffffffffffffffffffffffffffffffffffff1681526020019081526020015f205f9054906101000a900460ff1615610225576040517f08c379a000000000000000000000000000000000000000000000000000000000815260040161021c906108b7565b60405180910390fd5b6001805f8573ffffffffffffffffffffffffffffffffffffffff1673ffffffffffffffffffffffffffffffffffffffff1681526020019081526020015f205f6101000a81548160ff02191690831515021790555081815f5f8673ffffffffffffffffffffffffffffffffffffffff1673ffffffffffffffffffffffffffffffffffffffff1681526020019081526020015f2091826102c4929190610b12565b508273ffffffffffffffffffffffffffffffffffffffff167fb4e474a799db1c21852b730a8ac43394df2133bba1b219242c78954109a980a1838360405161030d929190610c19565b60405180910390a2505050565b606060015f8373ffffffffffffffffffffffffffffffffffffffff1673ffffffffffffffffffffffffffffffffffffffff1681526020019081526020015f205f9054906101000a900460ff166103a5576040517f08c379a000000000000000000000000000000000000000000000000000000000815260040161039c90610cab565b60405180910390fd5b5f5f8373ffffffffffffffffffffffffffffffffffffffff1673ffffffffffffffffffffffffffffffffffffffff1681526020019081526020015f2080546103ec90610939565b80601f016020809104026020016040519081016040528092919081815260200182805461041890610939565b80156104635780601f1061043a57610100808354040283529160200191610463565b820191905f5260205f20905b81548152906001019060200180831161044657829003601f168201915b50505050509050919050565b5f60015f8373ffffffffffffffffffffffffffffffffffffffff1673ffffffffffffffffffffffffffffffffffffffff1681526020019081526020015f205f9054906101000a900460ff169050919050565b7f000000000000000000000000000000000000000000000000000000000000000081565b5f5ffd5b5f5ffd5b5f73ffffffffffffffffffffffffffffffffffffffff82169050919050565b5f610516826104ed565b9050919050565b6105268161050c565b8114610530575f5ffd5b50565b5f813590506105418161051d565b92915050565b5f5ffd5b5f5ffd5b5f5ffd5b5f5f83601f84011261056857610567610547565b5b8235905067ffffffffffffffff8111156105855761058461054b565b5b6020830191508360018202830111156105a1576105a061054f565b5b9250929050565b5f5f5f604084860312156105bf576105be6104e5565b5b5f6105cc86828701610533565b935050602084013567ffffffffffffffff8111156105ed576105ec6104e9565b5b6105f986828701610553565b92509250509250925092565b5f6020828403121561061a576106196104e5565b5b5f61062784828501610533565b91505092915050565b5f81519050919050565b5f82825260208201905092915050565b8281835e5f83830152505050565b5f601f19601f8301169050919050565b5f61067282610630565b61067c818561063a565b935061068c81856020860161064a565b61069581610658565b840191505092915050565b5f6020820190508181035f8301526106b88184610668565b905092915050565b5f8115159050919050565b6106d4816106c0565b82525050565b5f6020820190506106ed5f8301846106cb565b92915050565b6106fc8161050c565b82525050565b5f6020820190506107155f8301846106f3565b92915050565b5f82825260208201905092915050565b7f41646d696e436f6e74726163743a20556e6775656c74696765204164726573735f8201527f6500000000000000000000000000000000000000000000000000000000000000602082015250565b5f61078560218361071b565b91506107908261072b565b604082019050919050565b5f6020820190508181035f8301526107b281610779565b9050919050565b7f41646d696e436f6e74726163743a205075626c6963204b65792064617266206e5f8201527f69636874206c656572207365696e000000000000000000000000000000000000602082015250565b5f610813602e8361071b565b915061081e826107b9565b604082019050919050565b5f6020820190508181035f83015261084081610807565b9050919050565b7f41646d696e436f6e74726163743a204e75747a657220626572656974732072655f8201527f6769737472696572740000000000000000000000000000000000000000000000602082015250565b5f6108a160298361071b565b91506108ac82610847565b604082019050919050565b5f6020820190508181035f8301526108ce81610895565b9050919050565b5f82905092915050565b7f4e487b71000000000000000000000000000000000000000000000000000000005f52604160045260245ffd5b7f4e487b71000000000000000000000000000000000000000000000000000000005f52602260045260245ffd5b5f600282049050600182168061095057607f821691505b6020821081036109635761096261090c565b5b50919050565b5f819050815f5260205f209050919050565b5f6020601f8301049050919050565b5f82821b905092915050565b5f600883026109c57fffffffffffffffffffffffffffffffffffffffffffffffffffffffffffffffff8261098a565b6109cf868361098a565b95508019841693508086168417925050509392505050565b5f819050919050565b5f819050919050565b5f610a13610a0e610a09846109e7565b6109f0565b6109e7565b9050919050565b5f819050919050565b610a2c836109f9565b610a40610a3882610a1a565b848454610996565b825550505050565b5f5f905090565b610a57610a48565b610a62818484610a23565b505050565b5b81811015610a8557610a7a5f82610a4f565b600181019050610a68565b5050565b601f821115610aca57610a9b81610969565b610aa48461097b565b81016020851015610ab3578190505b610ac7610abf8561097b565b830182610a67565b50505b505050565b5f82821c905092915050565b5f610aea5f1984600802610acf565b1980831691505092915050565b5f610b028383610adb565b9150826002028217905092915050565b610b1c83836108d5565b67ffffffffffffffff811115610b3557610b346108df565b5b610b3f8254610939565b610b4a828285610a89565b5f601f831160018114610b77575f8415610b65578287013590505b610b6f8582610af7565b865550610bd6565b601f198416610b8586610969565b5f5b82811015610bac57848901358255600182019150602085019450602081019050610b87565b86831015610bc95784890135610bc5601f891682610adb565b8355505b6001600288020188555050505b50505050505050565b828183375f83830152505050565b5f610bf8838561063a565b9350610c05838584610bdf565b610c0e83610658565b840190509392505050565b5f6020820190508181035f830152610c32818486610bed565b90509392505050565b7f41646d696e436f6e74726163743a204e75747a6572206e6963687420726567695f8201527f7374726965727400000000000000000000000000000000000000000000000000602082015250565b5f610c9560278361071b565b9150610ca082610c3b565b604082019050919050565b5f6020820190508181035f830152610cc281610c89565b905091905056fea2646970667358221220d8a96e4387b203ffdefd4c418717389f9b47329792b55512292eaf07b528b1ab64736f6c634300081f0033",
					"opcodes": "PUSH1 0xA0 PUSH1 0x40 MSTORE CALLVALUE DUP1 ISZERO PUSH1 0xE JUMPI PUSH0 PUSH0 REVERT JUMPDEST POP CALLER PUSH20 0xFFFFFFFFFFFFFFFFFFFFFFFFFFFFFFFFFFFFFFFF AND PUSH1 0x80 DUP2 PUSH20 0xFFFFFFFFFFFFFFFFFFFFFFFFFFFFFFFFFFFFFFFF AND DUP2 MSTORE POP POP PUSH1 0x80 MLOAD PUSH2 0xCFF PUSH2 0x5B PUSH0 CODECOPY PUSH0 PUSH2 0x4C3 ADD MSTORE PUSH2 0xCFF PUSH0 RETURN INVALID PUSH1 0x80 PUSH1 0x40 MSTORE CALLVALUE DUP1 ISZERO PUSH2 0xF JUMPI PUSH0 PUSH0 REVERT JUMPDEST POP PUSH1 0x4 CALLDATASIZE LT PUSH2 0x4A JUMPI PUSH0 CALLDATALOAD PUSH1 0xE0 SHR DUP1 PUSH4 0x4B43EC0 EQ PUSH2 0x4E JUMPI DUP1 PUSH4 0x857CDBB8 EQ PUSH2 0x6A JUMPI DUP1 PUSH4 0xC3C5A547 EQ PUSH2 0x9A JUMPI DUP1 PUSH4 0xF851A440 EQ PUSH2 0xCA JUMPI JUMPDEST PUSH0 PUSH0 REVERT JUMPDEST PUSH2 0x68 PUSH1 0x4 DUP1 CALLDATASIZE SUB DUP2 ADD SWAP1 PUSH2 0x63 SWAP2 SWAP1 PUSH2 0x5A8 JUMP JUMPDEST PUSH2 0xE8 JUMP JUMPDEST STOP JUMPDEST PUSH2 0x84 PUSH1 0x4 DUP1 CALLDATASIZE SUB DUP2 ADD SWAP1 PUSH2 0x7F SWAP2 SWAP1 PUSH2 0x605 JUMP JUMPDEST PUSH2 0x31A JUMP JUMPDEST PUSH1 0x40 MLOAD PUSH2 0x91 SWAP2 SWAP1 PUSH2 0x6A0 JUMP JUMPDEST PUSH1 0x40 MLOAD DUP1 SWAP2 SUB SWAP1 RETURN JUMPDEST PUSH2 0xB4 PUSH1 0x4 DUP1 CALLDATASIZE SUB DUP2 ADD SWAP1 PUSH2 0xAF SWAP2 SWAP1 PUSH2 0x605 JUMP JUMPDEST PUSH2 0x46F JUMP JUMPDEST PUSH1 0x40 MLOAD PUSH2 0xC1 SWAP2 SWAP1 PUSH2 0x6DA JUMP JUMPDEST PUSH1 0x40 MLOAD DUP1 SWAP2 SUB SWAP1 RETURN JUMPDEST PUSH2 0xD2 PUSH2 0x4C1 JUMP JUMPDEST PUSH1 0x40 MLOAD PUSH2 0xDF SWAP2 SWAP1 PUSH2 0x702 JUMP JUMPDEST PUSH1 0x40 MLOAD DUP1 SWAP2 SUB SWAP1 RETURN JUMPDEST PUSH0 PUSH20 0xFFFFFFFFFFFFFFFFFFFFFFFFFFFFFFFFFFFFFFFF AND DUP4 PUSH20 0xFFFFFFFFFFFFFFFFFFFFFFFFFFFFFFFFFFFFFFFF AND SUB PUSH2 0x156 JUMPI PUSH1 0x40 MLOAD PUSH32 0x8C379A000000000000000000000000000000000000000000000000000000000 DUP2 MSTORE PUSH1 0x4 ADD PUSH2 0x14D SWAP1 PUSH2 0x79B JUMP JUMPDEST PUSH1 0x40 MLOAD DUP1 SWAP2 SUB SWAP1 REVERT JUMPDEST PUSH0 DUP3 DUP3 SWAP1 POP GT PUSH2 0x19B JUMPI PUSH1 0x40 MLOAD PUSH32 0x8C379A000000000000000000000000000000000000000000000000000000000 DUP2 MSTORE PUSH1 0x4 ADD PUSH2 0x192 SWAP1 PUSH2 0x829 JUMP JUMPDEST PUSH1 0x40 MLOAD DUP1 SWAP2 SUB SWAP1 REVERT JUMPDEST PUSH1 0x1 PUSH0 DUP5 PUSH20 0xFFFFFFFFFFFFFFFFFFFFFFFFFFFFFFFFFFFFFFFF AND PUSH20 0xFFFFFFFFFFFFFFFFFFFFFFFFFFFFFFFFFFFFFFFF AND DUP2 MSTORE PUSH1 0x20 ADD SWAP1 DUP2 MSTORE PUSH1 0x20 ADD PUSH0 KECCAK256 PUSH0 SWAP1 SLOAD SWAP1 PUSH2 0x100 EXP SWAP1 DIV PUSH1 0xFF AND ISZERO PUSH2 0x225 JUMPI PUSH1 0x40 MLOAD PUSH32 0x8C379A000000000000000000000000000000000000000000000000000000000 DUP2 MSTORE PUSH1 0x4 ADD PUSH2 0x21C SWAP1 PUSH2 0x8B7 JUMP JUMPDEST PUSH1 0x40 MLOAD DUP1 SWAP2 SUB SWAP1 REVERT JUMPDEST PUSH1 0x1 DUP1 PUSH0 DUP6 PUSH20 0xFFFFFFFFFFFFFFFFFFFFFFFFFFFFFFFFFFFFFFFF AND PUSH20 0xFFFFFFFFFFFFFFFFFFFFFFFFFFFFFFFFFFFFFFFF AND DUP2 MSTORE PUSH1 0x20 ADD SWAP1 DUP2 MSTORE PUSH1 0x20 ADD PUSH0 KECCAK256 PUSH0 PUSH2 0x100 EXP DUP2 SLOAD DUP2 PUSH1 0xFF MUL NOT AND SWAP1 DUP4 ISZERO ISZERO MUL OR SWAP1 SSTORE POP DUP2 DUP2 PUSH0 PUSH0 DUP7 PUSH20 0xFFFFFFFFFFFFFFFFFFFFFFFFFFFFFFFFFFFFFFFF AND PUSH20 0xFFFFFFFFFFFFFFFFFFFFFFFFFFFFFFFFFFFFFFFF AND DUP2 MSTORE PUSH1 0x20 ADD SWAP1 DUP2 MSTORE PUSH1 0x20 ADD PUSH0 KECCAK256 SWAP2 DUP3 PUSH2 0x2C4 SWAP3 SWAP2 SWAP1 PUSH2 0xB12 JUMP JUMPDEST POP DUP3 PUSH20 0xFFFFFFFFFFFFFFFFFFFFFFFFFFFFFFFFFFFFFFFF AND PUSH32 0xB4E474A799DB1C21852B730A8AC43394DF2133BBA1B219242C78954109A980A1 DUP4 DUP4 PUSH1 0x40 MLOAD PUSH2 0x30D SWAP3 SWAP2 SWAP1 PUSH2 0xC19 JUMP JUMPDEST PUSH1 0x40 MLOAD DUP1 SWAP2 SUB SWAP1 LOG2 POP POP POP JUMP JUMPDEST PUSH1 0x60 PUSH1 0x1 PUSH0 DUP4 PUSH20 0xFFFFFFFFFFFFFFFFFFFFFFFFFFFFFFFFFFFFFFFF AND PUSH20 0xFFFFFFFFFFFFFFFFFFFFFFFFFFFFFFFFFFFFFFFF AND DUP2 MSTORE PUSH1 0x20 ADD SWAP1 DUP2 MSTORE PUSH1 0x20 ADD PUSH0 KECCAK256 PUSH0 SWAP1 SLOAD SWAP1 PUSH2 0x100 EXP SWAP1 DIV PUSH1 0xFF AND PUSH2 0x3A5 JUMPI PUSH1 0x40 MLOAD PUSH32 0x8C379A000000000000000000000000000000000000000000000000000000000 DUP2 MSTORE PUSH1 0x4 ADD PUSH2 0x39C SWAP1 PUSH2 0xCAB JUMP JUMPDEST PUSH1 0x40 MLOAD DUP1 SWAP2 SUB SWAP1 REVERT JUMPDEST PUSH0 PUSH0 DUP4 PUSH20 0xFFFFFFFFFFFFFFFFFFFFFFFFFFFFFFFFFFFFFFFF AND PUSH20 0xFFFFFFFFFFFFFFFFFFFFFFFFFFFFFFFFFFFFFFFF AND DUP2 MSTORE PUSH1 0x20 ADD SWAP1 DUP2 MSTORE PUSH1 0x20 ADD PUSH0 KECCAK256 DUP1 SLOAD PUSH2 0x3EC SWAP1 PUSH2 0x939 JUMP JUMPDEST DUP1 PUSH1 0x1F ADD PUSH1 0x20 DUP1 SWAP2 DIV MUL PUSH1 0x20 ADD PUSH1 0x40 MLOAD SWAP1 DUP2 ADD PUSH1 0x40 MSTORE DUP1 SWAP3 SWAP2 SWAP1 DUP2 DUP2 MSTORE PUSH1 0x20 ADD DUP3 DUP1 SLOAD PUSH2 0x418 SWAP1 PUSH2 0x939 JUMP JUMPDEST DUP1 ISZERO PUSH2 0x463 JUMPI DUP1 PUSH1 0x1F LT PUSH2 0x43A JUMPI PUSH2 0x100 DUP1 DUP4 SLOAD DIV MUL DUP4 MSTORE SWAP2 PUSH1 0x20 ADD SWAP2 PUSH2 0x463 JUMP JUMPDEST DUP3 ADD SWAP2 SWAP1 PUSH0 MSTORE PUSH1 0x20 PUSH0 KECCAK256 SWAP1 JUMPDEST DUP2 SLOAD DUP2 MSTORE SWAP1 PUSH1 0x1 ADD SWAP1 PUSH1 0x20 ADD DUP1 DUP4 GT PUSH2 0x446 JUMPI DUP3 SWAP1 SUB PUSH1 0x1F AND DUP3 ADD SWAP2 JUMPDEST POP POP POP POP POP SWAP1 POP SWAP2 SWAP1 POP JUMP JUMPDEST PUSH0 PUSH1 0x1 PUSH0 DUP4 PUSH20 0xFFFFFFFFFFFFFFFFFFFFFFFFFFFFFFFFFFFFFFFF AND PUSH20 0xFFFFFFFFFFFFFFFFFFFFFFFFFFFFFFFFFFFFFFFF AND DUP2 MSTORE PUSH1 0x20 ADD SWAP1 DUP2 MSTORE PUSH1 0x20 ADD PUSH0 KECCAK256 PUSH0 SWAP1 SLOAD SWAP1 PUSH2 0x100 EXP SWAP1 DIV PUSH1 0xFF AND SWAP1 POP SWAP2 SWAP1 POP JUMP JUMPDEST PUSH32 0x0 DUP2 JUMP JUMPDEST PUSH0 PUSH0 REVERT JUMPDEST PUSH0 PUSH0 REVERT JUMPDEST PUSH0 PUSH20 0xFFFFFFFFFFFFFFFFFFFFFFFFFFFFFFFFFFFFFFFF DUP3 AND SWAP1 POP SWAP2 SWAP1 POP JUMP JUMPDEST PUSH0 PUSH2 0x516 DUP3 PUSH2 0x4ED JUMP JUMPDEST SWAP1 POP SWAP2 SWAP1 POP JUMP JUMPDEST PUSH2 0x526 DUP2 PUSH2 0x50C JUMP JUMPDEST DUP2 EQ PUSH2 0x530 JUMPI PUSH0 PUSH0 REVERT JUMPDEST POP JUMP JUMPDEST PUSH0 DUP2 CALLDATALOAD SWAP1 POP PUSH2 0x541 DUP2 PUSH2 0x51D JUMP JUMPDEST SWAP3 SWAP2 POP POP JUMP JUMPDEST PUSH0 PUSH0 REVERT JUMPDEST PUSH0 PUSH0 REVERT JUMPDEST PUSH0 PUSH0 REVERT JUMPDEST PUSH0 PUSH0 DUP4 PUSH1 0x1F DUP5 ADD SLT PUSH2 0x568 JUMPI PUSH2 0x567 PUSH2 0x547 JUMP JUMPDEST JUMPDEST DUP3 CALLDATALOAD SWAP1 POP PUSH8 0xFFFFFFFFFFFFFFFF DUP2 GT ISZERO PUSH2 0x585 JUMPI PUSH2 0x584 PUSH2 0x54B JUMP JUMPDEST JUMPDEST PUSH1 0x20 DUP4 ADD SWAP2 POP DUP4 PUSH1 0x1 DUP3 MUL DUP4 ADD GT ISZERO PUSH2 0x5A1 JUMPI PUSH2 0x5A0 PUSH2 0x54F JUMP JUMPDEST JUMPDEST SWAP3 POP SWAP3 SWAP1 POP JUMP JUMPDEST PUSH0 PUSH0 PUSH0 PUSH1 0x40 DUP5 DUP7 SUB SLT ISZERO PUSH2 0x5BF JUMPI PUSH2 0x5BE PUSH2 0x4E5 JUMP JUMPDEST JUMPDEST PUSH0 PUSH2 0x5CC DUP7 DUP3 DUP8 ADD PUSH2 0x533 JUMP JUMPDEST SWAP4 POP POP PUSH1 0x20 DUP5 ADD CALLDATALOAD PUSH8 0xFFFFFFFFFFFFFFFF DUP2 GT ISZERO PUSH2 0x5ED JUMPI PUSH2 0x5EC PUSH2 0x4E9 JUMP JUMPDEST JUMPDEST PUSH2 0x5F9 DUP7 DUP3 DUP8 ADD PUSH2 0x553 JUMP JUMPDEST SWAP3 POP SWAP3 POP POP SWAP3 POP SWAP3 POP SWAP3 JUMP JUMPDEST PUSH0 PUSH1 0x20 DUP3 DUP5 SUB SLT ISZERO PUSH2 0x61A JUMPI PUSH2 0x619 PUSH2 0x4E5 JUMP JUMPDEST JUMPDEST PUSH0 PUSH2 0x627 DUP5 DUP3 DUP6 ADD PUSH2 0x533 JUMP JUMPDEST SWAP2 POP POP SWAP3 SWAP2 POP POP JUMP JUMPDEST PUSH0 DUP2 MLOAD SWAP1 POP SWAP2 SWAP1 POP JUMP JUMPDEST PUSH0 DUP3 DUP3 MSTORE PUSH1 0x20 DUP3 ADD SWAP1 POP SWAP3 SWAP2 POP POP JUMP JUMPDEST DUP3 DUP2 DUP4 MCOPY PUSH0 DUP4 DUP4 ADD MSTORE POP POP POP JUMP JUMPDEST PUSH0 PUSH1 0x1F NOT PUSH1 0x1F DUP4 ADD AND SWAP1 POP SWAP2 SWAP1 POP JUMP JUMPDEST PUSH0 PUSH2 0x672 DUP3 PUSH2 0x630 JUMP JUMPDEST PUSH2 0x67C DUP2 DUP6 PUSH2 0x63A JUMP JUMPDEST SWAP4 POP PUSH2 0x68C DUP2 DUP6 PUSH1 0x20 DUP7 ADD PUSH2 0x64A JUMP JUMPDEST PUSH2 0x695 DUP2 PUSH2 0x658 JUMP JUMPDEST DUP5 ADD SWAP2 POP POP SWAP3 SWAP2 POP POP JUMP JUMPDEST PUSH0 PUSH1 0x20 DUP3 ADD SWAP1 POP DUP2 DUP2 SUB PUSH0 DUP4 ADD MSTORE PUSH2 0x6B8 DUP2 DUP5 PUSH2 0x668 JUMP JUMPDEST SWAP1 POP SWAP3 SWAP2 POP POP JUMP JUMPDEST PUSH0 DUP2 ISZERO ISZERO SWAP1 POP SWAP2 SWAP1 POP JUMP JUMPDEST PUSH2 0x6D4 DUP2 PUSH2 0x6C0 JUMP JUMPDEST DUP3 MSTORE POP POP JUMP JUMPDEST PUSH0 PUSH1 0x20 DUP3 ADD SWAP1 POP PUSH2 0x6ED PUSH0 DUP4 ADD DUP5 PUSH2 0x6CB JUMP JUMPDEST SWAP3 SWAP2 POP POP JUMP JUMPDEST PUSH2 0x6FC DUP2 PUSH2 0x50C JUMP JUMPDEST DUP3 MSTORE POP POP JUMP JUMPDEST PUSH0 PUSH1 0x20 DUP3 ADD SWAP1 POP PUSH2 0x715 PUSH0 DUP4 ADD DUP5 PUSH2 0x6F3 JUMP JUMPDEST SWAP3 SWAP2 POP POP JUMP JUMPDEST PUSH0 DUP3 DUP3 MSTORE PUSH1 0x20 DUP3 ADD SWAP1 POP SWAP3 SWAP2 POP POP JUMP JUMPDEST PUSH32 0x41646D696E436F6E74726163743A20556E6775656C7469676520416472657373 PUSH0 DUP3 ADD MSTORE PUSH32 0x6500000000000000000000000000000000000000000000000000000000000000 PUSH1 0x20 DUP3 ADD MSTORE POP JUMP JUMPDEST PUSH0 PUSH2 0x785 PUSH1 0x21 DUP4 PUSH2 0x71B JUMP JUMPDEST SWAP2 POP PUSH2 0x790 DUP3 PUSH2 0x72B JUMP JUMPDEST PUSH1 0x40 DUP3 ADD SWAP1 POP SWAP2 SWAP1 POP JUMP JUMPDEST PUSH0 PUSH1 0x20 DUP3 ADD SWAP1 POP DUP2 DUP2 SUB PUSH0 DUP4 ADD MSTORE PUSH2 0x7B2 DUP2 PUSH2 0x779 JUMP JUMPDEST SWAP1 POP SWAP2 SWAP1 POP JUMP JUMPDEST PUSH32 0x41646D696E436F6E74726163743A205075626C6963204B65792064617266206E PUSH0 DUP3 ADD MSTORE PUSH32 0x69636874206C656572207365696E000000000000000000000000000000000000 PUSH1 0x20 DUP3 ADD MSTORE POP JUMP JUMPDEST PUSH0 PUSH2 0x813 PUSH1 0x2E DUP4 PUSH2 0x71B JUMP JUMPDEST SWAP2 POP PUSH2 0x81E DUP3 PUSH2 0x7B9 JUMP JUMPDEST PUSH1 0x40 DUP3 ADD SWAP1 POP SWAP2 SWAP1 POP JUMP JUMPDEST PUSH0 PUSH1 0x20 DUP3 ADD SWAP1 POP DUP2 DUP2 SUB PUSH0 DUP4 ADD MSTORE PUSH2 0x840 DUP2 PUSH2 0x807 JUMP JUMPDEST SWAP1 POP SWAP2 SWAP1 POP JUMP JUMPDEST PUSH32 0x41646D696E436F6E74726163743A204E75747A65722062657265697473207265 PUSH0 DUP3 ADD MSTORE PUSH32 0x6769737472696572740000000000000000000000000000000000000000000000 PUSH1 0x20 DUP3 ADD MSTORE POP JUMP JUMPDEST PUSH0 PUSH2 0x8A1 PUSH1 0x29 DUP4 PUSH2 0x71B JUMP JUMPDEST SWAP2 POP PUSH2 0x8AC DUP3 PUSH2 0x847 JUMP JUMPDEST PUSH1 0x40 DUP3 ADD SWAP1 POP SWAP2 SWAP1 POP JUMP JUMPDEST PUSH0 PUSH1 0x20 DUP3 ADD SWAP1 POP DUP2 DUP2 SUB PUSH0 DUP4 ADD MSTORE PUSH2 0x8CE DUP2 PUSH2 0x895 JUMP JUMPDEST SWAP1 POP SWAP2 SWAP1 POP JUMP JUMPDEST PUSH0 DUP3 SWAP1 POP SWAP3 SWAP2 POP POP JUMP JUMPDEST PUSH32 0x4E487B7100000000000000000000000000000000000000000000000000000000 PUSH0 MSTORE PUSH1 0x41 PUSH1 0x4 MSTORE PUSH1 0x24 PUSH0 REVERT JUMPDEST PUSH32 0x4E487B7100000000000000000000000000000000000000000000000000000000 PUSH0 MSTORE PUSH1 0x22 PUSH1 0x4 MSTORE PUSH1 0x24 PUSH0 REVERT JUMPDEST PUSH0 PUSH1 0x2 DUP3 DIV SWAP1 POP PUSH1 0x1 DUP3 AND DUP1 PUSH2 0x950 JUMPI PUSH1 0x7F DUP3 AND SWAP2 POP JUMPDEST PUSH1 0x20 DUP3 LT DUP2 SUB PUSH2 0x963 JUMPI PUSH2 0x962 PUSH2 0x90C JUMP JUMPDEST JUMPDEST POP SWAP2 SWAP1 POP JUMP JUMPDEST PUSH0 DUP2 SWAP1 POP DUP2 PUSH0 MSTORE PUSH1 0x20 PUSH0 KECCAK256 SWAP1 POP SWAP2 SWAP1 POP JUMP JUMPDEST PUSH0 PUSH1 0x20 PUSH1 0x1F DUP4 ADD DIV SWAP1 POP SWAP2 SWAP1 POP JUMP JUMPDEST PUSH0 DUP3 DUP3 SHL SWAP1 POP SWAP3 SWAP2 POP POP JUMP JUMPDEST PUSH0 PUSH1 0x8 DUP4 MUL PUSH2 0x9C5 PUSH32 0xFFFFFFFFFFFFFFFFFFFFFFFFFFFFFFFFFFFFFFFFFFFFFFFFFFFFFFFFFFFFFFFF DUP3 PUSH2 0x98A JUMP JUMPDEST PUSH2 0x9CF DUP7 DUP4 PUSH2 0x98A JUMP JUMPDEST SWAP6 POP DUP1 NOT DUP5 AND SWAP4 POP DUP1 DUP7 AND DUP5 OR SWAP3 POP POP POP SWAP4 SWAP3 POP POP POP JUMP JUMPDEST PUSH0 DUP2 SWAP1 POP SWAP2 SWAP1 POP JUMP JUMPDEST PUSH0 DUP2 SWAP1 POP SWAP2 SWAP1 POP JUMP JUMPDEST PUSH0 PUSH2 0xA13 PUSH2 0xA0E PUSH2 0xA09 DUP5 PUSH2 0x9E7 JUMP JUMPDEST PUSH2 0x9F0 JUMP JUMPDEST PUSH2 0x9E7 JUMP JUMPDEST SWAP1 POP SWAP2 SWAP1 POP JUMP JUMPDEST PUSH0 DUP2 SWAP1 POP SWAP2 SWAP1 POP JUMP JUMPDEST PUSH2 0xA2C DUP4 PUSH2 0x9F9 JUMP JUMPDEST PUSH2 0xA40 PUSH2 0xA38 DUP3 PUSH2 0xA1A JUMP JUMPDEST DUP5 DUP5 SLOAD PUSH2 0x996 JUMP JUMPDEST DUP3 SSTORE POP POP POP POP JUMP JUMPDEST PUSH0 PUSH0 SWAP1 POP SWAP1 JUMP JUMPDEST PUSH2 0xA57 PUSH2 0xA48 JUMP JUMPDEST PUSH2 0xA62 DUP2 DUP5 DUP5 PUSH2 0xA23 JUMP JUMPDEST POP POP POP JUMP JUMPDEST JUMPDEST DUP2 DUP2 LT ISZERO PUSH2 0xA85 JUMPI PUSH2 0xA7A PUSH0 DUP3 PUSH2 0xA4F JUMP JUMPDEST PUSH1 0x1 DUP2 ADD SWAP1 POP PUSH2 0xA68 JUMP JUMPDEST POP POP JUMP JUMPDEST PUSH1 0x1F DUP3 GT ISZERO PUSH2 0xACA JUMPI PUSH2 0xA9B DUP2 PUSH2 0x969 JUMP JUMPDEST PUSH2 0xAA4 DUP5 PUSH2 0x97B JUMP JUMPDEST DUP2 ADD PUSH1 0x20 DUP6 LT ISZERO PUSH2 0xAB3 JUMPI DUP2 SWAP1 POP JUMPDEST PUSH2 0xAC7 PUSH2 0xABF DUP6 PUSH2 0x97B JUMP JUMPDEST DUP4 ADD DUP3 PUSH2 0xA67 JUMP JUMPDEST POP POP JUMPDEST POP POP POP JUMP JUMPDEST PUSH0 DUP3 DUP3 SHR SWAP1 POP SWAP3 SWAP2 POP POP JUMP JUMPDEST PUSH0 PUSH2 0xAEA PUSH0 NOT DUP5 PUSH1 0x8 MUL PUSH2 0xACF JUMP JUMPDEST NOT DUP1 DUP4 AND SWAP2 POP POP SWAP3 SWAP2 POP POP JUMP JUMPDEST PUSH0 PUSH2 0xB02 DUP4 DUP4 PUSH2 0xADB JUMP JUMPDEST SWAP2 POP DUP3 PUSH1 0x2 MUL DUP3 OR SWAP1 POP SWAP3 SWAP2 POP POP JUMP JUMPDEST PUSH2 0xB1C DUP4 DUP4 PUSH2 0x8D5 JUMP JUMPDEST PUSH8 0xFFFFFFFFFFFFFFFF DUP2 GT ISZERO PUSH2 0xB35 JUMPI PUSH2 0xB34 PUSH2 0x8DF JUMP JUMPDEST JUMPDEST PUSH2 0xB3F DUP3 SLOAD PUSH2 0x939 JUMP JUMPDEST PUSH2 0xB4A DUP3 DUP3 DUP6 PUSH2 0xA89 JUMP JUMPDEST PUSH0 PUSH1 0x1F DUP4 GT PUSH1 0x1 DUP2 EQ PUSH2 0xB77 JUMPI PUSH0 DUP5 ISZERO PUSH2 0xB65 JUMPI DUP3 DUP8 ADD CALLDATALOAD SWAP1 POP JUMPDEST PUSH2 0xB6F DUP6 DUP3 PUSH2 0xAF7 JUMP JUMPDEST DUP7 SSTORE POP PUSH2 0xBD6 JUMP JUMPDEST PUSH1 0x1F NOT DUP5 AND PUSH2 0xB85 DUP7 PUSH2 0x969 JUMP JUMPDEST PUSH0 JUMPDEST DUP3 DUP2 LT ISZERO PUSH2 0xBAC JUMPI DUP5 DUP10 ADD CALLDATALOAD DUP3 SSTORE PUSH1 0x1 DUP3 ADD SWAP2 POP PUSH1 0x20 DUP6 ADD SWAP5 POP PUSH1 0x20 DUP2 ADD SWAP1 POP PUSH2 0xB87 JUMP JUMPDEST DUP7 DUP4 LT ISZERO PUSH2 0xBC9 JUMPI DUP5 DUP10 ADD CALLDATALOAD PUSH2 0xBC5 PUSH1 0x1F DUP10 AND DUP3 PUSH2 0xADB JUMP JUMPDEST DUP4 SSTORE POP JUMPDEST PUSH1 0x1 PUSH1 0x2 DUP9 MUL ADD DUP9 SSTORE POP POP POP JUMPDEST POP POP POP POP POP POP POP JUMP JUMPDEST DUP3 DUP2 DUP4 CALLDATACOPY PUSH0 DUP4 DUP4 ADD MSTORE POP POP POP JUMP JUMPDEST PUSH0 PUSH2 0xBF8 DUP4 DUP6 PUSH2 0x63A JUMP JUMPDEST SWAP4 POP PUSH2 0xC05 DUP4 DUP6 DUP5 PUSH2 0xBDF JUMP JUMPDEST PUSH2 0xC0E DUP4 PUSH2 0x658 JUMP JUMPDEST DUP5 ADD SWAP1 POP SWAP4 SWAP3 POP POP POP JUMP JUMPDEST PUSH0 PUSH1 0x20 DUP3 ADD SWAP1 POP DUP2 DUP2 SUB PUSH0 DUP4 ADD MSTORE PUSH2 0xC32 DUP2 DUP5 DUP7 PUSH2 0xBED JUMP JUMPDEST SWAP1 POP SWAP4 SWAP3 POP POP POP JUMP JUMPDEST PUSH32 0x41646D696E436F6E74726163743A204E75747A6572206E696368742072656769 PUSH0 DUP3 ADD MSTORE PUSH32 0x7374726965727400000000000000000000000000000000000000000000000000 PUSH1 0x20 DUP3 ADD MSTORE POP JUMP JUMPDEST PUSH0 PUSH2 0xC95 PUSH1 0x27 DUP4 PUSH2 0x71B JUMP JUMPDEST SWAP2 POP PUSH2 0xCA0 DUP3 PUSH2 0xC3B JUMP JUMPDEST PUSH1 0x40 DUP3 ADD SWAP1 POP SWAP2 SWAP1 POP JUMP JUMPDEST PUSH0 PUSH1 0x20 DUP3 ADD SWAP1 POP DUP2 DUP2 SUB PUSH0 DUP4 ADD MSTORE PUSH2 0xCC2 DUP2 PUSH2 0xC89 JUMP JUMPDEST SWAP1 POP SWAP2 SWAP1 POP JUMP INVALID LOG2 PUSH5 0x6970667358 0x22 SLT KECCAK256 0xD8 0xA9 PUSH15 0x4387B203FFDEFD4C418717389F9B47 ORIGIN SWAP8 SWAP3 0xB5 SSTORE SLT 0x29 0x2E 0xAF SMOD 0xB5 0x28 0xB1 0xAB PUSH5 0x736F6C6343 STOP ADDMOD 0x1F STOP CALLER "
				},
				"gasEstimates": {
					"creation": {
						"codeDepositCost": "665400",
						"executionCost": "infinite",
						"totalCost": "infinite"
					},
					"external": {
						"admin()": "infinite",
						"getPublicKey(address)": "infinite",
						"isRegistered(address)": "2892",
						"registerUser(address,bytes)": "infinite"
					}
				},
				"methodIdentifiers": {
					"admin()": "f851a440",
					"getPublicKey(address)": "857cdbb8",
					"isRegistered(address)": "c3c5a547",
					"registerUser(address,bytes)": "04b43ec0"
				}
			},
			"storageLayout": {
				"storage": [
					{
						"astId": 7,
						"contract": "contracts/admincontract.sol:AdminContract",
						"label": "publicKeys",
						"offset": 0,
						"slot": "0",
						"type": "t_mapping(t_address,t_bytes_storage)"
					},
					{
						"astId": 11,
						"contract": "contracts/admincontract.sol:AdminContract",
						"label": "registered",
						"offset": 0,
						"slot": "1",
						"type": "t_mapping(t_address,t_bool)"
					}
				],
				"types": {
					"t_address": {
						"encoding": "inplace",
						"label": "address",
						"numberOfBytes": "20"
					},
					"t_bool": {
						"encoding": "inplace",
						"label": "bool",
						"numberOfBytes": "1"
					},
					"t_bytes_storage": {
						"encoding": "bytes",
						"label": "bytes",
						"numberOfBytes": "32"
					},
					"t_mapping(t_address,t_bool)": {
						"encoding": "mapping",
						"key": "t_address",
						"label": "mapping(address => bool)",
						"numberOfBytes": "32",
						"value": "t_bool"
					},
					"t_mapping(t_address,t_bytes_storage)": {
						"encoding": "mapping",
						"key": "t_address",
						"label": "mapping(address => bytes)",
						"numberOfBytes": "32",
						"value": "t_bytes_storage"
					}
				}
			},
			"userdoc": {
				"kind": "user",
				"methods": {
					"getPublicKey(address)": {
						"notice": "Gibt den Public Key einer registrierten Adresse zurück."
					},
					"isRegistered(address)": {
						"notice": "Prüft, ob eine Adresse registriert ist."
					},
					"registerUser(address,bytes)": {
						"notice": "Registriert einen neuen Nutzer mit seinem Public Key."
					}
				},
				"version": 1
			}
		}
	}
}