{
  "_format": "hh-sol-artifact-1",
  "contractName": "AdminContract",
  "sourceName": "contracts/admincontract.sol",
  "abi": [
    {
      "inputs": [],
      "stateMutability": "nonpayable",
      "type": "constructor"
    },
    {
      "anonymous": false,
      "inputs": [
        {
          "indexed": true,
          "internalType": "address",
          "name": "user",
          "type": "address"
        },
        {
          "indexed": false,
          "internalType": "bytes",
          "name": "newPublicKey",
          "type": "bytes"
        }
      ],
      "name": "PublicKeyUpdated",
      "type": "event"
    },
    {
      "anonymous": false,
      "inputs": [
        {
          "indexed": true,
          "internalType": "address",
          "name": "user",
          "type": "address"
        }
      ],
      "name": "UserDeactivated",
      "type": "event"
    },
    {
      "anonymous": false,
      "inputs": [
        {
          "indexed": true,
          "internalType": "address",
          "name": "user",
          "type": "address"
        }
      ],
      "name": "UserReactivated",
      "type": "event"
    },
    {
      "anonymous": false,
      "inputs": [
        {
          "indexed": true,
          "internalType": "address",
          "name": "user",
          "type": "address"
        },
        {
          "indexed": false,
          "internalType": "bytes",
          "name": "publicKey",
          "type": "bytes"
        },
        {
          "indexed": false,
          "internalType": "string",
          "name": "username",
          "type": "string"
        }
      ],
      "name": "UserRegistered",
      "type": "event"
    },
    {
      "inputs": [],
      "name": "admin",
      "outputs": [
        {
          "internalType": "address",
          "name": "",
          "type": "address"
        }
      ],
      "stateMutability": "view",
      "type": "function"
    },
    {
      "inputs": [
        {
          "internalType": "address",
          "name": "user",
          "type": "address"
        }
      ],
      "name": "deactivateUser",
      "outputs": [],
      "stateMutability": "nonpayable",
      "type": "function"
    },
    {
      "inputs": [
        {
          "internalType": "string",
          "name": "username",
          "type": "string"
        }
      ],
      "name": "getAddressByUsername",
      "outputs": [
        {
          "internalType": "address",
          "name": "",
          "type": "address"
        }
      ],
      "stateMutability": "view",
      "type": "function"
    },
    {
      "inputs": [
        {
          "internalType": "address",
          "name": "user",
          "type": "address"
        }
      ],
      "name": "getPublicKey",
      "outputs": [
        {
          "internalType": "bytes",
          "name": "",
          "type": "bytes"
        }
      ],
      "stateMutability": "view",
      "type": "function"
    },
    {
      "inputs": [
        {
          "internalType": "address",
          "name": "user",
          "type": "address"
        }
      ],
      "name": "getUsername",
      "outputs": [
        {
          "internalType": "string",
          "name": "",
          "type": "string"
        }
      ],
      "stateMutability": "view",
      "type": "function"
    },
    {
      "inputs": [
        {
          "internalType": "address",
          "name": "user",
          "type": "address"
        }
      ],
      "name": "isActive",
      "outputs": [
        {
          "internalType": "bool",
          "name": "",
          "type": "bool"
        }
      ],
      "stateMutability": "view",
      "type": "function"
    },
    {
      "inputs": [
        {
          "internalType": "address",
          "name": "user",
          "type": "address"
        }
      ],
      "name": "isRegistered",
      "outputs": [
        {
          "internalType": "bool",
          "name": "",
          "type": "bool"
        }
      ],
      "stateMutability": "view",
      "type": "function"
    },
    {
      "inputs": [
        {
          "internalType": "address",
          "name": "user",
          "type": "address"
        }
      ],
      "name": "reactivateUser",
      "outputs": [],
      "stateMutability": "nonpayable",
      "type": "function"
    },
    {
      "inputs": [
        {
          "internalType": "address",
          "name": "user",
          "type": "address"
        },
        {
          "internalType": "bytes",
          "name": "publicKey",
          "type": "bytes"
        },
        {
          "internalType": "string",
          "name": "username",
          "type": "string"
        }
      ],
      "name": "registerUser",
      "outputs": [],
      "stateMutability": "nonpayable",
      "type": "function"
    },
    {
      "inputs": [
        {
          "internalType": "address",
          "name": "user",
          "type": "address"
        },
        {
          "internalType": "bytes",
          "name": "newPublicKey",
          "type": "bytes"
        }
      ],
      "name": "updatePublicKey",
      "outputs": [],
      "stateMutability": "nonpayable",
      "type": "function"
    }
  ],
  "bytecode": "0x60a060405234801561001057600080fd5b503373ffffffffffffffffffffffffffffffffffffffff1660808173ffffffffffffffffffffffffffffffffffffffff168152505060805161236361007c6000396000818161022301528181610526015281816109ff0152818161106e015261109201526123636000f3fe608060405234801561001057600080fd5b506004361061009e5760003560e01c8063c3c5a54711610066578063c3c5a5471461016b578063cd59ff311461019b578063ce43c032146101b7578063f851a440146101e7578063fcec5fdb146102055761009e565b80631a47767b146100a35780636322961d146100bf57806381a29457146100ef578063857cdbb81461010b5780639f8a13d71461013b575b600080fd5b6100bd60048036038101906100b89190611387565b610221565b005b6100d960048036038101906100d49190611419565b610465565b6040516100e69190611475565b60405180910390f35b61010960048036038101906101049190611387565b610524565b005b61012560048036038101906101209190611387565b610769565b6040516101329190611520565b60405180910390f35b61015560048036038101906101509190611387565b610951565b604051610162919061155d565b60405180910390f35b61018560048036038101906101809190611387565b6109a7565b604051610192919061155d565b60405180910390f35b6101b560048036038101906101b091906115ce565b6109fd565b005b6101d160048036038101906101cc9190611387565b610f0f565b6040516101de91906116b8565b60405180910390f35b6101ef61106c565b6040516101fc9190611475565b60405180910390f35b61021f600480360381019061021a91906116da565b611090565b005b7f000000000000000000000000000000000000000000000000000000000000000073ffffffffffffffffffffffffffffffffffffffff163373ffffffffffffffffffffffffffffffffffffffff16146102af576040517f08c379a00000000000000000000000000000000000000000000000000000000081526004016102a690611786565b60405180910390fd5b600160008273ffffffffffffffffffffffffffffffffffffffff1673ffffffffffffffffffffffffffffffffffffffff16815260200190815260200160002060009054906101000a900460ff1661033b576040517f08c379a000000000000000000000000000000000000000000000000000000000815260040161033290611818565b60405180910390fd5b600260008273ffffffffffffffffffffffffffffffffffffffff1673ffffffffffffffffffffffffffffffffffffffff16815260200190815260200160002060009054906101000a900460ff166103c7576040517f08c379a00000000000000000000000000000000000000000000000000000000081526004016103be906118aa565b60405180910390fd5b6000600260008373ffffffffffffffffffffffffffffffffffffffff1673ffffffffffffffffffffffffffffffffffffffff16815260200190815260200160002060006101000a81548160ff0219169083151502179055508073ffffffffffffffffffffffffffffffffffffffff167f5554feec4e87bc4eba14bd62f71df68156f97d26128616fbc27d28e33b35a6b460405160405180910390a250565b6000806004848460405161047a929190611909565b908152602001604051809103902060009054906101000a900473ffffffffffffffffffffffffffffffffffffffff169050600073ffffffffffffffffffffffffffffffffffffffff168173ffffffffffffffffffffffffffffffffffffffff160361051a576040517f08c379a000000000000000000000000000000000000000000000000000000000815260040161051190611994565b60405180910390fd5b8091505092915050565b7f000000000000000000000000000000000000000000000000000000000000000073ffffffffffffffffffffffffffffffffffffffff163373ffffffffffffffffffffffffffffffffffffffff16146105b2576040517f08c379a00000000000000000000000000000000000000000000000000000000081526004016105a990611786565b60405180910390fd5b600160008273ffffffffffffffffffffffffffffffffffffffff1673ffffffffffffffffffffffffffffffffffffffff16815260200190815260200160002060009054906101000a900460ff1661063e576040517f08c379a000000000000000000000000000000000000000000000000000000000815260040161063590611818565b60405180910390fd5b600260008273ffffffffffffffffffffffffffffffffffffffff1673ffffffffffffffffffffffffffffffffffffffff16815260200190815260200160002060009054906101000a900460ff16156106cb576040517f08c379a00000000000000000000000000000000000000000000000000000000081526004016106c290611a26565b60405180910390fd5b6001600260008373ffffffffffffffffffffffffffffffffffffffff1673ffffffffffffffffffffffffffffffffffffffff16815260200190815260200160002060006101000a81548160ff0219169083151502179055508073ffffffffffffffffffffffffffffffffffffffff167f0b9963d19fe6bc6a312a0e8d1dc85d6bb765437adba6d149462e95c5c3a6e5d560405160405180910390a250565b6060600160008373ffffffffffffffffffffffffffffffffffffffff1673ffffffffffffffffffffffffffffffffffffffff16815260200190815260200160002060009054906101000a900460ff166107f7576040517f08c379a00000000000000000000000000000000000000000000000000000000081526004016107ee90611818565b60405180910390fd5b600260008373ffffffffffffffffffffffffffffffffffffffff1673ffffffffffffffffffffffffffffffffffffffff16815260200190815260200160002060009054906101000a900460ff16610883576040517f08c379a000000000000000000000000000000000000000000000000000000000815260040161087a90611ab8565b60405180910390fd5b6000808373ffffffffffffffffffffffffffffffffffffffff1673ffffffffffffffffffffffffffffffffffffffff16815260200190815260200160002080546108cc90611b07565b80601f01602080910402602001604051908101604052809291908181526020018280546108f890611b07565b80156109455780601f1061091a57610100808354040283529160200191610945565b820191906000526020600020905b81548152906001019060200180831161092857829003601f168201915b50505050509050919050565b6000600260008373ffffffffffffffffffffffffffffffffffffffff1673ffffffffffffffffffffffffffffffffffffffff16815260200190815260200160002060009054906101000a900460ff169050919050565b6000600160008373ffffffffffffffffffffffffffffffffffffffff1673ffffffffffffffffffffffffffffffffffffffff16815260200190815260200160002060009054906101000a900460ff169050919050565b7f000000000000000000000000000000000000000000000000000000000000000073ffffffffffffffffffffffffffffffffffffffff163373ffffffffffffffffffffffffffffffffffffffff1614610a8b576040517f08c379a0000000000000000000000000000000000000000000000000000000008152600401610a8290611786565b60405180910390fd5b600073ffffffffffffffffffffffffffffffffffffffff168573ffffffffffffffffffffffffffffffffffffffff1603610afa576040517f08c379a0000000000000000000000000000000000000000000000000000000008152600401610af190611baa565b60405180910390fd5b60008484905011610b40576040517f08c379a0000000000000000000000000000000000000000000000000000000008152600401610b3790611c3c565b60405180910390fd5b600160008673ffffffffffffffffffffffffffffffffffffffff1673ffffffffffffffffffffffffffffffffffffffff16815260200190815260200160002060009054906101000a900460ff1615610bcd576040517f08c379a0000000000000000000000000000000000000000000000000000000008152600401610bc490611cce565b60405180910390fd5b60008282905011610c13576040517f08c379a0000000000000000000000000000000000000000000000000000000008152600401610c0a90611d60565b60405180910390fd5b6020828290501115610c5a576040517f08c379a0000000000000000000000000000000000000000000000000000000008152600401610c5190611dcc565b60405180910390fd5b600073ffffffffffffffffffffffffffffffffffffffff1660048383604051610c84929190611909565b908152602001604051809103902060009054906101000a900473ffffffffffffffffffffffffffffffffffffffff1673ffffffffffffffffffffffffffffffffffffffff1614610d09576040517f08c379a0000000000000000000000000000000000000000000000000000000008152600401610d0090611e5e565b60405180910390fd5b60018060008773ffffffffffffffffffffffffffffffffffffffff1673ffffffffffffffffffffffffffffffffffffffff16815260200190815260200160002060006101000a81548160ff0219169083151502179055506001600260008773ffffffffffffffffffffffffffffffffffffffff1673ffffffffffffffffffffffffffffffffffffffff16815260200190815260200160002060006101000a81548160ff02191690831515021790555083836000808873ffffffffffffffffffffffffffffffffffffffff1673ffffffffffffffffffffffffffffffffffffffff1681526020019081526020016000209182610e0592919061206e565b508181600360008873ffffffffffffffffffffffffffffffffffffffff1673ffffffffffffffffffffffffffffffffffffffff1681526020019081526020016000209182610e549291906121a4565b508460048383604051610e68929190611909565b908152602001604051809103902060006101000a81548173ffffffffffffffffffffffffffffffffffffffff021916908373ffffffffffffffffffffffffffffffffffffffff1602179055508473ffffffffffffffffffffffffffffffffffffffff167f6b9b25d8c052c4f892132cfb1529b9a12e86a7cd245d736bc6f38b432fc0647885858585604051610f0094939291906122ce565b60405180910390a25050505050565b6060600160008373ffffffffffffffffffffffffffffffffffffffff1673ffffffffffffffffffffffffffffffffffffffff16815260200190815260200160002060009054906101000a900460ff16610f9d576040517f08c379a0000000000000000000000000000000000000000000000000000000008152600401610f9490611818565b60405180910390fd5b600360008373ffffffffffffffffffffffffffffffffffffffff1673ffffffffffffffffffffffffffffffffffffffff1681526020019081526020016000208054610fe790611b07565b80601f016020809104026020016040519081016040528092919081815260200182805461101390611b07565b80156110605780601f1061103557610100808354040283529160200191611060565b820191906000526020600020905b81548152906001019060200180831161104357829003601f168201915b50505050509050919050565b7f000000000000000000000000000000000000000000000000000000000000000081565b7f000000000000000000000000000000000000000000000000000000000000000073ffffffffffffffffffffffffffffffffffffffff163373ffffffffffffffffffffffffffffffffffffffff161461111e576040517f08c379a000000000000000000000000000000000000000000000000000000000815260040161111590611786565b60405180910390fd5b600160008473ffffffffffffffffffffffffffffffffffffffff1673ffffffffffffffffffffffffffffffffffffffff16815260200190815260200160002060009054906101000a900460ff166111aa576040517f08c379a00000000000000000000000000000000000000000000000000000000081526004016111a190611818565b60405180910390fd5b600260008473ffffffffffffffffffffffffffffffffffffffff1673ffffffffffffffffffffffffffffffffffffffff16815260200190815260200160002060009054906101000a900460ff16611236576040517f08c379a000000000000000000000000000000000000000000000000000000000815260040161122d90611ab8565b60405180910390fd5b6000828290501161127c576040517f08c379a000000000000000000000000000000000000000000000000000000000815260040161127390611c3c565b60405180910390fd5b81816000808673ffffffffffffffffffffffffffffffffffffffff1673ffffffffffffffffffffffffffffffffffffffff16815260200190815260200160002091826112c992919061206e565b508273ffffffffffffffffffffffffffffffffffffffff167ff957f077e5d2d5a2c4a2793d09cb9c5d45b475d07bbd0b82abf99a5669b95e088383604051611312929190612309565b60405180910390a2505050565b600080fd5b600080fd5b600073ffffffffffffffffffffffffffffffffffffffff82169050919050565b600061135482611329565b9050919050565b61136481611349565b811461136f57600080fd5b50565b6000813590506113818161135b565b92915050565b60006020828403121561139d5761139c61131f565b5b60006113ab84828501611372565b91505092915050565b600080fd5b600080fd5b600080fd5b60008083601f8401126113d9576113d86113b4565b5b8235905067ffffffffffffffff8111156113f6576113f56113b9565b5b602083019150836001820283011115611412576114116113be565b5b9250929050565b600080602083850312156114305761142f61131f565b5b600083013567ffffffffffffffff81111561144e5761144d611324565b5b61145a858286016113c3565b92509250509250929050565b61146f81611349565b82525050565b600060208201905061148a6000830184611466565b92915050565b600081519050919050565b600082825260208201905092915050565b60005b838110156114ca5780820151818401526020810190506114af565b60008484015250505050565b6000601f19601f8301169050919050565b60006114f282611490565b6114fc818561149b565b935061150c8185602086016114ac565b611515816114d6565b840191505092915050565b6000602082019050818103600083015261153a81846114e7565b905092915050565b60008115159050919050565b61155781611542565b82525050565b6000602082019050611572600083018461154e565b92915050565b60008083601f84011261158e5761158d6113b4565b5b8235905067ffffffffffffffff8111156115ab576115aa6113b9565b5b6020830191508360018202830111156115c7576115c66113be565b5b9250929050565b6000806000806000606086880312156115ea576115e961131f565b5b60006115f888828901611372565b955050602086013567ffffffffffffffff81111561161957611618611324565b5b61162588828901611578565b9450945050604086013567ffffffffffffffff81111561164857611647611324565b5b611654888289016113c3565b92509250509295509295909350565b600081519050919050565b600082825260208201905092915050565b600061168a82611663565b611694818561166e565b93506116a48185602086016114ac565b6116ad816114d6565b840191505092915050565b600060208201905081810360008301526116d2818461167f565b905092915050565b6000806000604084860312156116f3576116f261131f565b5b600061170186828701611372565b935050602084013567ffffffffffffffff81111561172257611721611324565b5b61172e86828701611578565b92509250509250925092565b7f41646d696e436f6e74726163743a204e75722041646d696e2065726c61756274600082015250565b600061177060208361166e565b915061177b8261173a565b602082019050919050565b6000602082019050818103600083015261179f81611763565b9050919050565b7f41646d696e436f6e74726163743a204e75747a6572206e69636874207265676960008201527f7374726965727400000000000000000000000000000000000000000000000000602082015250565b600061180260278361166e565b915061180d826117a6565b604082019050919050565b60006020820190508181036000830152611831816117f5565b9050919050565b7f41646d696e436f6e74726163743a204e75747a6572206265726569747320646560008201527f616b746976696572740000000000000000000000000000000000000000000000602082015250565b600061189460298361166e565b915061189f82611838565b604082019050919050565b600060208201905081810360008301526118c381611887565b9050919050565b600081905092915050565b82818337600083830152505050565b60006118f083856118ca565b93506118fd8385846118d5565b82840190509392505050565b60006119168284866118e4565b91508190509392505050565b7f41646d696e436f6e74726163743a20557365726e616d65206e6963687420676560008201527f66756e64656e0000000000000000000000000000000000000000000000000000602082015250565b600061197e60268361166e565b915061198982611922565b604082019050919050565b600060208201905081810360008301526119ad81611971565b9050919050565b7f41646d696e436f6e74726163743a204e75747a6572206265726569747320616b60008201527f7469760000000000000000000000000000000000000000000000000000000000602082015250565b6000611a1060238361166e565b9150611a1b826119b4565b604082019050919050565b60006020820190508181036000830152611a3f81611a03565b9050919050565b7f41646d696e436f6e74726163743a204e75747a657220697374206465616b746960008201527f7669657274000000000000000000000000000000000000000000000000000000602082015250565b6000611aa260258361166e565b9150611aad82611a46565b604082019050919050565b60006020820190508181036000830152611ad181611a95565b9050919050565b7f4e487b7100000000000000000000000000000000000000000000000000000000600052602260045260246000fd5b60006002820490506001821680611b1f57607f821691505b602082108103611b3257611b31611ad8565b5b50919050565b7f41646d696e436f6e74726163743a20556e6775656c746967652041647265737360008201527f6500000000000000000000000000000000000000000000000000000000000000602082015250565b6000611b9460218361166e565b9150611b9f82611b38565b604082019050919050565b60006020820190508181036000830152611bc381611b87565b9050919050565b7f41646d696e436f6e74726163743a205075626c6963204b65792064617266206e60008201527f69636874206c656572207365696e000000000000000000000000000000000000602082015250565b6000611c26602e8361166e565b9150611c3182611bca565b604082019050919050565b60006020820190508181036000830152611c5581611c19565b9050919050565b7f41646d696e436f6e74726163743a204e75747a6572206265726569747320726560008201527f6769737472696572740000000000000000000000000000000000000000000000602082015250565b6000611cb860298361166e565b9150611cc382611c5c565b604082019050919050565b60006020820190508181036000830152611ce781611cab565b9050919050565b7f41646d696e436f6e74726163743a20557365726e616d652064617266206e696360008201527f6874206c656572207365696e0000000000000000000000000000000000000000602082015250565b6000611d4a602c8361166e565b9150611d5582611cee565b604082019050919050565b60006020820190508181036000830152611d7981611d3d565b9050919050565b7f41646d696e436f6e74726163743a20557365726e616d65207a75206c616e6700600082015250565b6000611db6601f8361166e565b9150611dc182611d80565b602082019050919050565b60006020820190508181036000830152611de581611da9565b9050919050565b7f41646d696e436f6e74726163743a20557365726e616d6520626572656974732060008201527f766572676562656e000000000000000000000000000000000000000000000000602082015250565b6000611e4860288361166e565b9150611e5382611dec565b604082019050919050565b60006020820190508181036000830152611e7781611e3b565b9050919050565b600082905092915050565b7f4e487b7100000000000000000000000000000000000000000000000000000000600052604160045260246000fd5b60008190508160005260206000209050919050565b60006020601f8301049050919050565b600082821b905092915050565b600060088302611f1a7fffffffffffffffffffffffffffffffffffffffffffffffffffffffffffffffff82611edd565b611f248683611edd565b95508019841693508086168417925050509392505050565b6000819050919050565b6000819050919050565b6000611f6b611f66611f6184611f3c565b611f46565b611f3c565b9050919050565b6000819050919050565b611f8583611f50565b611f99611f9182611f72565b848454611eea565b825550505050565b600090565b611fae611fa1565b611fb9818484611f7c565b505050565b5b81811015611fdd57611fd2600082611fa6565b600181019050611fbf565b5050565b601f82111561202257611ff381611eb8565b611ffc84611ecd565b8101602085101561200b578190505b61201f61201785611ecd565b830182611fbe565b50505b505050565b600082821c905092915050565b600061204560001984600802612027565b1980831691505092915050565b600061205e8383612034565b9150826002028217905092915050565b6120788383611e7e565b67ffffffffffffffff81111561209157612090611e89565b5b61209b8254611b07565b6120a6828285611fe1565b6000601f8311600181146120d557600084156120c3578287013590505b6120cd8582612052565b865550612135565b601f1984166120e386611eb8565b60005b8281101561210b578489013582556001820191506020850194506020810190506120e6565b868310156121285784890135612124601f891682612034565b8355505b6001600288020188555050505b50505050505050565b600082905092915050565b60008190508160005260206000209050919050565b601f82111561219f5761217081612149565b61217984611ecd565b81016020851015612188578190505b61219c61219485611ecd565b830182611fbe565b50505b505050565b6121ae838361213e565b67ffffffffffffffff8111156121c7576121c6611e89565b5b6121d18254611b07565b6121dc82828561215e565b6000601f83116001811461220b57600084156121f9578287013590505b6122038582612052565b86555061226b565b601f19841661221986612149565b60005b828110156122415784890135825560018201915060208501945060208101905061221c565b8683101561225e578489013561225a601f891682612034565b8355505b6001600288020188555050505b50505050505050565b6000612280838561149b565b935061228d8385846118d5565b612296836114d6565b840190509392505050565b60006122ad838561166e565b93506122ba8385846118d5565b6122c3836114d6565b840190509392505050565b600060408201905081810360008301526122e9818688612274565b905081810360208301526122fe8184866122a1565b905095945050505050565b60006020820190508181036000830152612324818486612274565b9050939250505056fea2646970667358221220b888a2f81b2dd00824d1871c5a4a1d50c0c69109bac47ef65afddb8c020f754764736f6c63430008140033",
  "linkReferences": {},
  "deployedLinkReferences": {}
}