{
  "_format": "hh-sol-artifact-1",
  "contractName": "DataSharingContract",
  "sourceName": "contracts/datasharingcontract.sol",
  "abi": [
    {
      "inputs": [
        {
          "internalType": "address",
          "name": "_adminContract",
          "type": "address"
        }
      ],
      "stateMutability": "nonpayable",
      "type": "constructor"
    },
    {
      "anonymous": false,
      "inputs": [
        {
          "indexed": true,
          "internalType": "address",
          "name": "sender",
          "type": "address"
        },
        {
          "indexed": true,
          "internalType": "address",
          "name": "receiver",
          "type": "address"
        },
        {
          "indexed": false,
          "internalType": "uint256",
          "name": "index",
          "type": "uint256"
        },
        {
          "indexed": false,
          "internalType": "uint256",
          "name": "timestamp",
          "type": "uint256"
        }
      ],
      "name": "AccessRevoked",
      "type": "event"
    },
    {
      "anonymous": false,
      "inputs": [
        {
          "indexed": true,
          "internalType": "address",
          "name": "sender",
          "type": "address"
        },
        {
          "indexed": true,
          "internalType": "address",
          "name": "receiver",
          "type": "address"
        },
        {
          "indexed": false,
          "internalType": "string",
          "name": "cid",
          "type": "string"
        },
        {
          "indexed": false,
          "internalType": "uint256",
          "name": "timestamp",
          "type": "uint256"
        }
      ],
      "name": "DataShared",
      "type": "event"
    },
    {
      "inputs": [],
      "name": "adminContract",
      "outputs": [
        {
          "internalType": "contract IAdminContract",
          "name": "",
          "type": "address"
        }
      ],
      "stateMutability": "view",
      "type": "function"
    },
    {
      "inputs": [],
      "name": "getMySentData",
      "outputs": [
        {
          "components": [
            {
              "internalType": "address",
              "name": "receiver",
              "type": "address"
            },
            {
              "internalType": "uint256",
              "name": "index",
              "type": "uint256"
            },
            {
              "internalType": "string",
              "name": "cid",
              "type": "string"
            },
            {
              "internalType": "uint256",
              "name": "timestamp",
              "type": "uint256"
            },
            {
              "internalType": "bool",
              "name": "active",
              "type": "bool"
            }
          ],
          "internalType": "struct DataSharingContract.SentDataView[]",
          "name": "",
          "type": "tuple[]"
        }
      ],
      "stateMutability": "view",
      "type": "function"
    },
    {
      "inputs": [],
      "name": "getMySharedData",
      "outputs": [
        {
          "components": [
            {
              "internalType": "string",
              "name": "cid",
              "type": "string"
            },
            {
              "internalType": "bytes",
              "name": "encryptedKey",
              "type": "bytes"
            },
            {
              "internalType": "address",
              "name": "sender",
              "type": "address"
            },
            {
              "internalType": "uint256",
              "name": "timestamp",
              "type": "uint256"
            },
            {
              "internalType": "bool",
              "name": "active",
              "type": "bool"
            }
          ],
          "internalType": "struct DataSharingContract.SharedData[]",
          "name": "",
          "type": "tuple[]"
        }
      ],
      "stateMutability": "view",
      "type": "function"
    },
    {
      "inputs": [
        {
          "internalType": "address",
          "name": "receiver",
          "type": "address"
        },
        {
          "internalType": "uint256",
          "name": "index",
          "type": "uint256"
        }
      ],
      "name": "revokeAccess",
      "outputs": [],
      "stateMutability": "nonpayable",
      "type": "function"
    },
    {
      "inputs": [
        {
          "internalType": "address",
          "name": "receiver",
          "type": "address"
        },
        {
          "internalType": "string",
          "name": "cid",
          "type": "string"
        },
        {
          "internalType": "bytes",
          "name": "encryptedKey",
          "type": "bytes"
        }
      ],
      "name": "shareData",
      "outputs": [],
      "stateMutability": "nonpayable",
      "type": "function"
    }
  ],
  "bytecode": "0x60a06040523480156200001157600080fd5b5060405162002d2338038062002d2383398181016040528101906200003791906200014e565b600073ffffffffffffffffffffffffffffffffffffffff168173ffffffffffffffffffffffffffffffffffffffff1603620000a9576040517f08c379a0000000000000000000000000000000000000000000000000000000008152600401620000a09062000207565b60405180910390fd5b8073ffffffffffffffffffffffffffffffffffffffff1660808173ffffffffffffffffffffffffffffffffffffffff16815250505062000229565b600080fd5b600073ffffffffffffffffffffffffffffffffffffffff82169050919050565b60006200011682620000e9565b9050919050565b620001288162000109565b81146200013457600080fd5b50565b60008151905062000148816200011d565b92915050565b600060208284031215620001675762000166620000e4565b5b6000620001778482850162000137565b91505092915050565b600082825260208201905092915050565b7f4461746153686172696e673a20556e6775656c746967652041646d696e436f6e60008201527f74726163742d4164726573736500000000000000000000000000000000000000602082015250565b6000620001ef602d8362000180565b9150620001fc8262000191565b604082019050919050565b600060208201905081810360008301526200022281620001e0565b9050919050565b608051612a996200028a6000396000818160f2015281816101cb01528181610605015281816106de01528181610a5801528181610b3101528181610eca01528181610eee01528181610fc70152818161117d01526112560152612a996000f3fe608060405234801561001057600080fd5b50600436106100575760003560e01c80637c3fe30e1461005c5780638287b0d21461007a578063a99d837914610098578063c05c5e94146100b4578063f42691ce146100d2575b600080fd5b6100646100ee565b6040516100719190611a4b565b60405180910390f35b610082610601565b60405161008f9190611ba5565b60405180910390f35b6100b260048036038101906100ad9190611c29565b610a56565b005b6100bc610ec8565b6040516100c99190611cc8565b60405180910390f35b6100ec60048036038101906100e79190611d9e565b610eec565b005b60607f000000000000000000000000000000000000000000000000000000000000000073ffffffffffffffffffffffffffffffffffffffff1663c3c5a547336040518263ffffffff1660e01b81526004016101499190611e42565b602060405180830381865afa158015610166573d6000803e3d6000fd5b505050506040513d601f19601f8201168201806040525081019061018a9190611e89565b6101c9576040517f08c379a00000000000000000000000000000000000000000000000000000000081526004016101c090611f39565b60405180910390fd5b7f000000000000000000000000000000000000000000000000000000000000000073ffffffffffffffffffffffffffffffffffffffff16639f8a13d7336040518263ffffffff1660e01b81526004016102229190611e42565b602060405180830381865afa15801561023f573d6000803e3d6000fd5b505050506040513d601f19601f820116820180604052508101906102639190611e89565b6102a2576040517f08c379a000000000000000000000000000000000000000000000000000000000815260040161029990611fcb565b60405180910390fd5b60008060003373ffffffffffffffffffffffffffffffffffffffff1673ffffffffffffffffffffffffffffffffffffffff16815260200190815260200160002090506000805b828054905081101561034d5782818154811061030757610306611feb565b5b906000526020600020906005020160040160009054906101000a900460ff161561033a57818061033690612049565b9250505b808061034590612049565b9150506102e8565b5060008167ffffffffffffffff81111561036a57610369612091565b5b6040519080825280602002602001820160405280156103a357816020015b610390611724565b8152602001906001900390816103885790505b5090506000805b84805490508110156105f6578481815481106103c9576103c8611feb565b5b906000526020600020906005020160040160009054906101000a900460ff16156105e357848181548110610400576103ff611feb565b5b90600052602060002090600502016040518060a0016040529081600082018054610429906120ef565b80601f0160208091040260200160405190810160405280929190818152602001828054610455906120ef565b80156104a25780601f10610477576101008083540402835291602001916104a2565b820191906000526020600020905b81548152906001019060200180831161048557829003601f168201915b505050505081526020016001820180546104bb906120ef565b80601f01602080910402602001604051908101604052809291908181526020018280546104e7906120ef565b80156105345780601f1061050957610100808354040283529160200191610534565b820191906000526020600020905b81548152906001019060200180831161051757829003601f168201915b505050505081526020016002820160009054906101000a900473ffffffffffffffffffffffffffffffffffffffff1673ffffffffffffffffffffffffffffffffffffffff1673ffffffffffffffffffffffffffffffffffffffff168152602001600382015481526020016004820160009054906101000a900460ff1615151515815250508383806105c490612049565b9450815181106105d7576105d6611feb565b5b60200260200101819052505b80806105ee90612049565b9150506103aa565b508194505050505090565b60607f000000000000000000000000000000000000000000000000000000000000000073ffffffffffffffffffffffffffffffffffffffff1663c3c5a547336040518263ffffffff1660e01b815260040161065c9190611e42565b602060405180830381865afa158015610679573d6000803e3d6000fd5b505050506040513d601f19601f8201168201806040525081019061069d9190611e89565b6106dc576040517f08c379a00000000000000000000000000000000000000000000000000000000081526004016106d390611f39565b60405180910390fd5b7f000000000000000000000000000000000000000000000000000000000000000073ffffffffffffffffffffffffffffffffffffffff16639f8a13d7336040518263ffffffff1660e01b81526004016107359190611e42565b602060405180830381865afa158015610752573d6000803e3d6000fd5b505050506040513d601f19601f820116820180604052508101906107769190611e89565b6107b5576040517f08c379a00000000000000000000000000000000000000000000000000000000081526004016107ac90611fcb565b60405180910390fd5b6000600160003373ffffffffffffffffffffffffffffffffffffffff1673ffffffffffffffffffffffffffffffffffffffff16815260200190815260200160002090506000818054905067ffffffffffffffff81111561081857610817612091565b5b60405190808252806020026020018201604052801561085157816020015b61083e61176b565b8152602001906001900390816108365790505b50905060005b8280549050811015610a4d57600083828154811061087857610877611feb565b5b9060005260206000209060020201905060008060008360000160009054906101000a900473ffffffffffffffffffffffffffffffffffffffff1673ffffffffffffffffffffffffffffffffffffffff1673ffffffffffffffffffffffffffffffffffffffff16815260200190815260200160002082600101548154811061090257610901611feb565b5b906000526020600020906005020190506040518060a001604052808360000160009054906101000a900473ffffffffffffffffffffffffffffffffffffffff1673ffffffffffffffffffffffffffffffffffffffff16815260200183600101548152602001826000018054610976906120ef565b80601f01602080910402602001604051908101604052809291908181526020018280546109a2906120ef565b80156109ef5780601f106109c4576101008083540402835291602001916109ef565b820191906000526020600020905b8154815290600101906020018083116109d257829003601f168201915b50505050508152602001826003015481526020018260040160009054906101000a900460ff161515815250848481518110610a2d57610a2c611feb565b5b602002602001018190525050508080610a4590612049565b915050610857565b50809250505090565b7f000000000000000000000000000000000000000000000000000000000000000073ffffffffffffffffffffffffffffffffffffffff1663c3c5a547336040518263ffffffff1660e01b8152600401610aaf9190611e42565b602060405180830381865afa158015610acc573d6000803e3d6000fd5b505050506040513d601f19601f82011682018060405250810190610af09190611e89565b610b2f576040517f08c379a0000000000000000000000000000000000000000000000000000000008152600401610b2690611f39565b60405180910390fd5b7f000000000000000000000000000000000000000000000000000000000000000073ffffffffffffffffffffffffffffffffffffffff16639f8a13d7336040518263ffffffff1660e01b8152600401610b889190611e42565b602060405180830381865afa158015610ba5573d6000803e3d6000fd5b505050506040513d601f19601f82011682018060405250810190610bc99190611e89565b610c08576040517f08c379a0000000000000000000000000000000000000000000000000000000008152600401610bff90611fcb565b60405180910390fd5b600073ffffffffffffffffffffffffffffffffffffffff168273ffffffffffffffffffffffffffffffffffffffff1603610c77576040517f08c379a0000000000000000000000000000000000000000000000000000000008152600401610c6e90612192565b60405180910390fd5b6000808373ffffffffffffffffffffffffffffffffffffffff1673ffffffffffffffffffffffffffffffffffffffff168152602001908152602001600020805490508110610cfa576040517f08c379a0000000000000000000000000000000000000000000000000000000008152600401610cf1906121fe565b60405180910390fd5b60008060008473ffffffffffffffffffffffffffffffffffffffff1673ffffffffffffffffffffffffffffffffffffffff1681526020019081526020016000208281548110610d4c57610d4b611feb565b5b906000526020600020906005020190503373ffffffffffffffffffffffffffffffffffffffff168160020160009054906101000a900473ffffffffffffffffffffffffffffffffffffffff1673ffffffffffffffffffffffffffffffffffffffff1614610dee576040517f08c379a0000000000000000000000000000000000000000000000000000000008152600401610de590612290565b60405180910390fd5b8060040160009054906101000a900460ff16610e3f576040517f08c379a0000000000000000000000000000000000000000000000000000000008152600401610e3690612322565b60405180910390fd5b60008160040160006101000a81548160ff0219169083151502179055508273ffffffffffffffffffffffffffffffffffffffff163373ffffffffffffffffffffffffffffffffffffffff167f7c294fa488f994d5cf7e5e245a6237154044f56e8981f844157fe9a9d728f6a38442604051610ebb929190612351565b60405180910390a3505050565b7f000000000000000000000000000000000000000000000000000000000000000081565b7f000000000000000000000000000000000000000000000000000000000000000073ffffffffffffffffffffffffffffffffffffffff1663c3c5a547336040518263ffffffff1660e01b8152600401610f459190611e42565b602060405180830381865afa158015610f62573d6000803e3d6000fd5b505050506040513d601f19601f82011682018060405250810190610f869190611e89565b610fc5576040517f08c379a0000000000000000000000000000000000000000000000000000000008152600401610fbc90611f39565b60405180910390fd5b7f000000000000000000000000000000000000000000000000000000000000000073ffffffffffffffffffffffffffffffffffffffff16639f8a13d7336040518263ffffffff1660e01b815260040161101e9190611e42565b602060405180830381865afa15801561103b573d6000803e3d6000fd5b505050506040513d601f19601f8201168201806040525081019061105f9190611e89565b61109e576040517f08c379a000000000000000000000000000000000000000000000000000000000815260040161109590611fcb565b60405180910390fd5b600073ffffffffffffffffffffffffffffffffffffffff168573ffffffffffffffffffffffffffffffffffffffff160361110d576040517f08c379a000000000000000000000000000000000000000000000000000000000815260040161110490612192565b60405180910390fd5b3373ffffffffffffffffffffffffffffffffffffffff168573ffffffffffffffffffffffffffffffffffffffff160361117b576040517f08c379a0000000000000000000000000000000000000000000000000000000008152600401611172906123ec565b60405180910390fd5b7f000000000000000000000000000000000000000000000000000000000000000073ffffffffffffffffffffffffffffffffffffffff1663c3c5a547866040518263ffffffff1660e01b81526004016111d49190611e42565b602060405180830381865afa1580156111f1573d6000803e3d6000fd5b505050506040513d601f19601f820116820180604052508101906112159190611e89565b611254576040517f08c379a000000000000000000000000000000000000000000000000000000000815260040161124b9061247e565b60405180910390fd5b7f000000000000000000000000000000000000000000000000000000000000000073ffffffffffffffffffffffffffffffffffffffff16639f8a13d7866040518263ffffffff1660e01b81526004016112ad9190611e42565b602060405180830381865afa1580156112ca573d6000803e3d6000fd5b505050506040513d601f19601f820116820180604052508101906112ee9190611e89565b61132d576040517f08c379a000000000000000000000000000000000000000000000000000000000815260040161132490612510565b60405180910390fd5b60008484905011611373576040517f08c379a000000000000000000000000000000000000000000000000000000000815260040161136a906125a2565b60405180910390fd5b600082829050116113b9576040517f08c379a00000000000000000000000000000000000000000000000000000000081526004016113b090612634565b60405180910390fd5b60008060008773ffffffffffffffffffffffffffffffffffffffff1673ffffffffffffffffffffffffffffffffffffffff1681526020019081526020016000208054905090506000808773ffffffffffffffffffffffffffffffffffffffff1673ffffffffffffffffffffffffffffffffffffffff1681526020019081526020016000206040518060a0016040528087878080601f016020809104026020016040519081016040528093929190818152602001838380828437600081840152601f19601f82011690508083019250505050505050815260200185858080601f016020809104026020016040519081016040528093929190818152602001838380828437600081840152601f19601f8201169050808301925050505050505081526020013373ffffffffffffffffffffffffffffffffffffffff168152602001428152602001600115158152509080600181540180825580915050600190039060005260206000209060050201600090919091909150600082015181600001908161154391906127f6565b5060208201518160010190816115599190612923565b5060408201518160020160006101000a81548173ffffffffffffffffffffffffffffffffffffffff021916908373ffffffffffffffffffffffffffffffffffffffff1602179055506060820151816003015560808201518160040160006101000a81548160ff0219169083151502179055505050600160003373ffffffffffffffffffffffffffffffffffffffff1673ffffffffffffffffffffffffffffffffffffffff16815260200190815260200160002060405180604001604052808873ffffffffffffffffffffffffffffffffffffffff16815260200183815250908060018154018082558091505060019003906000526020600020906002020160009091909190915060008201518160000160006101000a81548173ffffffffffffffffffffffffffffffffffffffff021916908373ffffffffffffffffffffffffffffffffffffffff1602179055506020820151816001015550508573ffffffffffffffffffffffffffffffffffffffff163373ffffffffffffffffffffffffffffffffffffffff167f9075ebf5f39f05ecd4f5733cd6641a00639543399164e6719fd2b8d4c5f48ff487874260405161171493929190612a31565b60405180910390a3505050505050565b6040518060a001604052806060815260200160608152602001600073ffffffffffffffffffffffffffffffffffffffff168152602001600081526020016000151581525090565b6040518060a00160405280600073ffffffffffffffffffffffffffffffffffffffff1681526020016000815260200160608152602001600081526020016000151581525090565b600081519050919050565b600082825260208201905092915050565b6000819050602082019050919050565b600081519050919050565b600082825260208201905092915050565b60005b838110156118185780820151818401526020810190506117fd565b60008484015250505050565b6000601f19601f8301169050919050565b6000611840826117de565b61184a81856117e9565b935061185a8185602086016117fa565b61186381611824565b840191505092915050565b600081519050919050565b600082825260208201905092915050565b60006118958261186e565b61189f8185611879565b93506118af8185602086016117fa565b6118b881611824565b840191505092915050565b600073ffffffffffffffffffffffffffffffffffffffff82169050919050565b60006118ee826118c3565b9050919050565b6118fe816118e3565b82525050565b6000819050919050565b61191781611904565b82525050565b60008115159050919050565b6119328161191d565b82525050565b600060a08301600083015184820360008601526119558282611835565b9150506020830151848203602086015261196f828261188a565b915050604083015161198460408601826118f5565b506060830151611997606086018261190e565b5060808301516119aa6080860182611929565b508091505092915050565b60006119c18383611938565b905092915050565b6000602082019050919050565b60006119e1826117b2565b6119eb81856117bd565b9350836020820285016119fd856117ce565b8060005b85811015611a395784840389528151611a1a85826119b5565b9450611a25836119c9565b925060208a01995050600181019050611a01565b50829750879550505050505092915050565b60006020820190508181036000830152611a6581846119d6565b905092915050565b600081519050919050565b600082825260208201905092915050565b6000819050602082019050919050565b600060a083016000830151611ab160008601826118f5565b506020830151611ac4602086018261190e565b5060408301518482036040860152611adc8282611835565b9150506060830151611af1606086018261190e565b506080830151611b046080860182611929565b508091505092915050565b6000611b1b8383611a99565b905092915050565b6000602082019050919050565b6000611b3b82611a6d565b611b458185611a78565b935083602082028501611b5785611a89565b8060005b85811015611b935784840389528151611b748582611b0f565b9450611b7f83611b23565b925060208a01995050600181019050611b5b565b50829750879550505050505092915050565b60006020820190508181036000830152611bbf8184611b30565b905092915050565b600080fd5b600080fd5b611bda816118e3565b8114611be557600080fd5b50565b600081359050611bf781611bd1565b92915050565b611c0681611904565b8114611c1157600080fd5b50565b600081359050611c2381611bfd565b92915050565b60008060408385031215611c4057611c3f611bc7565b5b6000611c4e85828601611be8565b9250506020611c5f85828601611c14565b9150509250929050565b6000819050919050565b6000611c8e611c89611c84846118c3565b611c69565b6118c3565b9050919050565b6000611ca082611c73565b9050919050565b6000611cb282611c95565b9050919050565b611cc281611ca7565b82525050565b6000602082019050611cdd6000830184611cb9565b92915050565b600080fd5b600080fd5b600080fd5b60008083601f840112611d0857611d07611ce3565b5b8235905067ffffffffffffffff811115611d2557611d24611ce8565b5b602083019150836001820283011115611d4157611d40611ced565b5b9250929050565b60008083601f840112611d5e57611d5d611ce3565b5b8235905067ffffffffffffffff811115611d7b57611d7a611ce8565b5b602083019150836001820283011115611d9757611d96611ced565b5b9250929050565b600080600080600060608688031215611dba57611db9611bc7565b5b6000611dc888828901611be8565b955050602086013567ffffffffffffffff811115611de957611de8611bcc565b5b611df588828901611cf2565b9450945050604086013567ffffffffffffffff811115611e1857611e17611bcc565b5b611e2488828901611d48565b92509250509295509295909350565b611e3c816118e3565b82525050565b6000602082019050611e576000830184611e33565b92915050565b611e668161191d565b8114611e7157600080fd5b50565b600081519050611e8381611e5d565b92915050565b600060208284031215611e9f57611e9e611bc7565b5b6000611ead84828501611e74565b91505092915050565b600082825260208201905092915050565b7f4461746153686172696e673a206d73672e73656e64657220697374206e69636860008201527f7420726567697374726965727400000000000000000000000000000000000000602082015250565b6000611f23602d83611eb6565b9150611f2e82611ec7565b604082019050919050565b60006020820190508181036000830152611f5281611f16565b9050919050565b7f4461746153686172696e673a206d73672e73656e64657220697374206465616b60008201527f7469766965727400000000000000000000000000000000000000000000000000602082015250565b6000611fb5602783611eb6565b9150611fc082611f59565b604082019050919050565b60006020820190508181036000830152611fe481611fa8565b9050919050565b7f4e487b7100000000000000000000000000000000000000000000000000000000600052603260045260246000fd5b7f4e487b7100000000000000000000000000000000000000000000000000000000600052601160045260246000fd5b600061205482611904565b91507fffffffffffffffffffffffffffffffffffffffffffffffffffffffffffffffff82036120865761208561201a565b5b600182019050919050565b7f4e487b7100000000000000000000000000000000000000000000000000000000600052604160045260246000fd5b7f4e487b7100000000000000000000000000000000000000000000000000000000600052602260045260246000fd5b6000600282049050600182168061210757607f821691505b60208210810361211a576121196120c0565b5b50919050565b7f4461746153686172696e673a20556e6775656c7469676520456d706661656e6760008201527f65722d4164726573736500000000000000000000000000000000000000000000602082015250565b600061217c602a83611eb6565b915061218782612120565b604082019050919050565b600060208201905081810360008301526121ab8161216f565b9050919050565b7f4461746153686172696e673a20556e6775656c746967657220496e6465780000600082015250565b60006121e8601e83611eb6565b91506121f3826121b2565b602082019050919050565b60006020820190508181036000830152612217816121db565b9050919050565b7f4461746153686172696e673a204e7572206465722053656e646572206461726660008201527f207769646572727566656e000000000000000000000000000000000000000000602082015250565b600061227a602b83611eb6565b91506122858261221e565b604082019050919050565b600060208201905081810360008301526122a98161226d565b9050919050565b7f4461746153686172696e673a205a75677269666620626572656974732077696460008201527f6572727566656e00000000000000000000000000000000000000000000000000602082015250565b600061230c602783611eb6565b9150612317826122b0565b604082019050919050565b6000602082019050818103600083015261233b816122ff565b9050919050565b61234b81611904565b82525050565b60006040820190506123666000830185612342565b6123736020830184612342565b9392505050565b7f4461746153686172696e673a2053656e64657220756e6420456d706661656e6760008201527f6572206964656e74697363680000000000000000000000000000000000000000602082015250565b60006123d6602c83611eb6565b91506123e18261237a565b604082019050919050565b60006020820190508181036000830152612405816123c9565b9050919050565b7f4461746153686172696e673a20456d706661656e676572206e6963687420726560008201527f6769737472696572740000000000000000000000000000000000000000000000602082015250565b6000612468602983611eb6565b91506124738261240c565b604082019050919050565b600060208201905081810360008301526124978161245b565b9050919050565b7f4461746153686172696e673a20456d706661656e67657220697374206465616b60008201527f7469766965727400000000000000000000000000000000000000000000000000602082015250565b60006124fa602783611eb6565b91506125058261249e565b604082019050919050565b60006020820190508181036000830152612529816124ed565b9050919050565b7f4461746153686172696e673a204349442064617266206e69636874206c65657260008201527f207365696e000000000000000000000000000000000000000000000000000000602082015250565b600061258c602583611eb6565b915061259782612530565b604082019050919050565b600060208201905081810360008301526125bb8161257f565b9050919050565b7f4461746153686172696e673a205665727363686c2e205363686c75657373656c60008201527f2064617266206e69636874206c656572207365696e0000000000000000000000602082015250565b600061261e603583611eb6565b9150612629826125c2565b604082019050919050565b6000602082019050818103600083015261264d81612611565b9050919050565b60008190508160005260206000209050919050565b60006020601f8301049050919050565b600082821b905092915050565b6000600883026126b67fffffffffffffffffffffffffffffffffffffffffffffffffffffffffffffffff82612679565b6126c08683612679565b95508019841693508086168417925050509392505050565b60006126f36126ee6126e984611904565b611c69565b611904565b9050919050565b6000819050919050565b61270d836126d8565b612721612719826126fa565b848454612686565b825550505050565b600090565b612736612729565b612741818484612704565b505050565b5b818110156127655761275a60008261272e565b600181019050612747565b5050565b601f8211156127aa5761277b81612654565b61278484612669565b81016020851015612793578190505b6127a761279f85612669565b830182612746565b50505b505050565b600082821c905092915050565b60006127cd600019846008026127af565b1980831691505092915050565b60006127e683836127bc565b9150826002028217905092915050565b6127ff826117de565b67ffffffffffffffff81111561281857612817612091565b5b61282282546120ef565b61282d828285612769565b600060209050601f831160018114612860576000841561284e578287015190505b61285885826127da565b8655506128c0565b601f19841661286e86612654565b60005b8281101561289657848901518255600182019150602085019450602081019050612871565b868310156128b357848901516128af601f8916826127bc565b8355505b6001600288020188555050505b505050505050565b60008190508160005260206000209050919050565b601f82111561291e576128ef816128c8565b6128f884612669565b81016020851015612907578190505b61291b61291385612669565b830182612746565b50505b505050565b61292c8261186e565b67ffffffffffffffff81111561294557612944612091565b5b61294f82546120ef565b61295a8282856128dd565b600060209050601f83116001811461298d576000841561297b578287015190505b61298585826127da565b8655506129ed565b601f19841661299b866128c8565b60005b828110156129c35784890151825560018201915060208501945060208101905061299e565b868310156129e057848901516129dc601f8916826127bc565b8355505b6001600288020188555050505b505050505050565b82818337600083830152505050565b6000612a108385611eb6565b9350612a1d8385846129f5565b612a2683611824565b840190509392505050565b60006040820190508181036000830152612a4c818587612a04565b9050612a5b6020830184612342565b94935050505056fea2646970667358221220885e2f9afc1e8a297ec759e9490716954190073017767900075a4408d613809f64736f6c63430008140033",
  "linkReferences": {},
  "deployedLinkReferences": {}
}